{"abi":[{"type":"constructor","inputs":[{"name":"_endpoint","type":"address","internalType":"address"},{"name":"_version","type":"uint64","internalType":"uint64"}],"stateMutability":"nonpayable"},{"type":"function","name":"endpoint","inputs":[],"outputs":[{"name":"","type":"address","internalType":"contract ILayerZeroEndpointV2"}],"stateMutability":"view"},{"type":"function","name":"oAppVersion","inputs":[],"outputs":[{"name":"senderVersion","type":"uint64","internalType":"uint64"},{"name":"receiverVersion","type":"uint64","internalType":"uint64"}],"stateMutability":"view"},{"type":"function","name":"owner","inputs":[],"outputs":[{"name":"","type":"address","internalType":"address"}],"stateMutability":"view"},{"type":"function","name":"peers","inputs":[{"name":"eid","type":"uint32","internalType":"uint32"}],"outputs":[{"name":"peer","type":"bytes32","internalType":"bytes32"}],"stateMutability":"view"},{"type":"function","name":"quote","inputs":[{"name":"_dstEid","type":"uint32","internalType":"uint32"},{"name":"_receiver","type":"address","internalType":"address"},{"name":"payload","type":"bytes","internalType":"bytes"},{"name":"options","type":"bytes","internalType":"bytes"},{"name":"_payInLzToken","type":"bool","internalType":"bool"}],"outputs":[{"name":"fee","type":"tuple","internalType":"struct MessagingFee","components":[{"name":"nativeFee","type":"uint256","internalType":"uint256"},{"name":"lzTokenFee","type":"uint256","internalType":"uint256"}]}],"stateMutability":"view"},{"type":"function","name":"renounceOwnership","inputs":[],"outputs":[],"stateMutability":"nonpayable"},{"type":"function","name":"sendMessage","inputs":[{"name":"_dstEid","type":"uint32","internalType":"uint32"},{"name":"_receiver","type":"address","internalType":"address"},{"name":"options","type":"bytes","internalType":"bytes"},{"name":"payload","type":"bytes","internalType":"bytes"},{"name":"_fee","type":"tuple","internalType":"struct MessagingFee","components":[{"name":"nativeFee","type":"uint256","internalType":"uint256"},{"name":"lzTokenFee","type":"uint256","internalType":"uint256"}]}],"outputs":[{"name":"receipt","type":"tuple","internalType":"struct MessagingReceipt","components":[{"name":"guid","type":"bytes32","internalType":"bytes32"},{"name":"nonce","type":"uint64","internalType":"uint64"},{"name":"fee","type":"tuple","internalType":"struct MessagingFee","components":[{"name":"nativeFee","type":"uint256","internalType":"uint256"},{"name":"lzTokenFee","type":"uint256","internalType":"uint256"}]}]}],"stateMutability":"payable"},{"type":"function","name":"setDelegate","inputs":[{"name":"_delegate","type":"address","internalType":"address"}],"outputs":[],"stateMutability":"nonpayable"},{"type":"function","name":"setPeer","inputs":[{"name":"_eid","type":"uint32","internalType":"uint32"},{"name":"_peer","type":"bytes32","internalType":"bytes32"}],"outputs":[],"stateMutability":"nonpayable"},{"type":"function","name":"transferOwnership","inputs":[{"name":"newOwner","type":"address","internalType":"address"}],"outputs":[],"stateMutability":"nonpayable"},{"type":"function","name":"version","inputs":[],"outputs":[{"name":"","type":"uint64","internalType":"uint64"}],"stateMutability":"view"},{"type":"event","name":"OwnershipTransferred","inputs":[{"name":"previousOwner","type":"address","indexed":true,"internalType":"address"},{"name":"newOwner","type":"address","indexed":true,"internalType":"address"}],"anonymous":false},{"type":"event","name":"PeerSet","inputs":[{"name":"eid","type":"uint32","indexed":false,"internalType":"uint32"},{"name":"peer","type":"bytes32","indexed":false,"internalType":"bytes32"}],"anonymous":false},{"type":"event","name":"ReachedSendMessageFunction","inputs":[{"name":"message","type":"string","indexed":true,"internalType":"string"}],"anonymous":false},{"type":"error","name":"AddressEmptyCode","inputs":[{"name":"target","type":"address","internalType":"address"}]},{"type":"error","name":"AddressInsufficientBalance","inputs":[{"name":"account","type":"address","internalType":"address"}]},{"type":"error","name":"FailedInnerCall","inputs":[]},{"type":"error","name":"InvalidDelegate","inputs":[]},{"type":"error","name":"InvalidEndpointCall","inputs":[]},{"type":"error","name":"LzTokenUnavailable","inputs":[]},{"type":"error","name":"NoEthSentForGas","inputs":[]},{"type":"error","name":"NoPeer","inputs":[{"name":"eid","type":"uint32","internalType":"uint32"}]},{"type":"error","name":"NotEnoughNative","inputs":[{"name":"msgValue","type":"uint256","internalType":"uint256"}]},{"type":"error","name":"OnlyPeer","inputs":[{"name":"eid","type":"uint32","internalType":"uint32"},{"name":"sender","type":"bytes32","internalType":"bytes32"}]},{"type":"error","name":"OwnableInvalidOwner","inputs":[{"name":"owner","type":"address","internalType":"address"}]},{"type":"error","name":"OwnableUnauthorizedAccount","inputs":[{"name":"account","type":"address","internalType":"address"}]},{"type":"error","name":"SafeERC20FailedOperation","inputs":[{"name":"token","type":"address","internalType":"address"}]}],"bytecode":{"object":"0x60a08060405234610150576000604082610e0e80380380916100218285610155565b83398101031261014d5781516001600160a01b038116929083900361014957602001516001600160401b0381169290839003610149573315610135578154336001600160a01b031982168117845560405192916001600160a01b03167f8be0079c531659141344cd1fd0a4f28419497f9722a3daafe3b4186f6b6457e08580a380608052803b15610131578160248185809463ca5eb5e160e01b83523360048401525af1801561012657610116575b600280546001600160401b03191684179055604051610c7f908161018f8239608051818181610287015281816103d401528181610594015281816106e801526108ac0152f35b8161012091610155565b386100d0565b6040513d84823e3d90fd5b8280fd5b631e4fbdf760e01b82526004829052602482fd5b5080fd5b80fd5b600080fd5b601f909101601f19168101906001600160401b0382119082101761017857604052565b634e487b7160e01b600052604160045260246000fdfe6080604052600436101561001257600080fd5b6000803560e01c8063049feaeb146107d557806317442b70146107a95780633400288b1461073e57806354fd4d50146107175780635e280f11146106d2578063715018a6146106785780638da5cb5b14610651578063bb0b6a531461061c578063ca5eb5e11461056f578063d262ec581461011e5763f2fde38b1461009657600080fd5b3461011b57602036600319011261011b576100af610965565b6100b7610b8b565b6001600160a01b031680156101075781546001600160a01b03198116821783556001600160a01b03167f8be0079c531659141344cd1fd0a4f28419497f9722a3daafe3b4186f6b6457e08380a380f35b631e4fbdf760e01b82526004829052602482fd5b80fd5b5060c036600319011261011b57610133610937565b61013b61094f565b506044356001600160401b0381116103af5761015b903690600401610a1e565b6064356001600160401b03811161056b5761017a903690600401610a1e565b90604036608319011261056b5760405190610194826109ac565b6084358252602082019160a43583526101ab610a7e565b508051341061055c576040516872656163686564203160b81b90527fd7acd66d277bf3f7fa1c9598063289fece695a248a2365e2cf1f5477c556b9a37f2e12280ce5060fc1a629cba49ac5d8aec172775f4945a6f3725c02cb02e42d1a8780a2610213610a7e565b505192833403610549578251806103c5575b509160809391859361023961028397610bb4565b925115159263ffffffff604051966102508861097b565b1686526020860152604085015260608401528383015260405180809581946302637a4560e41b8352339060048401610b1d565b03917f00000000000000000000000000000000000000000000000000000000000000006001600160a01b03165af19081156103ba57829161033c575b6080836020604085601e82517f6920686176652066696e69736865642072756e6e696e67206c7a53656e6400008152207f2e12280ce5060fc1a629cba49ac5d8aec172775f4945a6f3725c02cb02e42d1a83519580a2805184526001600160401b0383820151168385015201518051604084015201516060820152f35b905060803d6080116103b3575b61035381836109e2565b81016080828203126103af576040519161036c836109c7565b8051835260208101516001600160401b03811681036103ab579261039e60209360408094608098978786015201610ab4565b82820152929350506102bf565b8480fd5b8280fd5b503d610349565b6040513d84823e3d90fd5b60405163393f876560e21b81527f00000000000000000000000000000000000000000000000000000000000000006001600160a01b031690602081600481855afa90811561053e5789916104f8575b506001600160a01b03169182156104e957886104939281926040519060208201926323b872dd60e01b8452336024840152604483015260648201526064815261045e6084826109e2565b519082865af13d156104e1573d9061047582610a03565b9161048360405193846109e2565b82523d8a602084013e5b83610be8565b80519081151591826104b9575b50501561022557635274afe760e01b8752600452602486fd5b81925090602091810103126104dd57602001518015908115036104dd5738806104a0565b8780fd5b60609061048d565b6329b99a9560e11b8952600489fd5b90506020813d602011610536575b81610513602093836109e2565b8101031261053257516001600160a01b03811681036105325738610414565b8880fd5b3d9150610506565b6040513d8b823e3d90fd5b6304fb820960e51b865234600452602486fd5b6308da645b60e01b8652600486fd5b8380fd5b503461011b57602036600319011261011b578061058a610965565b610592610b8b565b7f00000000000000000000000000000000000000000000000000000000000000006001600160a01b031690813b156106185760405163ca5eb5e160e01b81526001600160a01b039091166004820152919081908390602490829084905af1801561060b576105fd5780f35b610606916109e2565b388180f35b50604051903d90823e3d90fd5b5050fd5b503461011b57602036600319011261011b57604060209163ffffffff610640610937565b168152600183522054604051908152f35b503461011b578060031936011261011b57546040516001600160a01b039091168152602090f35b503461011b578060031936011261011b57610691610b8b565b80546001600160a01b03198116825581906001600160a01b03167f8be0079c531659141344cd1fd0a4f28419497f9722a3daafe3b4186f6b6457e08280a380f35b503461011b578060031936011261011b576040517f00000000000000000000000000000000000000000000000000000000000000006001600160a01b03168152602090f35b503461011b578060031936011261011b5760206001600160401b0360025416604051908152f35b503461011b57604036600319011261011b577f238399d427b947898edb290f5ff0f9109849b1c3ba196a42e35f00c50a54b98b604061077b610937565b63ffffffff6024359161078c610b8b565b16908185526001602052808386205582519182526020820152a180f35b503461011b578060031936011261011b5760406001600160401b03600254168151908082526020820152f35b503461011b5760a036600319011261011b576107ef610937565b6107f761094f565b506044356001600160401b0381116103af57610817903690600401610a1e565b6064356001600160401b03811161056b57610836903690600401610a1e565b916084358015158091036103ab576108a893604093610853610a65565b5061085c610a65565b5061086684610bb4565b63ffffffff8651956108778761097b565b16855260208501528484015260608301526080820152815180938192631bb8518b60e31b8352309060048401610b1d565b03817f00000000000000000000000000000000000000000000000000000000000000006001600160a01b03165afa9081156103ba5782916108f9575b60408260208251918051835201516020820152f35b905060403d604011610930575b61091081836109e2565b81019160408284031261011b575060409161092a91610ab4565b386108e4565b503d610906565b6004359063ffffffff8216820361094a57565b600080fd5b602435906001600160a01b038216820361094a57565b600435906001600160a01b038216820361094a57565b60a081019081106001600160401b0382111761099657604052565b634e487b7160e01b600052604160045260246000fd5b604081019081106001600160401b0382111761099657604052565b606081019081106001600160401b0382111761099657604052565b90601f801991011681019081106001600160401b0382111761099657604052565b6001600160401b03811161099657601f01601f191660200190565b81601f8201121561094a57803590610a3582610a03565b92610a4360405194856109e2565b8284526020838301011161094a57816000926020809301838601378301015290565b60405190610a72826109ac565b60006020838281520152565b60405190610a8b826109c7565b8160008152600060208201526040805191610aa5836109ac565b60008352600060208401520152565b919082604091031261094a57604051610acc816109ac565b6020808294805184520151910152565b919082519283825260005b848110610b08575050826000602080949584010152601f8019910116010190565b80602080928401015182828601015201610ae7565b906020909392936040835263ffffffff81511660408401528181015160608401526080610b71610b5b604084015160a08488015260e0870190610adc565b6060840151868203603f190160a0880152610adc565b910151151560c08401526001600160a01b03909416910152565b6000546001600160a01b03163303610b9f57565b63118cdaa760e01b6000523360045260246000fd5b63ffffffff16806000526001602052604060002054908115610bd4575090565b63f6ff4fb760e01b60005260045260246000fd5b90610c0e5750805115610bfd57805190602001fd5b630a12f52160e11b60005260046000fd5b81511580610c40575b610c1f575090565b639996b31560e01b60009081526001600160a01b0391909116600452602490fd5b50803b15610c1756fea264697066735822122065b309d7cc35afedb5df80f5be7664d1cb0419184b89df5a944b2c727d984eb464736f6c634300081a0033","linkReferences":{}},"methodIdentifiers":{"endpoint()":"5e280f11","oAppVersion()":"17442b70","owner()":"8da5cb5b","peers(uint32)":"bb0b6a53","quote(uint32,address,bytes,bytes,bool)":"049feaeb","renounceOwnership()":"715018a6","sendMessage(uint32,address,bytes,bytes,(uint256,uint256))":"d262ec58","setDelegate(address)":"ca5eb5e1","setPeer(uint32,bytes32)":"3400288b","transferOwnership(address)":"f2fde38b","version()":"54fd4d50"},"id":79}