{"abi":[{"type":"constructor","inputs":[{"name":"_factory","type":"address","internalType":"contract IUniswapV3Factory"},{"name":"_nonfungiblePositionManager","type":"address","internalType":"contract INonfungiblePositionManager"},{"name":"_swapRouter02","type":"address","internalType":"contract ISwapRouter02"},{"name":"_WETH9","type":"address","internalType":"address"},{"name":"_stargatePoolNative","type":"address","internalType":"address"},{"name":"_endpointV2","type":"address","internalType":"address"}],"stateMutability":"nonpayable"},{"type":"receive","stateMutability":"payable"},{"type":"function","name":"LIQUIDITY_LOCK_PERIOD","inputs":[],"outputs":[{"name":"","type":"uint256","internalType":"uint256"}],"stateMutability":"view"},{"type":"function","name":"MIN_AMOUNT","inputs":[],"outputs":[{"name":"","type":"uint256","internalType":"uint256"}],"stateMutability":"view"},{"type":"function","name":"WETH9","inputs":[],"outputs":[{"name":"","type":"address","internalType":"address"}],"stateMutability":"view"},{"type":"function","name":"calculateInitialSqrtPrice","inputs":[{"name":"token0","type":"address","internalType":"address"},{"name":"token1","type":"address","internalType":"address"},{"name":"amount0","type":"uint256","internalType":"uint256"},{"name":"amount1","type":"uint256","internalType":"uint256"}],"outputs":[{"name":"","type":"uint160","internalType":"uint160"}],"stateMutability":"view"},{"type":"function","name":"calculatePriceFromSqrtPriceX96","inputs":[{"name":"sqrtPriceX96","type":"uint160","internalType":"uint160"},{"name":"tokenAddress","type":"address","internalType":"address"}],"outputs":[{"name":"","type":"uint256","internalType":"uint256"}],"stateMutability":"view"},{"type":"function","name":"calculateTickRange","inputs":[{"name":"currentTick","type":"int24","internalType":"int24"},{"name":"currentPrice","type":"uint256","internalType":"uint256"}],"outputs":[{"name":"tickLower","type":"int24","internalType":"int24"},{"name":"tickUpper","type":"int24","internalType":"int24"}],"stateMutability":"view"},{"type":"function","name":"createTokenAndAddLiquidity","inputs":[{"name":"tokenCreator","type":"address","internalType":"address"},{"name":"name","type":"string","internalType":"string"},{"name":"symbol","type":"string","internalType":"string"},{"name":"description","type":"string","internalType":"string"},{"name":"imageUrl","type":"string","internalType":"string"},{"name":"twitter","type":"string","internalType":"string"},{"name":"telegram","type":"string","internalType":"string"},{"name":"website","type":"string","internalType":"string"},{"name":"initialSupply","type":"uint256","internalType":"uint256"},{"name":"lockedLiquidityPercentage","type":"uint256","internalType":"uint256"}],"outputs":[{"name":"tokenAddress","type":"address","internalType":"address"}],"stateMutability":"payable"},{"type":"function","name":"deposits","inputs":[{"name":"","type":"uint256","internalType":"uint256"}],"outputs":[{"name":"owner","type":"address","internalType":"address"},{"name":"liquidity","type":"uint128","internalType":"uint128"},{"name":"token0","type":"address","internalType":"address"},{"name":"token1","type":"address","internalType":"address"}],"stateMutability":"view"},{"type":"function","name":"endpointV2","inputs":[],"outputs":[{"name":"","type":"address","internalType":"address"}],"stateMutability":"view"},{"type":"function","name":"factory","inputs":[],"outputs":[{"name":"","type":"address","internalType":"contract IUniswapV3Factory"}],"stateMutability":"view"},{"type":"function","name":"getCurrentPrice","inputs":[{"name":"tokenAddress","type":"address","internalType":"address"}],"outputs":[{"name":"","type":"uint256","internalType":"uint256"}],"stateMutability":"view"},{"type":"function","name":"getPoolAddress","inputs":[{"name":"tokenAddress","type":"address","internalType":"address"}],"outputs":[{"name":"","type":"address","internalType":"address"}],"stateMutability":"view"},{"type":"function","name":"getPoolLiquidity","inputs":[{"name":"tokenAddress","type":"address","internalType":"address"}],"outputs":[{"name":"","type":"uint128","internalType":"uint128"}],"stateMutability":"view"},{"type":"function","name":"getPoolReserves","inputs":[{"name":"tokenAddress","type":"address","internalType":"address"}],"outputs":[{"name":"tokenReserve","type":"uint256","internalType":"uint256"},{"name":"ethReserve","type":"uint256","internalType":"uint256"}],"stateMutability":"view"},{"type":"function","name":"getPoolSlot0","inputs":[{"name":"tokenAddress","type":"address","internalType":"address"}],"outputs":[{"name":"","type":"uint160","internalType":"uint160"},{"name":"","type":"int24","internalType":"int24"}],"stateMutability":"view"},{"type":"function","name":"getTokenBalance","inputs":[{"name":"tokenAddress","type":"address","internalType":"address"},{"name":"account","type":"address","internalType":"address"}],"outputs":[{"name":"","type":"uint256","internalType":"uint256"}],"stateMutability":"view"},{"type":"function","name":"lzCompose","inputs":[{"name":"_from","type":"address","internalType":"address"},{"name":"","type":"bytes32","internalType":"bytes32"},{"name":"_message","type":"bytes","internalType":"bytes"},{"name":"","type":"address","internalType":"address"},{"name":"","type":"bytes","internalType":"bytes"}],"outputs":[],"stateMutability":"payable"},{"type":"function","name":"nonfungiblePositionManager","inputs":[],"outputs":[{"name":"","type":"address","internalType":"contract INonfungiblePositionManager"}],"stateMutability":"view"},{"type":"function","name":"onERC721Received","inputs":[{"name":"","type":"address","internalType":"address"},{"name":"","type":"address","internalType":"address"},{"name":"","type":"uint256","internalType":"uint256"},{"name":"","type":"bytes","internalType":"bytes"}],"outputs":[{"name":"","type":"bytes4","internalType":"bytes4"}],"stateMutability":"view"},{"type":"function","name":"orderTokens","inputs":[{"name":"tokenAddress","type":"address","internalType":"address"}],"outputs":[{"name":"token0","type":"address","internalType":"address"},{"name":"token1","type":"address","internalType":"address"}],"stateMutability":"view"},{"type":"function","name":"owner","inputs":[],"outputs":[{"name":"","type":"address","internalType":"address"}],"stateMutability":"view"},{"type":"function","name":"poolFee","inputs":[],"outputs":[{"name":"","type":"uint24","internalType":"uint24"}],"stateMutability":"view"},{"type":"function","name":"renounceOwnership","inputs":[],"outputs":[],"stateMutability":"nonpayable"},{"type":"function","name":"sqrt","inputs":[{"name":"x","type":"uint256","internalType":"uint256"}],"outputs":[{"name":"y","type":"uint256","internalType":"uint256"}],"stateMutability":"pure"},{"type":"function","name":"stargatePoolNative","inputs":[],"outputs":[{"name":"","type":"address","internalType":"address"}],"stateMutability":"view"},{"type":"function","name":"swapExactETHForTokens","inputs":[{"name":"tokenAddress","type":"address","internalType":"address"}],"outputs":[{"name":"","type":"uint256","internalType":"uint256"}],"stateMutability":"payable"},{"type":"function","name":"swapExactTokensForETH","inputs":[{"name":"tokenAddress","type":"address","internalType":"address"},{"name":"tokenAmount","type":"uint256","internalType":"uint256"},{"name":"dstEid","type":"uint32","internalType":"uint32"}],"outputs":[{"name":"","type":"uint256","internalType":"uint256"}],"stateMutability":"nonpayable"},{"type":"function","name":"swapRouter02","inputs":[],"outputs":[{"name":"","type":"address","internalType":"contract ISwapRouter02"}],"stateMutability":"view"},{"type":"function","name":"tokenInfo","inputs":[{"name":"","type":"address","internalType":"address"}],"outputs":[{"name":"creator","type":"address","internalType":"address"},{"name":"initialLiquidityAdded","type":"bool","internalType":"bool"},{"name":"positionId","type":"uint256","internalType":"uint256"},{"name":"lockedLiquidityPercentage","type":"uint256","internalType":"uint256"},{"name":"withdrawableLiquidity","type":"uint256","internalType":"uint256"},{"name":"creationTime","type":"uint256","internalType":"uint256"},{"name":"pool","type":"address","internalType":"address"},{"name":"liquidity","type":"uint128","internalType":"uint128"}],"stateMutability":"view"},{"type":"function","name":"transferOwnership","inputs":[{"name":"newOwner","type":"address","internalType":"address"}],"outputs":[],"stateMutability":"nonpayable"},{"type":"function","name":"withdrawLiquidity","inputs":[{"name":"tokenAddress","type":"address","internalType":"address"},{"name":"amount","type":"uint256","internalType":"uint256"}],"outputs":[],"stateMutability":"nonpayable"},{"type":"event","name":"AdditionalTokenData","inputs":[{"name":"tokenAddress","type":"address","indexed":true,"internalType":"address"},{"name":"name","type":"string","indexed":false,"internalType":"string"},{"name":"symbol","type":"string","indexed":false,"internalType":"string"},{"name":"description","type":"string","indexed":false,"internalType":"string"},{"name":"imageUrl","type":"string","indexed":false,"internalType":"string"},{"name":"twitter","type":"string","indexed":false,"internalType":"string"},{"name":"telegram","type":"string","indexed":false,"internalType":"string"},{"name":"website","type":"string","indexed":false,"internalType":"string"},{"name":"timestamp","type":"uint256","indexed":false,"internalType":"uint256"}],"anonymous":false},{"type":"event","name":"OwnershipTransferred","inputs":[{"name":"previousOwner","type":"address","indexed":true,"internalType":"address"},{"name":"newOwner","type":"address","indexed":true,"internalType":"address"}],"anonymous":false},{"type":"event","name":"TokenTrade","inputs":[{"name":"tokenAddress","type":"address","indexed":true,"internalType":"address"},{"name":"trader","type":"address","indexed":true,"internalType":"address"},{"name":"tradeType","type":"uint8","indexed":false,"internalType":"enum MainEngine.TradeType"},{"name":"inputAmount","type":"uint256","indexed":false,"internalType":"uint256"},{"name":"outputAmount","type":"uint256","indexed":false,"internalType":"uint256"},{"name":"eid","type":"uint32","indexed":false,"internalType":"uint32"},{"name":"timestamp","type":"uint256","indexed":false,"internalType":"uint256"}],"anonymous":false},{"type":"event","name":"TokenUpdate","inputs":[{"name":"tokenAddress","type":"address","indexed":true,"internalType":"address"},{"name":"creator","type":"address","indexed":true,"internalType":"address"},{"name":"sqrtPriceX96","type":"uint160","indexed":false,"internalType":"uint160"},{"name":"tokenPrice","type":"uint256","indexed":false,"internalType":"uint256"},{"name":"liquidity","type":"uint128","indexed":false,"internalType":"uint128"},{"name":"ethReserve","type":"uint256","indexed":false,"internalType":"uint256"},{"name":"tokenReserve","type":"uint256","indexed":false,"internalType":"uint256"},{"name":"totalSupply","type":"uint256","indexed":false,"internalType":"uint256"},{"name":"lockedLiquidityPercentage","type":"uint256","indexed":false,"internalType":"uint256"},{"name":"withdrawableLiquidity","type":"uint256","indexed":false,"internalType":"uint256"},{"name":"liquidatedLiquidity","type":"uint256","indexed":false,"internalType":"uint256"},{"name":"timestamp","type":"uint256","indexed":false,"internalType":"uint256"}],"anonymous":false},{"type":"error","name":"Create2EmptyBytecode","inputs":[]},{"type":"error","name":"Create2FailedDeployment","inputs":[]},{"type":"error","name":"Create2InsufficientBalance","inputs":[{"name":"balance","type":"uint256","internalType":"uint256"},{"name":"needed","type":"uint256","internalType":"uint256"}]},{"type":"error","name":"InitialLiquidityAlreadyAdded","inputs":[]},{"type":"error","name":"InsufficientETHProvided","inputs":[]},{"type":"error","name":"InsufficientETHSent","inputs":[]},{"type":"error","name":"InsufficientEthOrAmountToLowFromSwap","inputs":[]},{"type":"error","name":"InsufficientWithdrawableLiquidity","inputs":[]},{"type":"error","name":"InvalidDestinationChain","inputs":[]},{"type":"error","name":"InvalidInitialSupply","inputs":[]},{"type":"error","name":"InvalidLockedLiquidityPercentage","inputs":[]},{"type":"error","name":"InvalidOptionType","inputs":[{"name":"optionType","type":"uint16","internalType":"uint16"}]},{"type":"error","name":"InvalidToken","inputs":[]},{"type":"error","name":"InvalidTokenOrder","inputs":[]},{"type":"error","name":"InvalidTransactionType","inputs":[]},{"type":"error","name":"MustProvideBothAmounts","inputs":[]},{"type":"error","name":"MustSendETH","inputs":[]},{"type":"error","name":"NoLiquidityMinted","inputs":[]},{"type":"error","name":"NotAuthorized","inputs":[]},{"type":"error","name":"OwnableInvalidOwner","inputs":[{"name":"owner","type":"address","internalType":"address"}]},{"type":"error","name":"OwnableUnauthorizedAccount","inputs":[{"name":"account","type":"address","internalType":"address"}]},{"type":"error","name":"PoolAlreadyExists","inputs":[]},{"type":"error","name":"PoolDoesNotExist","inputs":[]},{"type":"error","name":"SafeCastOverflowedUintDowncast","inputs":[{"name":"bits","type":"uint8","internalType":"uint8"},{"name":"value","type":"uint256","internalType":"uint256"}]},{"type":"error","name":"SqrtPriceOutOfBounds","inputs":[]},{"type":"error","name":"TokenNotCreated","inputs":[]},{"type":"error","name":"TransferEthFailed","inputs":[]},{"type":"error","name":"WithdrawalTooEarly","inputs":[]},{"type":"error","name":"ZeroAmount","inputs":[]}],"bytecode":{"object":"0x61016034620001f257601f6200471f38819003918201601f19168301916001600160401b03831184841017620001f75780849260c094604052833981010312620001f25780516001600160a01b03908181168103620001f2576020830151928284168403620001f25760408101518381168103620001f25762000085606083016200020d565b94620000a260a06200009a608086016200020d565b94016200020d565b933315620001d9576000543360018060a01b0319821617600055604051963391167f8be0079c531659141344cd1fd0a4f28419497f9722a3daafe3b4186f6b6457e0600080a366038d7ea4c6800060805260a05260c05260e0526101009384526101209081526101409182526144fc93846200022385396080518481816114520152818161172e0152612fcd015260a0518481816111bc015261265f015260c05184818161035a01528181610f1701526129fe015260e0518481816105a701528181610a9601528181610f960152611d900152518381816105ca015281816108b801528181610fc801528181611db30152818161250a0152818161256e015281816135b101526138cd0152518281816109a60152818161130501528181611ec80152612f66015251818181610a4f015261140f0152f35b604051631e4fbdf760e01b815260006004820152602490fd5b600080fd5b634e487b7160e01b600052604160045260246000fd5b51906001600160a01b0382168203620001f25756fe608060405260043610156200001d575b36156200001b57600080fd5b005b60003560e01c806306d47de9146200024a578063089fe6aa146200024457806311cc4b42146200023e5780631228cbee1462000238578063150b7a0214620002325780632437ee36146200022c5780633eb39a6114620002265780634aa4a4fc14620002205780634bee9395146200021a5780634d5692d71462000214578063677342ce146200020e5780636baf92dc1462000208578063715018a61462000202578063797b7f6b14620001fc5780637eaf111614620001f657806384cc315b14620001f0578063858c3e3f14620001ea5780638a88c67014620001e45780638da5cb5b14620001de578063b02c43d014620001d8578063b1edb18314620001d2578063b25a5bb414620001cc578063b44a272214620001c6578063bea9463014620001c0578063c45a015514620001ba578063c489744b14620001b4578063d0a1026014620001ae578063ddbcb5fa14620001a8578063de8f319b14620001a2578063f2fde38b146200019c5763f5dab711036200000f5762001568565b620014bb565b62001475565b62001438565b6200128e565b620011eb565b620011a4565b62000f46565b62000eff565b62000eba565b62000daa565b62000b98565b62000b6d565b62000b4d565b62000b0a565b62000ac5565b62000a7e565b62000a37565b620009d5565b6200098e565b6200096c565b62000920565b620008e7565b620008a0565b6200085c565b62000806565b620007a3565b6200072d565b62000566565b62000547565b62000278565b6001600160a01b038116036200026257565b600080fd5b60043590620002768262000250565b565b346200026257604080600319360112620002625760049081356200029c8162000250565b6024359060018060a01b036000948183168652600160205281858720541633036200052d57620002d981620002d1856200154e565b015462002d62565b42106200051f576003620002ed846200154e565b01548411620005115790620003c991600362000309856200154e565b016200031786825462001c2f565b905585600162000327866200154e565b0154926200033462000ca1565b9384526001600160801b03968716602085015288828501528860608501524260808501527f00000000000000000000000000000000000000000000000000000000000000001692815180958192630624e65f60e11b835285830191909160808060a083019480518452600180831b03602082015116602085015260408101516040850152606081015160608501520151910152565b03818a865af1948515620004ce576200048a95879589958a92620004d4575b509062000427836001620004016200043896956200154e565b0154976200040e62000cb0565b9889523360208a0152166001600160801b031688880152565b166001600160801b03166060850152565b86845180968195829463fc6f786560e01b84528301919091606060808201938051835260018060a01b0360208201511660208401528160018060801b0391826040820151166040860152015116910152565b03925af18015620004ce576200049e578280f35b81620004c292903d10620004c6575b620004b9818362000c7f565b81019062002d73565b8280f35b503d620004ad565b62001ad0565b620004019650836200043894935060016200050262000427938b3d8d11620004c657620004b9818362000c7f565b999099955050509350620003e8565b845163ac2b83fb60e01b8152fd5b8451633d19c58560e21b8152fd5b845163ea8e4eb560e01b8152fd5b60009103126200026257565b346200026257600036600319011262000262576020604051610bb88152f35b60203660031901126200026257600435620005818162000250565b34156200071b57600090620005963462002508565b6001600160a01b039060206200065e7f000000000000000000000000000000000000000000000000000000000000000084167f0000000000000000000000000000000000000000000000000000000000000000620005f634838362002153565b620006136200060462000cbf565b6001600160a01b039092168252565b6001600160a01b03851681850152610bb860408201523360608201523460808201528660a08201528660c08201526040519687809481936304e45aaf60e01b83526004830162001a74565b03925af1908115620004ce57620006dd93600092620006e1575b50620006cd9192604051600080516020620044a7833981519152339284169180620006c44289348460809194939260a08201956000835260208301526040820152600060608201520152565b0390a362003352565b6040519081529081906020820190565b0390f35b620006cd92506200070c9060203d811162000713575b62000703818362000c7f565b81019062001a64565b9162000678565b503d620006f7565b60405163d73ab2e160e01b8152600490fd5b346200026257602036600319011262000262576020600435620007508162000250565b60018060a01b038091166000526001825260056040600020015416604051908152f35b9181601f8401121562000262578235916001600160401b0383116200026257602083818601950101116200026257565b34620002625760803660031901126200026257620007c360043562000250565b620007d060243562000250565b6064356001600160401b0381116200026257620007f290369060040162000773565b5050604051630a85bd0160e11b8152602090f35b3462000262576080366003190112620002625760206200084a6004356200082d8162000250565b602435906200083c8262000250565b606435916044359162002875565b6040516001600160a01b039091168152f35b34620002625760403660031901126200026257602062000898600435620008838162000250565b60243590620008928262000250565b620038c2565b604051908152f35b346200026257600036600319011262000262576040517f00000000000000000000000000000000000000000000000000000000000000006001600160a01b03168152602090f35b346200026257602036600319011262000262576040620009146004356200090e8162000250565b6200366c565b82519182526020820152f35b34620002625760203660031901126200026257600435620009418162000250565b60018060a01b03166000526001602052602060018060801b0360066040600020015416604051908152f35b3462000262576020366003190112620002625760206200089860043562003627565b346200026257600036600319011262000262576040517f00000000000000000000000000000000000000000000000000000000000000006001600160a01b03168152602090f35b34620002625760008060031936011262000a3457620009f362001614565b80546001600160a01b03198116825581906001600160a01b03167f8be0079c531659141344cd1fd0a4f28419497f9722a3daafe3b4186f6b6457e08280a380f35b80fd5b346200026257600036600319011262000262576040517f00000000000000000000000000000000000000000000000000000000000000006001600160a01b03168152602090f35b346200026257600036600319011262000262576040517f00000000000000000000000000000000000000000000000000000000000000006001600160a01b03168152602090f35b3462000262576020366003190112620002625760206200089860043562000aec8162000250565b62000af7816200376a565b50620038c2565b8060020b036200026257565b34620002625760403660031901126200026257604062000b3b60043562000b318162000afe565b602435906200382b565b82519160020b825260020b6020820152f35b3462000262576000366003190112620002625760206040516203f4808152f35b346200026257600036600319011262000262576000546040516001600160a01b039091168152602090f35b3462000262576020366003190112620002625760043560005260026020526080604060002060018060a01b038082541691600180851b03600182015416916003816002840154169201541691604051938452602084015260408301526060820152f35b634e487b7160e01b600052604160045260246000fd5b6001600160401b03811162000c2557604052565b62000bfb565b604081019081106001600160401b0382111762000c2557604052565b60a081019081106001600160401b0382111762000c2557604052565b608081019081106001600160401b0382111762000c2557604052565b90601f801991011681019081106001600160401b0382111762000c2557604052565b60405190620002768262000c47565b60405190620002768262000c63565b6040519060e082018281106001600160401b0382111762000c2557604052565b6040519061010082018281106001600160401b0382111762000c2557604052565b6040519061016082018281106001600160401b0382111762000c2557604052565b9062000276604051928362000c7f565b6001600160401b03811162000c2557601f01601f191660200190565b92919262000d5b8262000d31565b9162000d6b604051938462000c7f565b82948184528183011162000262578281602093846000960137010152565b9080601f83011215620002625781602062000da79335910162000d4d565b90565b610140366003190112620002625762000dc262000267565b506001600160401b03602435818111620002625762000de76004913690830162000d89565b604435838111620002625762000e01903690840162000d89565b606435848111620002625762000e1b903690850162000d89565b91608435858111620002625762000e36903690860162000d89565b60a435868111620002625762000e50903690870162000d89565b60c435878111620002625762000e6a903690880162000d89565b9060e435978811620002625762000e8d62000ea097620006dd9936910162000d89565b9234966101243596610104359662001724565b6040516001600160a01b0390911681529081906020820190565b34620002625760203660031901126200026257604062000ee760043562000ee18162000250565b620035af565b82516001600160a01b03928316815291166020820152f35b346200026257600036600319011262000262576040517f00000000000000000000000000000000000000000000000000000000000000006001600160a01b03168152602090f35b3462000262576060366003190112620002625760043562000f678162000250565b6024356044359063ffffffff821692838303620002625762000f8c8230338462002d8a565b6001600160a01b037f00000000000000000000000000000000000000000000000000000000000000008116939062000fc684868562002153565b7f00000000000000000000000000000000000000000000000000000000000000009562000ff262000cbf565b6001600160a01b0385168152906001600160a01b03881660208301526040976200101f898401610bb89052565b30606084015286608084015260206200105e600099858b60a0819801528660c08201528c519b8c809481936304e45aaf60e01b83526004830162001a74565b03925af1978815620004ce5783986200117d575b508316803b1562001179578851632e1a7d4d60e01b8152600481018990529083908290602490829084905af18015620004ce576200115b575b5015620010d757505091620010c991620006dd959385339162002e6a565b519081529081906020820190565b808080939596945087335af1620010ed62001bcf565b50156200114a579162001144918593600080516020620044a7833981519152620006dd975180620006c433958716948a42918460809194939260a08201956001835260208301526040820152600060608201520152565b620010c9565b8451636200562d60e01b8152600490fd5b806200116b620011729262000c11565b806200053b565b38620010ab565b8280fd5b849198506200119c9060203d8111620007135762000703818362000c7f565b979062001072565b346200026257600036600319011262000262576040517f00000000000000000000000000000000000000000000000000000000000000006001600160a01b03168152602090f35b346200026257604036600319011262000262576004356200120c8162000250565b6020602435916200121d8362000250565b6040516370a0823160e01b81526001600160a01b0393841660048201529283916024918391165afa8015620004ce57620006dd916000916200126b575b506040519081529081906020820190565b62001287915060203d8111620007135762000703818362000c7f565b386200125a565b60a03660031901126200026257600435620012a98162000250565b6001600160401b03906044358281116200026257620012cd90369060040162000773565b9092620012dc60643562000250565b6084359081116200026257620012f790369060040162000773565b506001600160a01b039283167f0000000000000000000000000000000000000000000000000000000000000000841614801591506200140b575b620013f95780620013476200135b928562001a35565b5062001354818562001a22565b9362001a45565b9162001372602093848082518301019101620018b3565b92906001600160f81b03191680620013b15750505080826200001b936200139f935183010191016200192d565b97985095949094939193349862001724565b91929091600160f81b03620013e757620013d981856200001b96859451830101910162001903565b919091169134911662001d5e565b604051637513b90360e01b8152600490fd5b60405163ea8e4eb560e01b8152600490fd5b50817f00000000000000000000000000000000000000000000000000000000000000001633141562001331565b3462000262576000366003190112620002625760206040517f00000000000000000000000000000000000000000000000000000000000000008152f35b346200026257602036600319011262000262576040620014a26004356200149c8162000250565b6200376a565b82516001600160a01b03909216825260020b6020820152f35b34620002625760203660031901126200026257600435620014dc8162000250565b620014e662001614565b6001600160a01b0390811680156200153557600080546001600160a01b03198116831782559092167f8be0079c531659141344cd1fd0a4f28419497f9722a3daafe3b4186f6b6457e08380a380f35b604051631e4fbdf760e01b815260006004820152602490fd5b6001600160a01b0316600090815260016020526040902090565b34620002625760203660031901126200026257600435620015898162000250565b6001600160a01b0390811660009081526001602081815260409283902080549281015460028201546003830154600484015460058501546006909501548851888b16815260ff60a0998a1c16151597810197909752978601939093526060850191909152608084015292820192909252921660c08301526001600160801b031660e082015261010090f35b6000546001600160a01b031633036200162957565b60405163118cdaa760e01b8152336004820152602490fd5b60005b838110620016555750506000910152565b818101518382015260200162001644565b90602091620016818151809281855285808601910162001641565b601f01601f1916010190565b9897969394620016f26200171f96620016e38c6200171097620016d460e09c98620016c5620017019961010080875286019062001666565b90848203602086015262001666565b91604081840391015262001666565b8c810360608e01529062001666565b908a820360808c015262001666565b9088820360a08a015262001666565b9086820360c088015262001666565b930152565b92959194909798937f0000000000000000000000000000000000000000000000000000000000000000851062001857576200175f8562002508565b8715620018455760648a1162001833576200180c8589620017dd6200182598620017b57fd22b36da0862537631990ca696b1d46227d687e9fdd110a9158c18ee80bd8d269d8f898f8f908b918f948f95620023a1565b9e8f906002620017c5836200154e565b0155426004620017d5836200154e565b0155620025e6565b808d836200180382620017fc620017f4826200376a565b9290620038c2565b906200382b565b939092620029a6565b60405196879660018060a01b038c169a4296896200168d565b0390a262000da78162003352565b6040516333ea689560e11b8152600490fd5b60405163c2c5358f60e01b8152600490fd5b60405163311c9fd160e01b8152600490fd5b81601f8201121562000262578051620018828162000d31565b9262001892604051948562000c7f565b81845260208284010111620002625762000da7916020808501910162001641565b919091604081840312620002625780516001600160f81b03198116810362000262579260208201516001600160401b038111620002625762000da7920162001869565b5190620002768262000250565b91908260409103126200026257602082516200191f8162000250565b92015162000da78162000250565b906101408282031262000262576200194582620018f6565b926020830151926001600160401b03938481116200026257836200196b91830162001869565b9360408201518181116200026257846200198791840162001869565b936060830151828111620002625781620019a391850162001869565b936080840151838111620002625782620019bf91860162001869565b9360a0810151848111620002625783620019db91830162001869565b9360c0820151818111620002625784620019f791840162001869565b9360e0830151918211620002625762001a1291830162001869565b9161012061010083015192015190565b90600c1162000262576008013560e01c90565b90602c116200026257600c013590565b9080604c11620002625762000da7913691604b190190604c0162000d4d565b9081602091031262000262575190565b91909160c060e08201938160018060a01b039182815116855282602082015116602086015262ffffff60408201511660408601528260608201511660608601526080810151608086015260a081015160a0860152015116910152565b6040513d6000823e3d90fd5b60405190602082018281106001600160401b0382111762000c255760405260008252565b9190826040910312620002625760405162001b1b8162000c2b565b6020808294805184520151910152565b90604082820312620002625762000da79162001b00565b62000da79163ffffffff825116815260208201516020820152604082015160408201526060820151606082015260c062001ba362001b90608085015160e0608086015260e085019062001666565b60a085015184820360a086015262001666565b9201519060c081840391015262001666565b919060206200171f60009260408652604086019062001b42565b3d1562001bff573d9062001be38262000d31565b9162001bf3604051938462000c7f565b82523d6000602084013e565b606090565b634e487b7160e01b600052601160045260246000fd5b606403906064821162001c2957565b62001c04565b9190820391821162001c2957565b919060408382031262000262576040519062001c598262000c2b565b8193805168ffffffffffffffffff81168103620002625783526020810151916001600160401b038311620002625760209262001c96920162001869565b910152565b909181830360e08112620002625760801362000262576040516001600160401b039290606081018481118282101762000c255760405281518152602082015184811681036200026257602082015262001cf8856040840162001b00565b60408201529362001d0d816080840162001b00565b9360c0830151908111620002625762000da7920162001c3d565b919392602062001d4260609360808652608086019062001b42565b86518583015295015160408401526001600160a01b0316910152565b60009493859392909181156200071b5762001e089662001d7e8362002508565b6001600160a01b039281602062001e457f000000000000000000000000000000000000000000000000000000000000000087167f000000000000000000000000000000000000000000000000000000000000000062001ddf86838362002153565b62001ded6200060462000cbf565b6001600160a01b0388168185015260409d8e8201610bb89052565b6001600160a01b038b1660608201528560808201528460a08201528460c08201528d519485809481936304e45aaf60e01b83526004830162001a74565b03925af183918162002109575b50620020b3575062001e64816200256c565b8386169562001e7262000cbf565b63ffffffff871681528760208201528a810183815284606083015262001e9762001adc565b608083015262001ea662001adc565b60a083015262001eb562001adc565b60c08301528b51633b6f743b60e01b81527f000000000000000000000000000000000000000000000000000000000000000088169290918d838062001efe856004830162001bb5565b0381875afa928315620004ce578e88946200207d575b5050825186111562001fe6575b918587949262001f5d9b9c9d9e9f969462001f3e84518462001c2f565b9052865163cbef2aa960e01b81529b8c95869485936004850162001d27565b03925af1928315620004ce57600080516020620044a78339815191529662001fba9462001fc0575b505051938493169542918463ffffffff60809295949360a0830196600284526020840152600060408401521660608201520152565b0390a390565b62001fdf913d8091833e62001fd6818362000c7f565b81019062001c9b565b5062001f85565b8680808089895af162001ff862001bcf565b50156200206c5791858794928c9d9e9f969462001f5d9c9d8b600080516020620044a78339815191528e8b5192169180620020564289836080909392919360a081019460028252602082015260006040820152600060608201520152565b0390a39294969f9e9d9c9b509294505062001f21565b8d51636200562d60e01b8152600490fd5b620020a2929450803d10620020ab575b62002099818362000c7f565b81019062001b2b565b91388e62001f14565b503d6200208d565b98516000815260208101919091526040810189905263ffffffff90941660608501525042608084015294959462000da794509281169190831690600080516020620044a7833981519152908060a08101620006c4565b6200212691925060203d8111620007135762000703818362000c7f565b903862001e52565b519081151582036200026257565b90816020910312620002625762000da7906200212e565b6000929183809360405190602082019363095ea7b360e01b855260018060a01b031660248301526044820152604481526200218e8162000c63565b51925af16200219c62001bcf565b81620021d6575b5015620021ac57565b60405162461bcd60e51b8152602060048201526002602482015261534160f01b6044820152606490fd5b8051801592508215620021ed575b505038620021a3565b6200220292506020809183010191016200213c565b3880620021e4565b959194620022726101009895620022636200229096620022549c9e9d9c6200229f9a6200224562002281988e61012090818152019062001666565b8d810360208f01529062001666565b908b820360408d015262001666565b9089820360608b015262001666565b90878203608089015262001666565b9085820360a087015262001666565b9083820360c085015262001666565b6001600160a01b0390951660e08201520152565b90620022c86020928281519485920162001641565b0190565b815181546001600160a01b0319166001600160a01b039091161781556200027691600690620023809060e090620023246200230a6020830151151590565b865460ff60a01b191690151560a01b60ff60a01b16178655565b60408101516001860155606081015160028601556080810151600386015560a0810151600486015560c08101516005860180546001600160a01b0319166001600160a01b0390921691909117905501516001600160801b031690565b910180546001600160801b0319166001600160801b03909216919091179055565b6040516bffffffffffffffffffffffff193360601b1660208083019182524260348085019190915283529996989497601f199794959394938b93909290620023eb60548262000c7f565b51902099610b489762002400858a0162000d21565b98808a526200395f868b01396040519a8b98620024219830978b016200220a565b03828101845262002433908462000c7f565b6040519283918683016200244791620022b3565b6200245291620022b3565b03908101825262002464908262000c7f565b6200246f91620024bf565b906200247a62000cdf565b33815290600080918301528060408301528060608301528060808301524260a08301528060c083015260e0820152620024b3826200154e565b9062000da791620022cc565b90805115620024f6576020815191016000f5906001600160a01b03821615620024e457565b604051633a0ba96160e11b8152600490fd5b604051631328927760e21b8152600490fd5b7f00000000000000000000000000000000000000000000000000000000000000006001600160a01b0316803b156200026257600090600460405180948193630d0e30db60e41b83525af18015620004ce57620025615750565b620002769062000c11565b7f00000000000000000000000000000000000000000000000000000000000000006001600160a01b031690813b156200026257600091602483926040519485938492632e1a7d4d60e01b845260048401525af18015620004ce57620025615750565b9081602091031262000262575162000da78162000250565b906001600160a01b03806200260f600562002601866200154e565b01546001600160a01b031690565b16620027dc576200262083620035af565b60405163a167129560e01b81526001600160a01b03838116600483015282166024820152610bb86044820152600095909460209392909184876064818b7f00000000000000000000000000000000000000000000000000000000000000008b165af1968715620004ce578897620027a4575b5080620026c7886005620026a78a956200154e565b0180546001600160a01b0319166001600160a01b03909216919091179055565b6040516370a0823160e01b81523060048201529116928582602481875afa918215620004ce576200271a968a9362002780575b50508487168403620027785781935b838816036200276f57509262002875565b911690813b15620011795760405163f637731d60e01b81526001600160a01b0391909116600482015291908290602490829084905af18015620004ce576200275f5750565b806200116b620002769262000c11565b90509262002875565b809362002709565b6200279b929350803d10620007135762000703818362000c7f565b903880620026fa565b86919750620027cc90863d8811620027d4575b620027c3818362000c7f565b810190620025ce565b969062002692565b503d620027b7565b604051630188c99160e11b8152600490fd5b906305f5e1009182810292818404149015171562001c2957565b908160601b91808304600160601b149015171562001c2957565b906103209182810292818404149015171562001c2957565b8181029291811591840414171562001c2957565b634e487b7160e01b600052601260045260246000fd5b81156200286f570490565b6200284e565b6001600160a01b03939291841690841610156200295357801580156200294a575b6200293857620028cd620028c7620028c1620028de93620028bb620028ea96620027ee565b62002864565b62003627565b62002808565b620028d7620035eb565b9062002864565b6001600160a01b031690565b9081166401000276a3811090811562002919575b50620029075790565b60405163582157bb60e01b8152600490fd5b73fffd8963efd1fc6a506488495d951d5263988d2691501138620028fe565b604051631f2a200560e01b8152600490fd5b50811562002896565b604051633f06bf8160e01b8152600490fd5b51906001600160801b03821682036200026257565b91908260809103126200026257815191620029986020820162002965565b916060604083015192015190565b94929190959395620029c6620029bc876200154e565b5460a01c60ff1690565b62002d50571590811562002d46575b50620029385762002b5562002a9460809262002a8b95600095620029f989620035af565b9a90987f00000000000000000000000000000000000000000000000000000000000000006001600160a01b0316958a959092919062002a798e62002a3f878b8b62002153565b62002a4c888b8362002153565b62002a6962002a5a62000d00565b6001600160a01b03909a168a52565b6001600160a01b03166020890152565b610bb8604088015260020b6060870152565b60020b84880152565b60a0830190815260c0830191825260e08301878152610100840188815230610120860190815242610140870190815260408051634418b22b60e11b815288516001600160a01b03908116600483015260208a0151811660248301529189015162ffffff1660448201526060890151600290810b606483015260809099015190980b6084890152945160a4880152945160c4870152915160e4860152516101048501525116610124830152516101448201529384928391908290610164820190565b03925af1928315620004ce57600091829462002d0b575b506001600160801b03841694851562002cf95762002c6662002c869483600362002c3262002c2b62002c24620002769c8a600162002bae62002c769c6200154e565b015562002be28d600662002bc2896200154e565b0180546001600160801b0319166001600160801b03909216919091179055565b62002c0462002bf1876200154e565b805460ff60a01b1916600160a01b179055565b62002c1d600262002c15886200154e565b015462001c1a565b906200283a565b6064900490565b926200154e565b015562002c5662002c4262000cb0565b338152976001600160801b03166020890152565b6001600160a01b03166040870152565b6001600160a01b03166060850152565b6000526002602052604060002090565b815181546001600160a01b039182166001600160a01b031991821617835560208401516001840180546001600160801b039092166001600160801b031990921691909117905560408401516002840180548316918416919091179055606090930151600390920180549093169116179055565b60405163f564880560e01b8152600490fd5b90935062002d34915060803d811162002d3e575b62002d2b818362000c7f565b8101906200297a565b5050923862002b6c565b503d62002d1f565b90501538620029d5565b60405163b1f3376760e01b8152600490fd5b906203f480820180921162001c2957565b919082604091031262000262576020825192015190565b9091600080949381946040519160208301946323b872dd60e01b865260018060a01b03809216602485015216604483015260648201526064815262002dcf8162000c47565b51925af162002ddd62001bcf565b8162002e18575b501562002ded57565b60405162461bcd60e51b815260206004820152600360248201526229aa2360e91b6044820152606490fd5b805180159250821562002e2f575b50503862002de4565b62002e4492506020809183010191016200213c565b388062002e26565b600160f91b815260406020820181905262000da79291019062001666565b919363ffffffff831615620030f85781156200293857604080516001600160a01b03868116602083015281830184905287166060808301919091528152909562002ed4949162002ee190601f199062002ec560808262000c7f565b89519788916020830162002e4c565b0390810187528662000c7f565b62002ef562002eef6200310a565b62003126565b9362002f0d62002f058262002822565b6103e8900490565b62002f1762000cbf565b63ffffffff851681529160018060a01b039788851660208501528a84019782895260608501938452608085015260a084015262002f5362001adc565b60c08401528951633b6f743b60e01b81527f000000000000000000000000000000000000000000000000000000000000000089169390928b848062002f9c856004830162001bb5565b0381885afa938415620004ce57600094620030d4575b508351831115620030c35762002fca84518462001c2f565b987f00000000000000000000000000000000000000000000000000000000000000008a10620030b2579160009593918a620030329a99989694526200301362002f058c62002822565b90528c5163cbef2aa960e01b8152988995869485936004850162001d27565b03925af18015620004ce576200027697600080516020620044a783398151915294620006c49262003093575b5051600181526020810193909352604083019490945263ffffffff1660608201524260808201523393851692819060a0820190565b620030aa903d806000833e62001fd6818362000c7f565b50506200305e565b8c5163c4ad744160e01b8152600490fd5b8b5163c4ad744160e01b8152600490fd5b620030f09194508c8d3d10620020ab5762002099818362000c7f565b923862002fb2565b60405163b86ac1ef60e01b8152600490fd5b604051600360f01b60208201526002815262000da78162000c2b565b61ffff90600382620031388362003267565b1603620031fb5760405160006020820152610c3560861b60228201526012815290620031648262000c2b565b600383620031728362003267565b1603620031d7578151838111620031b857831660010192831162001c2957620031a962000da7926040519485936020850162003209565b03601f19810183528262000c7f565b604490604051906306dfcc6560e41b8252601060048301526024820152fd5b82620031e560249262003267565b604051633a51740d60e01b815291166004820152fd5b90620031e560249262003267565b6020906200322260049594938281519485920162001641565b600160f81b910190815260f09190911b6001600160f01b0319166001820152600360f81b6003820152815191620032629083908584019060200162001641565b010190565b600281511062003278576002015190565b60405162461bcd60e51b8152602060048201526014602482015273746f55696e7431365f6f75744f66426f756e647360601b6044820152606490fd5b519061ffff821682036200026257565b908160e091031262000262578051620032dd8162000250565b916020820151620032ee8162000afe565b91620032fd60408201620032b4565b916200330c60608301620032b4565b916200331b60808201620032b4565b9160a082015160ff81168103620002625760c062000da79193016200212e565b90816020910312620002625762000da79062002965565b6200336b620028de620028de600562002601856200154e565b604051633850c7bd60e01b8152919060e083600481845afa928315620004ce5760009362003572575b50604051928391630d34328160e11b835282600460209687935afa918215620004ce576000926200353c575b50620033cc836200366c565b9460018060a01b039283861695604051956318160ddd60e01b875283876004818b5afa918215620004ce577ff18e8b53339decc2830fb5f7ff44ac99ef34b33f396fc719d870c87726c32ebc97620035139560009462003518575b50506200346b6200344c60066200343e846200154e565b01546001600160801b031690565b600362003459846200154e565b0154906001600160801b031662001c2f565b92620034886200347b836200154e565b546001600160a01b031690565b96620034958387620038c2565b9b6003620034b26002620034a9876200154e565b0154956200154e565b0154946040519a8b9a169d42988b9693909a9998959261012098959261014089019c60018060a01b03168952602089015260018060801b031660408801526060870152608086015260a085015260c084015260e08301526101008201520152565b0390a3565b62003533929450803d10620007135762000703818362000c7f565b91388062003427565b62003562919250843d86116200356a575b62003559818362000c7f565b8101906200333b565b9038620033c0565b503d6200354d565b6200359991935060e03d8111620035a7575b62003590818362000c7f565b810190620032c4565b505050505050913862003394565b503d62003584565b7f000000000000000000000000000000000000000000000000000000000000000091906001600160a01b03808416908216101562000da7579190565b6305f5e100906302faf0805b828110620036025750565b91508180156200286f57806305f5e1000490810180911162001c295760011c620035f7565b90600180830180841162001c2957811c9083905b8483106200364857505050565b919350908380156200286f5780830490810180911162001c2957811c91906200363b565b906200367e600562002601846200154e565b6200368983620035af565b6040516370a0823160e01b8082526001600160a01b03858116600484015260209791959481169490939192918883602481895afa968715620004ce5789936000986200373b575b506040519081526001600160a01b0390921660048301529091908290818681602481015b0392165afa968715620004ce5760009762003717575b5050160362000da7579190565b62003732929750803d10620007135762000703818362000c7f565b9438806200370a565b8493929198506200375f90620036f4953d8611620007135762000703818362000c7f565b9790919293620036d0565b9060e060049260018060a01b0380911660005260016020526005604060002001541660405193848092633850c7bd851b82525afa918215620004ce576000908193620037b557509190565b9050620037d491925060e03d8111620035a75762003590818362000c7f565b505050505091909190565b6103e89060020b02908160020b91820362001c2957565b603c9060020b02908160020b91820362001c2957565b9060020b9060020b0190627fffff198212627fffff83131762001c2957565b9190600a810290801591818104600a1483171562001c29576064900491603c830292808404603c149015171562001c29576200286f5762003870910460020b620037df565b8060020b8360020b0390627fffff8213627fffff1983121762001c2957620038b2620038bc91620038ab603c62000da79560020b05620037f6565b956200380c565b603c9060020b0590565b620037f6565b906001600160a01b037f000000000000000000000000000000000000000000000000000000000000000081169181811683146200394c5781620039096200391492620035af565b95905016806200283a565b6305f5e1009081810291818304149015171562001c295760c01c921603620039395790565b80156200286f57662386f26fc100000490565b60405163c1ab6dc160e01b8152600490fdfe60406080815234620004455762000b48803803806200001e816200044a565b928339810161012082820312620004455781516001600160401b03908181116200044557826200005091850162000470565b91602092838501518381116200044557826200006e91870162000470565b91868601518481116200044557816200008991880162000470565b506060860151848111620004455781620000a591880162000470565b506080860151848111620004455781620000c191880162000470565b5060a0860151848111620004455781620000dd91880162000470565b5060c0860151908482116200044557620000f991870162000470565b5060e08501516001600160a01b03811695908690036200044557610100015192815181811162000345576003908154906001948583811c931680156200043a575b8984101462000424578190601f93848111620003ce575b50899084831160011462000367576000926200035b575b505060001982851b1c191690851b1782555b8451928311620003455760049485548581811c911680156200033a575b898210146200032557828111620002da575b50879184116001146200026f5793839491849260009562000263575b50501b92600019911b1c19161781555b83156200024c576002549082820180921162000237575060025560008381528083528481208054830190558451918252917fddf252ad1be2c89b69c2b068fc378daa952ba7f163c4a11628f55a4df523b3ef91a3516106659081620004e38239f35b601190634e487b7160e01b6000525260246000fd5b602490600086519163ec442f0560e01b8352820152fd5b015193503880620001c5565b9190601f198416928660005284896000209460005b8b89838310620002c25750505010620002a7575b50505050811b018155620001d5565b01519060f884600019921b161c191690553880808062000298565b86860151895590970196948501948893500162000284565b86600052886000208380870160051c8201928b88106200031b575b0160051c019086905b8281106200030e575050620001a9565b60008155018690620002fe565b92508192620002f5565b602287634e487b7160e01b6000525260246000fd5b90607f169062000197565b634e487b7160e01b600052604160045260246000fd5b01519050388062000168565b90879350601f19831691866000528b6000209260005b8d828210620003b757505084116200039e575b505050811b0182556200017a565b015160001983871b60f8161c1916905538808062000390565b8385015186558b979095019493840193016200037d565b90915084600052896000208480850160051c8201928c86106200041a575b918991869594930160051c01915b8281106200040a57505062000151565b60008155859450899101620003fa565b92508192620003ec565b634e487b7160e01b600052602260045260246000fd5b92607f16926200013a565b600080fd5b6040519190601f01601f191682016001600160401b038111838210176200034557604052565b919080601f84011215620004455782516001600160401b0381116200034557602090620004a6601f8201601f191683016200044a565b92818452828287010111620004455760005b818110620004ce57508260009394955001015290565b8581018301518482018401528201620004b856fe608060408181526004918236101561001657600080fd5b600092833560e01c91826306fdde031461041c57508163095ea7b31461036e57816318160ddd1461034f57816323b872dd14610258578163313ce5671461023c57816370a082311461020557816395d89b411461010357508063a9059cbb146100d35763dd62ed3e1461008857600080fd5b346100cf57806003193601126100cf57806020926100a4610520565b6100ac61053b565b6001600160a01b0391821683526001865283832091168252845220549051908152f35b5080fd5b50346100cf57806003193601126100cf576020906100fc6100f2610520565b6024359033610551565b5160018152f35b8383346100cf57816003193601126100cf57805190828454600181811c908083169283156101fb575b60209384841081146101e8578388529081156101cc5750600114610194575b505050829003601f01601f191682019267ffffffffffffffff841183851017610181575082918261017d9252826104d7565b0390f35b634e487b7160e01b815260418552602490fd5b919250868652828620918387935b8385106101b8575050505083010185808061014b565b8054888601830152930192849082016101a2565b60ff1916878501525050151560051b840101905085808061014b565b634e487b7160e01b895260228a52602489fd5b91607f169161012c565b5050346100cf5760203660031901126100cf5760209181906001600160a01b0361022d610520565b16815280845220549051908152f35b5050346100cf57816003193601126100cf576020905160128152f35b9050823461034c57606036600319011261034c57610274610520565b61027c61053b565b916044359360018060a01b0383168083526001602052868320338452602052868320549160001983036102b8575b6020886100fc898989610551565b8683106103205781156103095733156102f2575082526001602090815286832033845281529186902090859003905582906100fc876102aa565b8751634a1406b160e11b8152908101849052602490fd5b875163e602df0560e01b8152908101849052602490fd5b8751637dc7a0d960e11b8152339181019182526020820193909352604081018790528291506060010390fd5b80fd5b5050346100cf57816003193601126100cf576020906002549051908152f35b905034610418578160031936011261041857610388610520565b602435903315610401576001600160a01b03169182156103ea57508083602095338152600187528181208582528752205582519081527f8c5be1e5ebec7d5bd14f71427d1e84f3dd0314c0f7b2291e5b200ac8c7c3b925843392a35160018152f35b8351634a1406b160e11b8152908101859052602490fd5b835163e602df0560e01b8152808401869052602490fd5b8280fd5b8490843461041857826003193601126104185782600354600181811c908083169283156104cd575b60209384841081146101e8578388529081156101cc575060011461049457505050829003601f01601f191682019267ffffffffffffffff841183851017610181575082918261017d9252826104d7565b91925060038652828620918387935b8385106104b9575050505083010185808061014b565b8054888601830152930192849082016104a3565b91607f1691610444565b6020808252825181830181905290939260005b82811061050c57505060409293506000838284010152601f8019910116010190565b8181018601518482016040015285016104ea565b600435906001600160a01b038216820361053657565b600080fd5b602435906001600160a01b038216820361053657565b916001600160a01b0380841692831561061657169283156105fd57600090838252816020526040822054908382106105cb575091604082827fddf252ad1be2c89b69c2b068fc378daa952ba7f163c4a11628f55a4df523b3ef958760209652828652038282205586815220818154019055604051908152a3565b60405163391434e360e21b81526001600160a01b03919091166004820152602481019190915260448101839052606490fd5b60405163ec442f0560e01b815260006004820152602490fd5b604051634b637e8f60e11b815260006004820152602490fdfea2646970667358221220e3c4882b73ad769ed742887a456ddb453a37bda82d1f1e32a1c7bdc308eed7e664736f6c63430008130033c2c8c3d853b6a3c59312403a77c06fd4d1c5e2aecc097dccfeece8ae3db5a95da26469706673582212208bf6d423208ae43f5c2cba30ef447cf6b797d57791f62c46f3afa2dd59bf606064736f6c63430008130033","linkReferences":{}},"methodIdentifiers":{"LIQUIDITY_LOCK_PERIOD()":"8a88c670","MIN_AMOUNT()":"ddbcb5fa","WETH9()":"4aa4a4fc","calculateInitialSqrtPrice(address,address,uint256,uint256)":"2437ee36","calculatePriceFromSqrtPriceX96(uint160,address)":"3eb39a61","calculateTickRange(int24,uint256)":"858c3e3f","createTokenAndAddLiquidity(address,string,string,string,string,string,string,string,uint256,uint256)":"b1edb183","deposits(uint256)":"b02c43d0","endpointV2()":"797b7f6b","factory()":"c45a0155","getCurrentPrice(address)":"84cc315b","getPoolAddress(address)":"1228cbee","getPoolLiquidity(address)":"4d5692d7","getPoolReserves(address)":"4bee9395","getPoolSlot0(address)":"de8f319b","getTokenBalance(address,address)":"c489744b","lzCompose(address,bytes32,bytes,address,bytes)":"d0a10260","nonfungiblePositionManager()":"b44a2722","onERC721Received(address,address,uint256,bytes)":"150b7a02","orderTokens(address)":"b25a5bb4","owner()":"8da5cb5b","poolFee()":"089fe6aa","renounceOwnership()":"715018a6","sqrt(uint256)":"677342ce","stargatePoolNative()":"6baf92dc","swapExactETHForTokens(address)":"11cc4b42","swapExactTokensForETH(address,uint256,uint32)":"bea94630","swapRouter02()":"7eaf1116","tokenInfo(address)":"f5dab711","transferOwnership(address)":"f2fde38b","withdrawLiquidity(address,uint256)":"06d47de9"},"id":85}