{"abi":[{"type":"constructor","inputs":[{"name":"_factory","type":"address","internalType":"contract IUniswapV3Factory"},{"name":"_nonfungiblePositionManager","type":"address","internalType":"contract INonfungiblePositionManager"},{"name":"_swapRouter02","type":"address","internalType":"contract ISwapRouter02"},{"name":"_WETH9","type":"address","internalType":"address"},{"name":"_stargatePoolNative","type":"address","internalType":"address"},{"name":"_endpointV2","type":"address","internalType":"address"},{"name":"_version","type":"uint64","internalType":"uint64"},{"name":"_phase1Ratio","type":"uint256","internalType":"uint256"},{"name":"_phase2Ratio","type":"uint256","internalType":"uint256"},{"name":"_launchRatio","type":"uint256","internalType":"uint256"}],"stateMutability":"nonpayable"},{"type":"receive","stateMutability":"payable"},{"type":"function","name":"LIQUIDITY_LOCK_PERIOD","inputs":[],"outputs":[{"name":"","type":"uint256","internalType":"uint256"}],"stateMutability":"view"},{"type":"function","name":"MIN_AMOUNT","inputs":[],"outputs":[{"name":"","type":"uint256","internalType":"uint256"}],"stateMutability":"view"},{"type":"function","name":"WETH9","inputs":[],"outputs":[{"name":"","type":"address","internalType":"address"}],"stateMutability":"view"},{"type":"function","name":"allowInitializePath","inputs":[{"name":"origin","type":"tuple","internalType":"struct Origin","components":[{"name":"srcEid","type":"uint32","internalType":"uint32"},{"name":"sender","type":"bytes32","internalType":"bytes32"},{"name":"nonce","type":"uint64","internalType":"uint64"}]}],"outputs":[{"name":"","type":"bool","internalType":"bool"}],"stateMutability":"view"},{"type":"function","name":"claimTokens","inputs":[{"name":"tokenAddress","type":"address","internalType":"address"}],"outputs":[],"stateMutability":"nonpayable"},{"type":"function","name":"composeMsgSender","inputs":[],"outputs":[{"name":"sender","type":"address","internalType":"address"}],"stateMutability":"view"},{"type":"function","name":"createTokenAndAddLiquidity","inputs":[{"name":"params","type":"tuple","internalType":"struct KannonV1.TokenLiquidityParams","components":[{"name":"tokenParams","type":"tuple","internalType":"struct KannonV1.TokenParams","components":[{"name":"userAddress","type":"address","internalType":"address"},{"name":"name","type":"string","internalType":"string"},{"name":"symbol","type":"string","internalType":"string"},{"name":"description","type":"string","internalType":"string"},{"name":"imageUrl","type":"string","internalType":"string"},{"name":"twitter","type":"string","internalType":"string"},{"name":"telegram","type":"string","internalType":"string"},{"name":"website","type":"string","internalType":"string"},{"name":"initialSupply","type":"uint256","internalType":"uint256"}]},{"name":"lockedLiquidityPercentage","type":"uint256","internalType":"uint256"},{"name":"ethAmount","type":"uint256","internalType":"uint256"}]}],"outputs":[{"name":"tokenAddress","type":"address","internalType":"address"}],"stateMutability":"payable"},{"type":"function","name":"createTokenAndStartPresale","inputs":[{"name":"params","type":"tuple","internalType":"struct KannonV1.TokenPresaleParams","components":[{"name":"tokenParams","type":"tuple","internalType":"struct KannonV1.TokenParams","components":[{"name":"userAddress","type":"address","internalType":"address"},{"name":"name","type":"string","internalType":"string"},{"name":"symbol","type":"string","internalType":"string"},{"name":"description","type":"string","internalType":"string"},{"name":"imageUrl","type":"string","internalType":"string"},{"name":"twitter","type":"string","internalType":"string"},{"name":"telegram","type":"string","internalType":"string"},{"name":"website","type":"string","internalType":"string"},{"name":"initialSupply","type":"uint256","internalType":"uint256"}]},{"name":"ethTarget","type":"uint256","internalType":"uint256"},{"name":"presaleDuration","type":"uint256","internalType":"uint256"}]}],"outputs":[{"name":"tokenAddress","type":"address","internalType":"address"}],"stateMutability":"nonpayable"},{"type":"function","name":"deposits","inputs":[{"name":"","type":"uint256","internalType":"uint256"}],"outputs":[{"name":"owner","type":"address","internalType":"address"},{"name":"liquidity","type":"uint128","internalType":"uint128"},{"name":"token0","type":"address","internalType":"address"},{"name":"token1","type":"address","internalType":"address"}],"stateMutability":"view"},{"type":"function","name":"endpoint","inputs":[],"outputs":[{"name":"","type":"address","internalType":"contract ILayerZeroEndpointV2"}],"stateMutability":"view"},{"type":"function","name":"endpointV2","inputs":[],"outputs":[{"name":"","type":"address","internalType":"address"}],"stateMutability":"view"},{"type":"function","name":"factory","inputs":[],"outputs":[{"name":"","type":"address","internalType":"contract IUniswapV3Factory"}],"stateMutability":"view"},{"type":"function","name":"getLastCreatedToken","inputs":[],"outputs":[{"name":"","type":"address","internalType":"address"}],"stateMutability":"view"},{"type":"function","name":"getLaunchInfo","inputs":[{"name":"tokenAddress","type":"address","internalType":"address"}],"outputs":[{"name":"","type":"tuple","internalType":"struct KannonV1.LaunchInfo","components":[{"name":"creator","type":"address","internalType":"address"},{"name":"currentPhase","type":"uint8","internalType":"enum KannonV1Library.LaunchPhase"},{"name":"launchDeadline","type":"uint256","internalType":"uint256"},{"name":"distributableSupply","type":"uint256","internalType":"uint256"},{"name":"ethTarget","type":"uint256","internalType":"uint256"},{"name":"ethCollected","type":"uint256","internalType":"uint256"},{"name":"totalPresoldTokens","type":"uint256","internalType":"uint256"},{"name":"k","type":"uint256","internalType":"uint256"}]}],"stateMutability":"view"},{"type":"function","name":"getTokenInfo","inputs":[{"name":"tokenAddress","type":"address","internalType":"address"}],"outputs":[{"name":"","type":"tuple","internalType":"struct KannonV1.TokenInfo","components":[{"name":"creator","type":"address","internalType":"address"},{"name":"initialLiquidityAdded","type":"bool","internalType":"bool"},{"name":"positionId","type":"uint256","internalType":"uint256"},{"name":"lockedLiquidityPercentage","type":"uint256","internalType":"uint256"},{"name":"withdrawableLiquidity","type":"uint256","internalType":"uint256"},{"name":"creationTime","type":"uint256","internalType":"uint256"},{"name":"pool","type":"address","internalType":"address"},{"name":"liquidity","type":"uint128","internalType":"uint128"}]}],"stateMutability":"view"},{"type":"function","name":"lzCompose","inputs":[{"name":"_from","type":"address","internalType":"address"},{"name":"","type":"bytes32","internalType":"bytes32"},{"name":"_message","type":"bytes","internalType":"bytes"},{"name":"","type":"address","internalType":"address"},{"name":"","type":"bytes","internalType":"bytes"}],"outputs":[],"stateMutability":"payable"},{"type":"function","name":"lzReceive","inputs":[{"name":"_origin","type":"tuple","internalType":"struct KannonV1.Origin","components":[{"name":"srcEid","type":"uint32","internalType":"uint32"},{"name":"sender","type":"bytes32","internalType":"bytes32"},{"name":"nonce","type":"uint64","internalType":"uint64"}]},{"name":"_guid","type":"bytes32","internalType":"bytes32"},{"name":"_message","type":"bytes","internalType":"bytes"},{"name":"_executor","type":"address","internalType":"address"},{"name":"_extraData","type":"bytes","internalType":"bytes"}],"outputs":[],"stateMutability":"payable"},{"type":"function","name":"nextNonce","inputs":[{"name":"","type":"uint32","internalType":"uint32"},{"name":"","type":"bytes32","internalType":"bytes32"}],"outputs":[{"name":"nonce","type":"uint64","internalType":"uint64"}],"stateMutability":"view"},{"type":"function","name":"nonfungiblePositionManager","inputs":[],"outputs":[{"name":"","type":"address","internalType":"contract INonfungiblePositionManager"}],"stateMutability":"view"},{"type":"function","name":"oAppVersion","inputs":[],"outputs":[{"name":"senderVersion","type":"uint64","internalType":"uint64"},{"name":"receiverVersion","type":"uint64","internalType":"uint64"}],"stateMutability":"pure"},{"type":"function","name":"onERC721Received","inputs":[{"name":"","type":"address","internalType":"address"},{"name":"","type":"address","internalType":"address"},{"name":"","type":"uint256","internalType":"uint256"},{"name":"","type":"bytes","internalType":"bytes"}],"outputs":[{"name":"","type":"bytes4","internalType":"bytes4"}],"stateMutability":"view"},{"type":"function","name":"owner","inputs":[],"outputs":[{"name":"","type":"address","internalType":"address"}],"stateMutability":"view"},{"type":"function","name":"participateInPresale","inputs":[{"name":"tokenAddress","type":"address","internalType":"address"}],"outputs":[],"stateMutability":"payable"},{"type":"function","name":"peers","inputs":[{"name":"eid","type":"uint32","internalType":"uint32"}],"outputs":[{"name":"peer","type":"bytes32","internalType":"bytes32"}],"stateMutability":"view"},{"type":"function","name":"poolFee","inputs":[],"outputs":[{"name":"","type":"uint24","internalType":"uint24"}],"stateMutability":"view"},{"type":"function","name":"presaleRatios","inputs":[],"outputs":[{"name":"phase1Ratio","type":"uint256","internalType":"uint256"},{"name":"phase2Ratio","type":"uint256","internalType":"uint256"},{"name":"launchRatio","type":"uint256","internalType":"uint256"}],"stateMutability":"view"},{"type":"function","name":"quote","inputs":[{"name":"_dstEid","type":"uint32","internalType":"uint32"},{"name":"_receiver","type":"address","internalType":"address"},{"name":"payload","type":"bytes","internalType":"bytes"},{"name":"options","type":"bytes","internalType":"bytes"},{"name":"_payInLzToken","type":"bool","internalType":"bool"}],"outputs":[{"name":"fee","type":"tuple","internalType":"struct MessagingFee","components":[{"name":"nativeFee","type":"uint256","internalType":"uint256"},{"name":"lzTokenFee","type":"uint256","internalType":"uint256"}]}],"stateMutability":"view"},{"type":"function","name":"renounceOwnership","inputs":[],"outputs":[],"stateMutability":"nonpayable"},{"type":"function","name":"sendMessage","inputs":[{"name":"_dstEid","type":"uint32","internalType":"uint32"},{"name":"_receiver","type":"address","internalType":"address"},{"name":"options","type":"bytes","internalType":"bytes"},{"name":"payload","type":"bytes","internalType":"bytes"},{"name":"_fee","type":"tuple","internalType":"struct MessagingFee","components":[{"name":"nativeFee","type":"uint256","internalType":"uint256"},{"name":"lzTokenFee","type":"uint256","internalType":"uint256"}]}],"outputs":[{"name":"receipt","type":"tuple","internalType":"struct MessagingReceipt","components":[{"name":"guid","type":"bytes32","internalType":"bytes32"},{"name":"nonce","type":"uint64","internalType":"uint64"},{"name":"fee","type":"tuple","internalType":"struct MessagingFee","components":[{"name":"nativeFee","type":"uint256","internalType":"uint256"},{"name":"lzTokenFee","type":"uint256","internalType":"uint256"}]}]}],"stateMutability":"payable"},{"type":"function","name":"setDelegate","inputs":[{"name":"_delegate","type":"address","internalType":"address"}],"outputs":[],"stateMutability":"nonpayable"},{"type":"function","name":"setPeer","inputs":[{"name":"_eid","type":"uint32","internalType":"uint32"},{"name":"_peer","type":"bytes32","internalType":"bytes32"}],"outputs":[],"stateMutability":"nonpayable"},{"type":"function","name":"stargatePoolNative","inputs":[],"outputs":[{"name":"","type":"address","internalType":"address"}],"stateMutability":"view"},{"type":"function","name":"swapExactETHForTokens","inputs":[{"name":"tokenAddress","type":"address","internalType":"address"}],"outputs":[{"name":"","type":"uint256","internalType":"uint256"}],"stateMutability":"payable"},{"type":"function","name":"swapExactTokensForETH","inputs":[{"name":"tokenAddress","type":"address","internalType":"address"},{"name":"tokenAmount","type":"uint256","internalType":"uint256"},{"name":"dstEid","type":"uint32","internalType":"uint32"}],"outputs":[{"name":"","type":"uint256","internalType":"uint256"}],"stateMutability":"nonpayable"},{"type":"function","name":"swapRouter02","inputs":[],"outputs":[{"name":"","type":"address","internalType":"contract ISwapRouter02"}],"stateMutability":"view"},{"type":"function","name":"tokenInfo","inputs":[{"name":"","type":"address","internalType":"address"}],"outputs":[{"name":"creator","type":"address","internalType":"address"},{"name":"initialLiquidityAdded","type":"bool","internalType":"bool"},{"name":"positionId","type":"uint256","internalType":"uint256"},{"name":"lockedLiquidityPercentage","type":"uint256","internalType":"uint256"},{"name":"withdrawableLiquidity","type":"uint256","internalType":"uint256"},{"name":"creationTime","type":"uint256","internalType":"uint256"},{"name":"pool","type":"address","internalType":"address"},{"name":"liquidity","type":"uint128","internalType":"uint128"}],"stateMutability":"view"},{"type":"function","name":"tokenLaunchInfo","inputs":[{"name":"","type":"address","internalType":"address"}],"outputs":[{"name":"creator","type":"address","internalType":"address"},{"name":"currentPhase","type":"uint8","internalType":"enum KannonV1Library.LaunchPhase"},{"name":"launchDeadline","type":"uint256","internalType":"uint256"},{"name":"distributableSupply","type":"uint256","internalType":"uint256"},{"name":"ethTarget","type":"uint256","internalType":"uint256"},{"name":"ethCollected","type":"uint256","internalType":"uint256"},{"name":"totalPresoldTokens","type":"uint256","internalType":"uint256"},{"name":"k","type":"uint256","internalType":"uint256"}],"stateMutability":"view"},{"type":"function","name":"transferOwnership","inputs":[{"name":"newOwner","type":"address","internalType":"address"}],"outputs":[],"stateMutability":"nonpayable"},{"type":"function","name":"updatePresaleRatios","inputs":[{"name":"_phase1Ratio","type":"uint256","internalType":"uint256"},{"name":"_phase2Ratio","type":"uint256","internalType":"uint256"},{"name":"_launchRatio","type":"uint256","internalType":"uint256"}],"outputs":[],"stateMutability":"nonpayable"},{"type":"function","name":"userPresale","inputs":[{"name":"","type":"address","internalType":"address"},{"name":"","type":"address","internalType":"address"}],"outputs":[{"name":"","type":"uint256","internalType":"uint256"}],"stateMutability":"view"},{"type":"function","name":"version","inputs":[],"outputs":[{"name":"","type":"uint64","internalType":"uint64"}],"stateMutability":"view"},{"type":"event","name":"AdditionalPresaleTokenData","inputs":[{"name":"tokenAddress","type":"address","indexed":true,"internalType":"address"},{"name":"creator","type":"address","indexed":true,"internalType":"address"},{"name":"name","type":"string","indexed":false,"internalType":"string"},{"name":"symbol","type":"string","indexed":false,"internalType":"string"},{"name":"description","type":"string","indexed":false,"internalType":"string"},{"name":"imageUrl","type":"string","indexed":false,"internalType":"string"},{"name":"twitter","type":"string","indexed":false,"internalType":"string"},{"name":"telegram","type":"string","indexed":false,"internalType":"string"},{"name":"website","type":"string","indexed":false,"internalType":"string"},{"name":"initialSupply","type":"uint256","indexed":false,"internalType":"uint256"},{"name":"ethTarget","type":"uint256","indexed":false,"internalType":"uint256"},{"name":"presaleDuration","type":"uint256","indexed":false,"internalType":"uint256"},{"name":"timestamp","type":"uint256","indexed":false,"internalType":"uint256"}],"anonymous":false},{"type":"event","name":"AdditionalTokenData","inputs":[{"name":"tokenAddress","type":"address","indexed":true,"internalType":"address"},{"name":"creator","type":"address","indexed":true,"internalType":"address"},{"name":"name","type":"string","indexed":false,"internalType":"string"},{"name":"symbol","type":"string","indexed":false,"internalType":"string"},{"name":"description","type":"string","indexed":false,"internalType":"string"},{"name":"imageUrl","type":"string","indexed":false,"internalType":"string"},{"name":"twitter","type":"string","indexed":false,"internalType":"string"},{"name":"telegram","type":"string","indexed":false,"internalType":"string"},{"name":"website","type":"string","indexed":false,"internalType":"string"},{"name":"timestamp","type":"uint256","indexed":false,"internalType":"uint256"}],"anonymous":false},{"type":"event","name":"OwnershipTransferred","inputs":[{"name":"previousOwner","type":"address","indexed":true,"internalType":"address"},{"name":"newOwner","type":"address","indexed":true,"internalType":"address"}],"anonymous":false},{"type":"event","name":"PeerSet","inputs":[{"name":"eid","type":"uint32","indexed":false,"internalType":"uint32"},{"name":"peer","type":"bytes32","indexed":false,"internalType":"bytes32"}],"anonymous":false},{"type":"event","name":"PresaleCompleted","inputs":[{"name":"tokenAddress","type":"address","indexed":true,"internalType":"address"},{"name":"timestamp","type":"uint256","indexed":false,"internalType":"uint256"}],"anonymous":false},{"type":"event","name":"PresaleParticipation","inputs":[{"name":"tokenAddress","type":"address","indexed":true,"internalType":"address"},{"name":"participant","type":"address","indexed":true,"internalType":"address"},{"name":"currentPhase","type":"uint8","indexed":false,"internalType":"enum KannonV1Library.LaunchPhase"},{"name":"ethAmount","type":"uint256","indexed":false,"internalType":"uint256"},{"name":"tokenAmount","type":"uint256","indexed":false,"internalType":"uint256"},{"name":"refund","type":"uint256","indexed":false,"internalType":"uint256"},{"name":"timestamp","type":"uint256","indexed":false,"internalType":"uint256"}],"anonymous":false},{"type":"event","name":"PresaleUpdate","inputs":[{"name":"tokenAddress","type":"address","indexed":true,"internalType":"address"},{"name":"creator","type":"address","indexed":true,"internalType":"address"},{"name":"currentPhase","type":"uint8","indexed":false,"internalType":"enum KannonV1Library.LaunchPhase"},{"name":"ethCollected","type":"uint256","indexed":false,"internalType":"uint256"},{"name":"totalPresoldTokens","type":"uint256","indexed":false,"internalType":"uint256"},{"name":"distributableSupply","type":"uint256","indexed":false,"internalType":"uint256"},{"name":"ethTarget","type":"uint256","indexed":false,"internalType":"uint256"},{"name":"launchDeadline","type":"uint256","indexed":false,"internalType":"uint256"},{"name":"tokenPrice","type":"uint256","indexed":false,"internalType":"uint256"},{"name":"timestamp","type":"uint256","indexed":false,"internalType":"uint256"}],"anonymous":false},{"type":"event","name":"ReachedSendMessageFunction","inputs":[{"name":"message","type":"string","indexed":true,"internalType":"string"}],"anonymous":false},{"type":"event","name":"TokenClaimed","inputs":[{"name":"token","type":"address","indexed":true,"internalType":"address"},{"name":"user","type":"address","indexed":true,"internalType":"address"},{"name":"amount","type":"uint256","indexed":false,"internalType":"uint256"},{"name":"timestamp","type":"uint256","indexed":false,"internalType":"uint256"}],"anonymous":false},{"type":"event","name":"TokenTrade","inputs":[{"name":"tokenAddress","type":"address","indexed":true,"internalType":"address"},{"name":"trader","type":"address","indexed":true,"internalType":"address"},{"name":"tradeType","type":"uint8","indexed":false,"internalType":"enum KannonV1.TradeType"},{"name":"inputAmount","type":"uint256","indexed":false,"internalType":"uint256"},{"name":"outputAmount","type":"uint256","indexed":false,"internalType":"uint256"},{"name":"eid","type":"uint32","indexed":false,"internalType":"uint32"},{"name":"timestamp","type":"uint256","indexed":false,"internalType":"uint256"}],"anonymous":false},{"type":"event","name":"TokenUpdate","inputs":[{"name":"tokenAddress","type":"address","indexed":true,"internalType":"address"},{"name":"creator","type":"address","indexed":true,"internalType":"address"},{"name":"sqrtPriceX96","type":"uint160","indexed":false,"internalType":"uint160"},{"name":"tokenPrice","type":"uint256","indexed":false,"internalType":"uint256"},{"name":"ethReserve","type":"uint256","indexed":false,"internalType":"uint256"},{"name":"tokenReserve","type":"uint256","indexed":false,"internalType":"uint256"},{"name":"totalSupply","type":"uint256","indexed":false,"internalType":"uint256"},{"name":"lockedLiquidityPercentage","type":"uint256","indexed":false,"internalType":"uint256"},{"name":"timestamp","type":"uint256","indexed":false,"internalType":"uint256"}],"anonymous":false},{"type":"error","name":"AddressEmptyCode","inputs":[{"name":"target","type":"address","internalType":"address"}]},{"type":"error","name":"AddressInsufficientBalance","inputs":[{"name":"account","type":"address","internalType":"address"}]},{"type":"error","name":"Create2EmptyBytecode","inputs":[]},{"type":"error","name":"Create2FailedDeployment","inputs":[]},{"type":"error","name":"Create2InsufficientBalance","inputs":[{"name":"balance","type":"uint256","internalType":"uint256"},{"name":"needed","type":"uint256","internalType":"uint256"}]},{"type":"error","name":"FailedInnerCall","inputs":[]},{"type":"error","name":"InvalidDelegate","inputs":[]},{"type":"error","name":"InvalidEndpointCall","inputs":[]},{"type":"error","name":"InvalidOptionType","inputs":[{"name":"optionType","type":"uint16","internalType":"uint16"}]},{"type":"error","name":"KannonV1_DeadlineReached","inputs":[]},{"type":"error","name":"KannonV1_InsufficientFunds","inputs":[]},{"type":"error","name":"KannonV1_InsufficientFundsForCrossMessage","inputs":[]},{"type":"error","name":"KannonV1_InvalidInput","inputs":[]},{"type":"error","name":"KannonV1_InvalidOperation","inputs":[]},{"type":"error","name":"KannonV1_InvalidParameters","inputs":[]},{"type":"error","name":"KannonV1_InvalidParameters","inputs":[]},{"type":"error","name":"KannonV1_InvalidPhase","inputs":[]},{"type":"error","name":"KannonV1_InvalidRatios","inputs":[]},{"type":"error","name":"KannonV1_LiquidityError","inputs":[]},{"type":"error","name":"KannonV1_PoolNotInitialized","inputs":[]},{"type":"error","name":"KannonV1_PresaleAlreadyStarted","inputs":[]},{"type":"error","name":"KannonV1_PresaleNotComplete","inputs":[]},{"type":"error","name":"KannonV1_TransferFailed","inputs":[]},{"type":"error","name":"KannonV1_Unauthorized","inputs":[]},{"type":"error","name":"KannonV1_Unauthorized","inputs":[]},{"type":"error","name":"KannonV1_WETH9Failed","inputs":[]},{"type":"error","name":"LzTokenUnavailable","inputs":[]},{"type":"error","name":"NoPeer","inputs":[{"name":"eid","type":"uint32","internalType":"uint32"}]},{"type":"error","name":"NotEnoughNative","inputs":[{"name":"msgValue","type":"uint256","internalType":"uint256"}]},{"type":"error","name":"OnlyEndpoint","inputs":[{"name":"addr","type":"address","internalType":"address"}]},{"type":"error","name":"OnlyPeer","inputs":[{"name":"eid","type":"uint32","internalType":"uint32"},{"name":"sender","type":"bytes32","internalType":"bytes32"}]},{"type":"error","name":"OwnableInvalidOwner","inputs":[{"name":"owner","type":"address","internalType":"address"}]},{"type":"error","name":"OwnableUnauthorizedAccount","inputs":[{"name":"account","type":"address","internalType":"address"}]},{"type":"error","name":"SafeCastOverflowedUintDowncast","inputs":[{"name":"bits","type":"uint8","internalType":"uint8"},{"name":"value","type":"uint256","internalType":"uint256"}]},{"type":"error","name":"SafeERC20FailedOperation","inputs":[{"name":"token","type":"address","internalType":"address"}]}],"bytecode":{"object":"0x610180806040523461034d57600090610140816165b280380380916100248285610352565b833981010312610346578051916001600160a01b038316830361034a576020820151906001600160a01b038216820361034a5760408301516001600160a01b0381168103610346576100786060850161038b565b6100846080860161038b565b61009060a0870161038b565b60c08701516001600160401b03811694919391908590036103425760e0880151966101206101008a015199015199331561032e578754336001600160a01b0319821681178a55604051916001600160a01b03167f8be0079c531659141344cd1fd0a4f28419497f9722a3daafe3b4186f6b6457e08b80a36001600160a01b0387166080819052803b1561032a57816024818c809463ca5eb5e160e01b83523360048401525af1801561031f5761030b575b5066038d7ea4c6800060a05260c05260e05261010052610120526101405261016052600280546001600160401b0319169190911790556103e861018d85610188868661039f565b61039f565b036102fc576040519060608201906001600160401b038211838310176102e857508491604091825283815284602082015201526004556005556006556040516161ef90816103c3823960805181818161077301528181610b7d0152818161155f01528181611c3b015281816121ee0152615222015260a0518181816118ba0152818161330201526139be015260c051818181611506015281816147dc0152614aa5015260e0518181816112230152614d5601526101005181818161056c01528181611080015281816113010152613b4a01526101205181818161059601528181610aed0152818161133b015281816123b7015281816125bb0152818161344201528181613b7401528181613f2b0152818161476001528181614a2a01528181614cc0015261518b015261014051818181610d7a01528181611644015281816139590152613c8901526101605181818161101401526117980152f35b634e487b7160e01b81526041600452602490fd5b63275444dd60e11b8152600490fd5b8861031891999299610352565b9638610141565b6040513d8b823e3d90fd5b8980fd5b631e4fbdf760e01b88526004889052602488fd5b8580fd5b5080fd5b80fd5b600080fd5b601f909101601f19168101906001600160401b0382119082101761037557604052565b634e487b7160e01b600052604160045260246000fd5b51906001600160a01b038216820361034d57565b919082018092116103ac57565b634e487b7160e01b600052601160045260246000fdfe6080604052600436101561001b575b361561001957600080fd5b005b60003560e01c8063049feaeb146102ab578063089fe6aa146102a657806311cc4b42146102a157806313137d651461029c578063150b7a021461029757806317442b70146102925780631f69565f1461028d57806324e9b8ab146102885780633400288b146102835780634aa4a4fc1461027e5780634fc713411461027957806354fd4d50146102745780635e280f111461026f57806363087d5c1461026a5780636baf92dc146102655780636e09182514610260578063715018a61461025b57806378d111ff14610256578063797b7f6b146102515780637d25a05e1461024c5780637eaf1116146102475780638a88c670146102425780638da5cb5b1461023d5780639658a09014610238578063adc681c714610233578063b02c43d01461022e578063b44a272214610229578063b8df945014610224578063b92d0eff1461021f578063bb0b6a531461021a578063bea9463014610215578063bfa126bb14610210578063c45a01551461020b578063ca5eb5e114610206578063d0a1026014610201578063d262ec58146101fc578063ddbcb5fa146101f7578063df8de3e7146101f2578063f2fde38b146101ed578063f5dab711146101e85763ff7bd03d0361000e57611b67565b611ac0565b611a33565b6118dd565b6118a2565b611801565b6115dd565b611535565b6114f0565b6114c7565b6112c5565b61128a565b61126f565b611252565b61120d565b61119e565b611125565b6110f6565b6110cd565b6110af565b61106a565b611043565b610ffe565b610f89565b610ee5565b610e2f565b610d64565b610d36565b610b67565b610b40565b610b1c565b610ad7565b610a68565b610a05565b610886565b610864565b61080a565b61070f565b61053b565b61051e565b61046f565b63ffffffff8116036102be57565b600080fd5b6001600160a01b038116036102be57565b35906102df826102c3565b565b634e487b7160e01b600052604160045260246000fd5b606081019081106001600160401b0382111761031257604052565b6102e1565b61010081019081106001600160401b0382111761031257604052565b604081019081106001600160401b0382111761031257604052565b60e081019081106001600160401b0382111761031257604052565b90601f801991011681019081106001600160401b0382111761031257604052565b604051906102df60e083610369565b604051906102df61010083610369565b604051906102df61012083610369565b604051906102df60a083610369565b604051906102df61016083610369565b604051906102df608083610369565b906102df6040519283610369565b6001600160401b03811161031257601f01601f191660200190565b92919261041c826103f5565b9161042a6040519384610369565b8294818452818301116102be578281602093846000960137010152565b9080601f830112156102be5781602061046293359101610410565b90565b801515036102be57565b346102be5760a03660031901126102be5760043561048c816102b0565b6104976024356102c3565b6044356001600160401b0381116102be576104b6903690600401610447565b90606435906001600160401b0382116102be5761050f926104de6104f1933690600401610447565b90608435926104ec84610465565b611bc7565b60405191829182815181526020918201519181019190915260400190565b0390f35b60009103126102be57565b346102be5760003660031901126102be576020604051610bb88152f35b60203660031901126102be57600435610553816102c3565b34156106c057600090610565346123b5565b60206106247f00000000000000000000000000000000000000000000000000000000000000006001600160a01b03167f00000000000000000000000000000000000000000000000000000000000000006105c0348383612444565b6105da6105cb61038a565b6001600160a01b039092168252565b6001600160a01b03851681850152610bb860408201523360608201523460808201528560a08201528560c08201526040519586809481936304e45aaf60e01b835260048301611caf565b03925af19081156106bb5761050f92600092610686575b50604051610676919033906001600160a01b0383169060008051602061617a833981519152908061066e42893484611d19565b0390a3612587565b6040519081529081906020820190565b6106769192506106ad9060203d6020116106b4575b6106a58183610369565b810190611ca0565b919061063b565b503d61069b565b611d0d565b630b70486760e21b60005260046000fd5b60609060031901126102be57600490565b9181601f840112156102be578235916001600160401b0383116102be57602083818601950101116102be57565b60e03660031901126102be57610724366106d1565b6084356001600160401b0381116102be576107439036906004016106e2565b9061074f60a4356102c3565b60c4356001600160401b0381116102be5761076e9036906004016106e2565b5050337f00000000000000000000000000000000000000000000000000000000000000006001600160a01b0316036107f5578235926107ac846102b0565b6107b5846126fc565b9360208201358095036107cd57506100199350612730565b63ffffffff816107dd87936102b0565b63309afaf360e21b6000521660045260245260446000fd5b6391ac5e4f60e01b6000523360045260246000fd5b346102be5760803660031901126102be576108266004356102c3565b6108316024356102c3565b6064356001600160401b0381116102be576108509036906004016106e2565b5050604051630a85bd0160e11b8152602090f35b346102be5760003660031901126102be57604080516001815260016020820152f35b346102be5760203660031901126102be576004356108a3816102c3565b6108ab611d73565b506001600160a01b0316600090815260076020526040902061050f9061095d61094d60066108d7610399565b84546001600160a01b0381168252909490610903906108fa905b60a01c60ff1690565b15156020870152565b600181015460408601526002810154606086015260038101546080860152600481015460a086015260058101546001600160a01b031660c08601525b01546001600160801b031690565b6001600160801b031660e0830152565b6040519182918281516001600160a01b03908116825260208084015115159083015260408084015190830152606080840151908301526080808401519083015260a0808401519083015260c0808401519091169082015260e0918201516001600160801b0316918101919091526101000190565b6001600160a01b0316600090815260096020526040902090565b6001600160a01b0316600090815260076020526040902090565b346102be5760403660031901126102be576020610a5f600435610a27816102c3565b60243590610a34826102c3565b60018060a01b0316600052600a835260406000209060018060a01b0316600052602052604060002090565b54604051908152f35b346102be5760403660031901126102be577f238399d427b947898edb290f5ff0f9109849b1c3ba196a42e35f00c50a54b98b6040600435610aa8816102b0565b63ffffffff60243591610ab96127bf565b169081600052600160205280836000205582519182526020820152a1005b346102be5760003660031901126102be576040517f00000000000000000000000000000000000000000000000000000000000000006001600160a01b03168152602090f35b60203660031901126102be57610019600435610b37816102c3565b349033906129b4565b346102be5760003660031901126102be5760206001600160401b0360025416604051908152f35b346102be5760003660031901126102be576040517f00000000000000000000000000000000000000000000000000000000000000006001600160a01b03168152602090f35b60206003198201126102be576004356001600160401b0381116102be57600401906060828203126102be5760405191610be4836102f7565b80356001600160401b0381116102be57810191610120838203126102be57610c0a6103a9565b90610c14846102d4565b825260208401356001600160401b0381116102be5781610c35918601610447565b602083015260408401356001600160401b0381116102be5781610c59918601610447565b604083015260608401356001600160401b0381116102be5781610c7d918601610447565b606083015260808401356001600160401b0381116102be5781610ca1918601610447565b608083015260a08401356001600160401b0381116102be5781610cc5918601610447565b60a083015260c08401356001600160401b0381116102be5781610ce9918601610447565b60c083015260e0840135936001600160401b0385116102be57610d13610100926040968301610447565b60e084015201356101008201528352602081013560208401520135604082015290565b346102be576020610d52610d4936610bac565b33815152612fd5565b6040516001600160a01b039091168152f35b346102be5760003660031901126102be576040517f00000000000000000000000000000000000000000000000000000000000000006001600160a01b03168152602090f35b60031115610db357565b634e487b7160e01b600052602160045260246000fd5b81516001600160a01b0316815260208201516101008201939260e091829190610df181610da9565b602085015260408101516040850152606081015160608501526080810151608085015260a081015160a085015260c081015160c08501520151910152565b346102be5760203660031901126102be57600435610e4c816102c3565b610e54611d73565b5060018060a01b0316600052600960205261050f6040600020600660405191610e7c83610317565b80546001600160a01b0381168452610ea090610e97906108f1565b60208501611dbf565b600181015460408401526002810154606084015260038101546080840152600481015460a0840152600581015460c0840152015460e082015260405191829182610dc9565b346102be5760003660031901126102be57610efe6127bf565b600080546001600160a01b0319811682556001600160a01b03167f8be0079c531659141344cd1fd0a4f28419497f9722a3daafe3b4186f6b6457e08280a3005b6001600160a01b039091168152610100810198979660e0969195909491939092610f6781610da9565b602087015260408601526060850152608084015260a083015260c08201520152565b346102be5760203660031901126102be57600435610fa6816102c3565b60018060a01b031660005260096020526040600020805461050f60018301549260028101549060038101546004820154906006600584015493015493604051978760ff8a9960a01c169060018060a01b031689610f3e565b346102be5760003660031901126102be576040517f00000000000000000000000000000000000000000000000000000000000000006001600160a01b03168152602090f35b346102be5760403660031901126102be5761105f6004356102b0565b602060405160008152f35b346102be5760003660031901126102be576040517f00000000000000000000000000000000000000000000000000000000000000006001600160a01b03168152602090f35b346102be5760003660031901126102be5760206040516203f4808152f35b346102be5760003660031901126102be576000546040516001600160a01b039091168152602090f35b346102be5760003660031901126102be5760606004546005546006549060405192835260208301526040820152f35b346102be5760603660031901126102be576044356024356004356111476127bf565b81810180821161119957838101809111611199576103e803611188578260408051611171816102f7565b838152602081018590520152600455600555600655005b63275444dd60e11b60005260046000fd5b611dc8565b346102be5760203660031901126102be5760043560009081526008602090815260409182902080546001820154600283015460039093015485516001600160a01b0393841681526001600160801b03909216948201949094529181169382019390935291166060820152608090f35b346102be5760003660031901126102be576040517f00000000000000000000000000000000000000000000000000000000000000006001600160a01b03168152602090f35b6020610d5261126036610bac565b346040820152338151526132e3565b346102be5760003660031901126102be576020604051308152f35b346102be5760203660031901126102be5763ffffffff6004356112ac816102b0565b1660005260016020526020604060002054604051908152f35b346102be5760603660031901126102be576004356112e2816102c3565b60006024356044356112f3816102b0565b6112ff823033876135f2565b7f00000000000000000000000000000000000000000000000000000000000000006001600160a01b0316611334838287612444565b60206113b97f00000000000000000000000000000000000000000000000000000000000000009261136361038a565b6001600160a01b03891681526001600160a01b03851681850152610bb860408201523060608201528660808201528760a08201528760c08201526040519788809481936304e45aaf60e01b835260048301611caf565b03925af19384156106bb576000946114a6575b506001600160a01b0316803b156102be57604051632e1a7d4d60e01b815260048101859052906000908290602490829084905af180156106bb5761148b575b5063ffffffff811615611429579061050f936106769284339161387c565b50600080808085335af161143b611e00565b501561147a5761050f92611475916040519060008051602061617a83398151915233928061066e60018060a01b0387169489429184611d46565b610676565b63c8d1a90960e01b60005260046000fd5b8061149a60006114a093610369565b80610513565b3861140b565b6114c091945060203d6020116106b4576106a58183610369565b92386113cc565b346102be5760003660031901126102be57600b546040516001600160a01b039091168152602090f35b346102be5760003660031901126102be576040517f00000000000000000000000000000000000000000000000000000000000000006001600160a01b03168152602090f35b346102be57600060203660031901126115da5780600435611555816102c3565b61155d6127bf565b7f00000000000000000000000000000000000000000000000000000000000000006001600160a01b0316803b156115d65760405163ca5eb5e160e01b81526001600160a01b0390921660048301529091908290602490829084905af180156106bb5782906115c85780f35b6115d191610369565b388180f35b5050fd5b80fd5b60a03660031901126102be576004356115f5816102c3565b6044356001600160401b0381116102be576116149036906004016106e2565b90916116216064356102c3565b6084356001600160401b0381116102be576116409036906004016106e2565b50507f00000000000000000000000000000000000000000000000000000000000000006001600160a01b03908116911614801590611794575b611783576116ad61169e61168d8385613a77565b926116988186613a8a565b94613aa0565b60208082518301019101611ea7565b6001600160f81b031990911692836116e357506100199250806020806116d893518301019101611f6b565b9060408201526132e3565b9192600160f81b810361171b5750916117088360208061001996518301019101611f3b565b6001600160a01b03908116929116613b2b565b909190600160f91b03611772576100199260008051602061617a8339815191526117518460208061066e97518301019101611edd565b6040516001600160a01b039384169791909316958795849342929185611f07565b631d8c53d760e11b60005260046000fd5b6366bedc5b60e11b60005260046000fd5b50337f00000000000000000000000000000000000000000000000000000000000000006001600160a01b03161415611679565b6102df909291926040806080830195805184526001600160401b036020820151166020850152015191019060208091805184520151910152565b60c03660031901126102be57600435611819816102b0565b6118246024356102c3565b6044356001600160401b0381116102be57611843903690600401610447565b6064356001600160401b0381116102be57611862903690600401610447565b9160403660831901126102be5761050f92611896926040519261188484610333565b608435845260a4356020850152612119565b604051918291826117c7565b346102be5760003660031901126102be5760206040517f00000000000000000000000000000000000000000000000000000000000000008152f35b346102be5760203660031901126102be576004356118fa816102c3565b6002611912611908836109d1565b5460a01c60ff1690565b61191b81610da9565b03611a22576001600160a01b0381166000908152600a602052604090206119569033905b9060018060a01b0316600052602052604060002090565b549081156106c0576001600160a01b0381166000908152600a6020526040812061198190339061193f565b5560405163a9059cbb60e01b8152336004820152602481018390526001600160a01b0391909116906020816044816000865af180156106bb576119f5575b506040805192835242602084015233927f29842d15961c304dad3345dcde04db3059d13a4455ed0646e5daf7c993a04bc69190a3005b611a169060203d602011611a1b575b611a0e8183610369565b81019061242f565b6119bf565b503d611a04565b6335ada61560e01b60005260046000fd5b346102be5760203660031901126102be57600435611a50816102c3565b611a586127bf565b6001600160a01b03168015611aaa57600080546001600160a01b03198116831782556001600160a01b0316907f8be0079c531659141344cd1fd0a4f28419497f9722a3daafe3b4186f6b6457e09080a3005b631e4fbdf760e01b600052600060045260246000fd5b346102be5760203660031901126102be57600435611add816102c3565b6001600160a01b039081166000908152600760209081526040918290208054600182015460028301546003840154600485015460058601546006909601548851868b16815260ff60a097881c1615159881019890985297870193909352606086019190915260808501529083015290921660c08301526001600160801b031660e082015261010090f35b346102be5760603660031901126102be576020611b83366106d1565b63ffffffff8135611b93816102b0565b16600052600182528160406000205491013560405191148152f35b60405190611bbb82610333565b60006020838281520152565b90611c3793604093611c1c92611bdb611bae565b50611be4611bae565b50611bee856126fc565b611c05611bf96103b9565b63ffffffff9097168752565b602086015285850152606084015215156080830152565b815180938192631bb8518b60e31b8352309060048401612347565b03817f00000000000000000000000000000000000000000000000000000000000000006001600160a01b03165afa9081156106bb57600091611c77575090565b610462915060403d604011611c99575b611c918183610369565b81019061230e565b503d611c87565b908160209103126102be575190565b81516001600160a01b03908116825260208084015182169083015260408084015162ffffff16908301526060808401518216908301526080808401519083015260a0808401519083015260c092830151169181019190915260e00190565b6040513d6000823e3d90fd5b60a08101949392608092611d2d6000610da9565b6000835260208301526040820152600060608201520152565b60a08101949392608092611d5a6001610da9565b6001835260208301526040820152600060608201520152565b60405190611d8082610317565b600060e0838281528260208201528260408201528260608201528260808201528260a08201528260c08201520152565b600090611dbc82610da9565b52565b611dbc82610da9565b634e487b7160e01b600052601160045260246000fd5b9190820180921161119957565b60405190611dfa602083610369565b60008252565b3d15611e2b573d90611e11826103f5565b91611e1f6040519384610369565b82523d6000602084013e565b606090565b6001600160f81b03198116036102be57565b60005b838110611e555750506000910152565b8181015183820152602001611e45565b81601f820112156102be5760208151910190611e80816103f5565b92611e8e6040519485610369565b818452818301116102be57610462916020840190611e42565b9190916040818403126102be578051611ebf81611e30565b9260208201516001600160401b0381116102be576104629201611e65565b908160609103126102be578051611ef3816102c3565b9160406020830151920151610462816102c3565b9094939263ffffffff9060809360a0840197611f236000610da9565b60008552602085015260408401521660608201520152565b91908260409103126102be5760208251611f54816102c3565b920151610462816102c3565b51906102df826102c3565b6020818303126102be578051906001600160401b0382116102be5701906060828203126102be5760405191611f9f836102f7565b80516001600160401b0381116102be57810191610120838203126102be57611fc56103a9565b90611fcf84611f60565b825260208401516001600160401b0381116102be5781611ff0918601611e65565b602083015260408401516001600160401b0381116102be5781612014918601611e65565b604083015260608401516001600160401b0381116102be5781612038918601611e65565b606083015260808401516001600160401b0381116102be578161205c918601611e65565b608083015260a08401516001600160401b0381116102be5781612080918601611e65565b60a083015260c08401516001600160401b0381116102be57816120a4918601611e65565b60c083015260e0840151936001600160401b0385116102be576120ce610100926040968301611e65565b60e084015201516101008201528352602081015160208401520151604082015290565b604051906120fe826102f7565b8160008152600060208201526040612114611bae565b910152565b90926121236120f1565b50805134106122d5576121cd6080936121ea9560096040516872656163686564203160b81b8152207f2e12280ce5060fc1a629cba49ac5d8aec172775f4945a6f3725c02cb02e42d1a600080a26121786120f1565b50602061218585516151f4565b9401918251806122c6575b5061219a866126fc565b92511515926121b66121aa6103b9565b63ffffffff9098168852565b602087015260408601526060850152151584840152565b60405180809581946302637a4560e41b8352339060048401612347565b03917f00000000000000000000000000000000000000000000000000000000000000006001600160a01b03165af19081156106bb57600091612297575b506040517f6920686176652066696e69736865642072756e6e696e67206c7a53656e64000090527fe722d06978f2996bf3485ce5b2bf629cd5bae7fcb0384644e308e07112b098c07f2e12280ce5060fc1a629cba49ac5d8aec172775f4945a6f3725c02cb02e42d1a600080a290565b6122b9915060803d6080116122bf575b6122b18183610369565b810190613e5f565b38612227565b503d6122a7565b6122cf90615213565b38612190565b6364a31da760e01b60005260046000fd5b91908260409103126102be576040516122fe81610333565b6020808294805184520151910152565b906040828203126102be57610462916122e6565b9060209161233b81518092818552858086019101611e42565b601f01601f1916010190565b906020909392936040835263ffffffff8151166040840152818101516060840152608061239b612385604084015160a08488015260e0870190612322565b6060840151868203603f190160a0880152612322565b910151151560c08401526001600160a01b03909416910152565b7f00000000000000000000000000000000000000000000000000000000000000006001600160a01b031690813b156102be5760405191630d0e30db60e41b83528260048160009485945af1918261241f575b509061241c5763cfd8bd6360e01b8152600490fd5b50565b8161242991610369565b38612407565b908160209103126102be575161046281610465565b60405163095ea7b360e01b602082019081526001600160a01b0390931660248201526044810193909352600092839290839061248d81606481015b03601f198101835282610369565b51925af1612499611e00565b816124d1575b50156124a757565b60405162461bcd60e51b8152602060048201526002602482015261534160f01b6044820152606490fd5b80518015925082156124e6575b50503861249f565b6124f9925060208091830101910161242f565b38806124de565b908160a09103126102be5760006040519160a08301918383106001600160401b03841117610312576080926040528151612539816102c3565b8452602082015160208501526040820151604085015260608201516060850152500151608082015290565b6001600160a01b0391821681529181166020830152909116604082015260600190565b6125e460a06125a8600561259a856109eb565b01546001600160a01b031690565b604051809381926313fb0c4760e11b83527f00000000000000000000000000000000000000000000000000000000000000008760048501612564565b038173__$201c89f77ed6c9689777296c0c34c66894$__5af49081156106bb576000916126cd575b507fad20a6e3e602b2697579255166742402ca1cbdbb471f0afffc9413aab0e28a5461264761263a846109eb565b546001600160a01b031690565b82519092906001600160a01b0316926126c860208301519460408401519360806060820151910151600261267a8a6109eb565b0154604080516001600160a01b039586168152602081019a909a528901969096526060880191909152608087015260a08601939093524260c0860152908216949091169290819060e0820190565b0390a3565b6126ef915060a03d60a0116126f5575b6126e78183610369565b810190612500565b3861260c565b503d6126dd565b63ffffffff1680600052600160205260406000205490811561271c575090565b63f6ff4fb760e01b60005260045260246000fd5b90918201916040818403126102be5780359261274b84611e30565b60208201356001600160401b0381116102be576127689201610447565b916001600160f81b031916600360f81b03611772576127ba6127a9602061279a85828061241c98518301019101611f6b565b9301356001600160a01b031690565b82516001600160a01b039091169052565b612fd5565b6000546001600160a01b031633036127d357565b63118cdaa760e01b6000523360045260246000fd5b60a081019493926080926127fb81610da9565b8252600060208301526000604083015260608201520152565b93909796959260e0959261010086019961282d81610da9565b8652602086015260408501526060840152608083015260a0820152600060c08201520152565b908160609103126102be57604080519161286c836102f7565b80518352602081015160208401520151604082015290565b9360e095919897936102df979361014087019a6128a081610da9565b8752602087015260408601526060850152608084015260a083015260c0820152016004600260409180548452600181015460208501520154910152565b60a08101969594608094919390926128f481610da9565b84526020840152604083015260608201520152565b906509184e72a0008202918083046509184e72a000149015171561119957565b9061012c82029180830461012c149015171561119957565b8181029291811591840414171561119957565b811561295e570490565b634e487b7160e01b600052601260045260246000fd5b94919260e0969399989794919961010087019a61299081610da9565b8752602087015260408601526060850152608084015260a083015260c08201520152565b916129be836109d1565b906129ce825460ff9060a01c1690565b936129d885610da9565b84151580612cf3575b612ce257600183019485544211612be85750825460a01c60ff166002840195865494600381019560608754916005840195612a40875499600487019a8b5460068901549160405198899788976343e3c36760e11b895260048901612884565b038173__$201c89f77ed6c9689777296c0c34c66894$__5af49081156106bb57600091612bb9575b508051156106c0576020810191612a8183518854611dde565b87558151612ab0612aa88b61193f8a60018060a01b0316600052600a602052604060002090565b918254611dde565b9055612abe82518654611dde565b8555612aca89876141b9565b604082019081518a81612b90575b5050549060a082901c60ff168451845192516040516001600160a01b039a8b169d939a909316938d93928392612b119242928e866128dd565b037fee0b802b1445cab5b00d53c92d935f250f1356bd53d873aed4c3ba0b566c492291a36001600160a01b0316955493549854965492549151612b5390612909565b9051612b5e91612954565b91604051968796600160a01b6001900316994295612b7c9789612974565b0360008051602061619a83398151915291a3565b6000918291829182916001600160a01b03165af1612bac611e00565b501561147a57388a612ad8565b612bdb915060603d606011612be1575b612bd38183610369565b810190612853565b38612a68565b503d612bc9565b80612bfa600292979496939597610da9565b03612c1057633743dbb360e01b60005260046000fd5b612c1a8184613e90565b6001600160a01b031691600080808087875af1612c35611e00565b501561147a576126c8612cb1612ca29560008051602061619a833981519152958854917fee0b802b1445cab5b00d53c92d935f250f1356bd53d873aed4c3ba0b566c4922612c878460ff9060a01c1690565b9660018060a01b0316998a9260405191829142908b846127e8565b0390a36001600160a01b031690565b916004870154966005810154946003600283015492015490549160405196879660018060a01b03169a429588612814565b63dbeecf2360e01b60005260046000fd5b50612cfd85610da9565b60018514156129e1565b90600182811c92168015612d37575b6020831014612d2157565b634e487b7160e01b600052602260045260246000fd5b91607f1691612d16565b601f8211612d4e57505050565b6000526020600020906020601f840160051c83019310612d89575b601f0160051c01905b818110612d7d575050565b60008155600101612d72565b9091508190612d69565b91909182516001600160401b03811161031257612dba81612db48454612d07565b84612d41565b6020601f8211600114612dfb578190612dec939495600092612df0575b50508160011b916000199060031b1c19161790565b9055565b015190503880612dd7565b601f19821690612e1084600052602060002090565b9160005b818110612e4c57509583600195969710612e33575b505050811b019055565b015160001960f88460031b161c19169055388080612e29565b9192602060018192868b015181550194019201612e14565b80546001600160a01b0319166001600160a01b03909216919091179055565b600a612f2e6101406102df94612e9a815186612d93565b612eab602082015160018701612d93565b612ebc604082015160028701612d93565b612ecd606082015160038701612d93565b612ede608082015160048701612d93565b612eef60a082015160058701612d93565b612f0060c082015160068701612d93565b60e081015160078601556101008101516008860155610120810151600986015501516001600160a01b031690565b9101612e64565b979b9a99969394612f95612fbf96612f87612fb196612f798d6101409f9c98612f6b612fa3996101608452610160840190612322565b916020818403910152612322565b8d810360408f015290612322565b908b820360608d0152612322565b9089820360808b0152612322565b9087820360a0890152612322565b9085820360c0870152612322565b9660e08401526101008301526101208201520152565b8051612fe090614364565b90805160208101519160408201519260608301519360808401519360a08101519460c082015160e083015161010084015191602088019889519460408a019b8c5197516130329060018060a01b031690565b9861303b6103c8565b9a8b5260208b015260408a01526060890152608088015260a087015260c086015260e08501526101008401526101208301526001600160a01b03166101408201526001600160a01b03851660009081526003602052604090209061309e91612e83565b8051610100810151835185519251919290916001600160a01b0316916130c49388614579565b51805160208201516040808401516060850151608086015160a087015160c088015160e08901516101009099015199519a5195516001600160a01b039889169b988d169a90998a99613122994299989197939692959391908c612f35565b037fcce1b20e87258f068b31b721ca68cef1006b2d2706485e20cf818780573812c991a390565b81516102df926006916131ec9160e09161316c906001600160a01b031686612e64565b61319b61317c6020830151151590565b868054909160ff60a01b1990911690151560a01b60ff60a01b16179055565b60408101516001860155606081015160028601556080810151600386015560a0810151600486015560c08101516131de906001600160a01b031660058701612e64565b01516001600160801b031690565b910180546001600160801b0319166001600160801b03909216919091179055565b51908160020b82036102be57565b91908260409103126102be5761046260208351613237816102c3565b930161320d565b91908260409103126102be5761046260206132378461320d565b98979693946132b46132de966132a68c6132d09761329860e09c9861328a6132c2996101008652610100860190612322565b908482036020860152612322565b916040818403910152612322565b8c810360608e015290612322565b908a820360808c0152612322565b9088820360a08a0152612322565b9086820360c0880152612322565b930152565b60408101518151805161010090910151926001600160a01b03909116917f000000000000000000000000000000000000000000000000000000000000000081106106c057613330816123b5565b831580156135e4575b611772576133478251614364565b8251519094906133b5906001600160a01b0316602085015161337961336a610399565b6001600160a01b039093168352565b60006020830152600060408301526060820152600060808201524260a0820152600060c0820152600060e08201526133b0876109eb565b613149565b6133bf8286614718565b61340f73__$201c89f77ed6c9689777296c0c34c66894$__60406133e7600561259a8a6109eb565b815163de8f319b60e01b81526001600160a01b03909116600482015292839081906024820190565b0381845af49081156106bb576000926000926135a9575b50602061346b929360405180948192632fa1b5f360e21b83528c7f00000000000000000000000000000000000000000000000000000000000000009160048501612564565b0381845af49081156106bb576134b293604093600093613588575b50835180958194829363858c3e3f60e01b84526004840160209093929193604081019460020b81520152565b03915af49081156106bb576134d5938693600092600094613551575b5088614c87565b5160208101516040808301516060840151608085015160a086015160c087015160e09097015194516001600160a01b03988916988a16977fb5e79bbaf3cd0f076c304961a130dfe4d2714060e842b86e67e4947b4026fca297919687966135459642969295939490919089613258565b0390a361046281612587565b90935061357791925060403d604011613581575b61356f8183610369565b81019061323e565b91909192386134ce565b503d613565565b6135a291935060203d6020116106b4576106a58183610369565b9138613486565b6020935061346b92506135d39060403d6040116135dd575b6135cb8183610369565b81019061321b565b9390939250613426565b503d6135c1565b506064602083015111613339565b6040516323b872dd60e01b602082019081526001600160a01b039384166024830152939092166044830152606482019390935260009283929091839061363b816084810161247f565b51925af1613647611e00565b81613680575b501561365557565b60405162461bcd60e51b815260206004820152600360248201526229aa2360e91b6044820152606490fd5b8051801592508215613695575b50503861364d565b6136a8925060208091830101910161242f565b388061368d565b600160f91b815260406020820181905261046292910190612322565b6104629163ffffffff825116815260208201516020820152604082015160408201526060820151606082015260c0613727613715608085015160e0608086015260e0850190612322565b60a085015184820360a0860152612322565b9201519060c0818403910152612322565b919060206132de6000926040865260408601906136cb565b606403906064821161119957565b9190820391821161119957565b91906080838203126102be5760405190613784826102f7565b8193805183526020810151916001600160401b03831683036102be5760406121149281946020870152016122e6565b909160e0828403126102be576137c9838361376b565b926137d781608085016122e6565b9260c0810151906001600160401b0382116102be57016040818303126102be576040519161380483610333565b815168ffffffffffffffffff811681036102be57835260208201516001600160401b0381116102be576138379201611e65565b602082015290565b91939261386e6138596060936080865260808601906136cb565b95602085019060208091805184520151910152565b6001600160a01b0316910152565b9363ffffffff851615613a665781156117725761247f906138f0906138e16138b46001600160a01b0387165b6001600160a01b031690565b604080516001600160a01b03998a166020820152908101939093529686166060830152816080810161247f565b604051928391602083016136af565b6139006138fb61505e565b61507a565b61391461390c84612929565b6103e8900490565b946139206121aa61038a565b602087015260408601948386526060870152608086015260a0850152613944611deb565b60c085015260408051633b6f743b60e01b81527f00000000000000000000000000000000000000000000000000000000000000006001600160a01b031692909182806139938960048301613738565b0381865afa9182156106bb57600092613a45575b5081518111156122d5576139bc82518261375e565b7f0000000000000000000000000000000000000000000000000000000000000000116122d557613a13956000956139f484518461375e565b905260405163cbef2aa960e01b8152968795869485936004850161383f565b03925af180156106bb57613a245750565b613a40903d806000833e613a388183610369565b8101906137b3565b505050565b613a5f91925060403d604011611c9957611c918183610369565b90386139a7565b6369c173a560e01b60005260046000fd5b90600090602c116115da5750600c013590565b90600090600c116115da57506008013560e01c90565b919060009281604c11613ac357919250610462913691604b190190604c01610410565b8380fd5b60a0810193929160809190613adc6002610da9565b60028252602082015260006040820152600060608201520152565b63ffffffff60809295949360a0830196613b116002610da9565b600284526020840152600060408401521660608201520152565b9192909260009380156106c057613b41816123b5565b60006020613bfc7f00000000000000000000000000000000000000000000000000000000000000006001600160a01b03167f0000000000000000000000000000000000000000000000000000000000000000613b9e868383612444565b613ba96105cb61038a565b6001600160a01b03891681850152610bb860408201526001600160a01b03871660608201528560808201528460a08201528460c08201526040519485809481936304e45aaf60e01b835260048301611caf565b03925af160009181613e3e575b50613e035750613c1881615189565b613c2a6001600160a01b0383166138a8565b91613c3361038a565b63ffffffff85168152926020840152604083019282845260006060820152613c59611deb565b6080820152613c66611deb565b60a0820152613c73611deb565b60c082015260408051633b6f743b60e01b8152947f00000000000000000000000000000000000000000000000000000000000000006001600160a01b031692918680613cc28560048301613738565b0381865afa9586156106bb57600096613de2575b508551851115613d7c575b9185858593600095613cf7613d169a518461375e565b905260405163cbef2aa960e01b8152988995869485936004850161383f565b03925af19283156106bb5760008051602061617a83398151915293613d61575b506040516001600160a01b03918216959091169390918291613d5b9142919084613af7565b0390a390565b613d75903d806000833e613a388183610369565b5050613d36565b91600080808088885af1613d8e611e00565b501561147a57604051613d169660009486949192889291906001600160a01b0380881691908e169060008051602061617a8339815191529080613dd2428983613ac7565b0390a39395509350509550613ce1565b613dfc91965060403d604011611c9957611c918183610369565b9438613cd6565b60405190955061046294936001600160a01b039384169385169260008051602061617a8339815191529291829161066e9142918b9085611f07565b613e5891925060203d6020116106b4576106a58183610369565b9038613c09565b906080828203126102be576104629161376b565b613e7d6001610da9565b805460ff60a01b1916600160a01b179055565b6001600160a01b0381166000818152600960209081526040808320805460ff60a01b1916600160a11b1790556003909152902090929190613ed0906153f7565b6004613edb836109d1565b01549260e06002613eeb856109d1565b01546005613ef8866109d1565b015495613f7c613f0c600561259a896109eb565b604051635990bb1560e11b81526001600160a01b03808a1660048301527f000000000000000000000000000000000000000000000000000000000000000081166024830152604482019490945260648101949094526084840198909852961660a4820152948590819060c4820190565b038173__$201c89f77ed6c9689777296c0c34c66894$__5af49081156106bb5761411386927fb5e79bbaf3cd0f076c304961a130dfe4d2714060e842b86e67e4947b4026fca29261415697600092614184575b5061407390613fde83516123b5565b61014087018051909390614039906001600160a01b03166140006105cb610399565b600060208201526000604082015260646060820152600060808201524260a0820152600060c0820152600060e08201526133b08b6109eb565b805161404c60208301918251908c6149df565b5190805161406c60c061406360a085015160020b90565b93015160020b90565b928b614c87565b8051614106906001600160a01b03166140fd60016140908a6109eb565b015461094d8a6140b2600661093f6140ac600561259a866109eb565b936109eb565b926140cd6140be610399565b6001600160a01b039097168752565b60016020870152604086015260646060860152600060808601524260a08601526001600160a01b031660c0850152565b6133b0886109eb565b516001600160a01b031690565b835160208501516040808701516060880151608089015160a08a015160c0909a015193516001600160a01b0390971699879661066e964296959294929189613258565b6040514281527f1a75fadb9e46cd999f5809fecff892a7d44b9844204727ca92b6c1e279a4033090602090a2565b6140739192506141ab9060e03d60e0116141b2575b6141a38183610369565b8101906154b9565b9190613fcf565b503d614199565b9060026141c5836109d1565b01546141fe61390c6141dd61390c6004548095612941565b926141f860026141ec886109d1565b01549160055490611dde565b90612941565b90600161420a856109d1565b015442111561421e5750506102df91613e90565b61422a611908856109d1565b61423381610da9565b15908161429c575b501561425457505061424f6102df916109d1565b613e73565b6001614262611908856109d1565b61426b81610da9565b149081614285575b5061427c575050565b6102df91613e90565b90506005614292846109d1565b0154101538614273565b905060056142a9856109d1565b015410153861423b565b95919461430f610100989561430161432b966142f39c9e9d9c6143399a6142e561431d986101208f8181520190612322565b8d810360208f015290612322565b908b820360408d0152612322565b9089820360608b0152612322565b908782036080890152612322565b9085820360a0870152612322565b9083820360c0850152612322565b6001600160a01b0390951660e08201520152565b9061436060209282815194859201611e42565b0190565b8051614440916144279161443b906001600160a01b031660405160609190911b6bffffffffffffffffffffffff191660208201908152426034830152906143ae816054810161247f565b5190209161442d610b56916143c5602084016103e7565b92808452615624602085013961441760208201519161247f60408201519160608101519460808201519160a081015160c08201519061010060e084015193015194604051998a98309660208b016142b3565b604051958693602085019061434d565b9061434d565b03601f198101845283610369565b615531565b600b80546001600160a01b0319166001600160a01b03831617905590565b908160809103126102be5760006040519160808301918383106001600160401b0384111761031257606092604052815184526020820151602085015260408201516040850152500151606082015290565b9060e06006916144c860018060a01b0382511685612e64565b6144fb60208201516144d981610da9565b6144e281610da9565b855460ff60a01b191660a09190911b60ff60a01b161790565b845560408101516001850155606081015160028501556080810151600385015560a0810151600485015560c081015160058501550151910155565b610100810196959460e0949193909261454f6000610da9565b6000855260006020860152600060408601526060850152608084015260a083015260c08201520152565b604051634209e86960e01b8152600480820193909352602481018490529154604483015260055460648301526006546084830152939192909160808360a48173__$201c89f77ed6c9689777296c0c34c66894$__5af49182156106bb5760008051602061619a8339815191529360009361468a575b508061465a6146006126c89342611dde565b8551602087015190614610610399565b6001600160a01b03881681529261462960208501611db0565b60408401526060830152886080830152600060a0830152600060c083015260e0820152614655896109d1565b6144af565b606061466885519242611dde565b9401516040516001600160a01b03948516989094169693948594429386614536565b6126c89193506146b19060803d6080116146b8575b6146a98183610369565b81019061445e565b92906145ee565b503d61469f565b6001600160a01b0391821681529116602082015260400190565b908160209103126102be5751610462816102c3565b6001600160a01b039182168152911660208201526040810191909152606081019190915260800190565b6001600160a01b0361472e600561259a846109eb565b166149ce576040805163fb27c5a560e01b8152929073__$201c89f77ed6c9689777296c0c34c66894$__9084806147897f000000000000000000000000000000000000000000000000000000000000000087600484016146bf565b0381845af49081156106bb5760009460009261499a575b5060405163a167129560e01b81526001600160a01b03808716600483015283166024820152610bb86044820152936020858060648101038160007f00000000000000000000000000000000000000000000000000000000000000006001600160a01b03165af19485156106bb57600095614979575b5061482b856005614825846109eb565b01612e64565b6040516370a0823160e01b8152306004820152936001600160a01b03919091169290602085602481875afa9081156106bb5760209560009261495a575b506001600160a01b03881685036149535781945b6001600160a01b0384160361494b5750955b6148ae6040519788958694859463121bf71b60e11b8652600486016146ee565b03915af49182156106bb5760009261491a575b506001600160a01b0316803b156102be5760405163f637731d60e01b81526001600160a01b039290921660048301526000908290602490829084905af180156106bb5761490b5750565b8061149a60006102df93610369565b61493d91925060203d602011614944575b6149358183610369565b8101906146d9565b90386148c1565b503d61492b565b90509561488e565b809461487c565b614972919250863d88116106b4576106a58183610369565b9038614868565b61499391955060203d602011614944576149358183610369565b9338614815565b9094506149bf915060403d6040116149c7575b6149b78183610369565b810190611f3b565b9093386147a0565b503d6149ad565b633bfd12b560e01b60005260046000fd5b9091906001600160a01b036149f8600561259a846109eb565b166149ce576040805163fb27c5a560e01b8152939073__$201c89f77ed6c9689777296c0c34c66894$__908580614a537f000000000000000000000000000000000000000000000000000000000000000087600484016146bf565b0381845af480156106bb57600095600091614bbc575b5060405163a167129560e01b81526001600160a01b03808816600483015282166024820152610bb86044820152946020868060648101038160007f00000000000000000000000000000000000000000000000000000000000000006001600160a01b03165af19586156106bb57600096614b9b575b50614aee866005614825886109eb565b80614b9357506040516370a0823160e01b8152306004820152936020856024816001600160a01b0385165afa80156106bb57602095600091614b76575b50905b6001600160a01b039081169490881685036149535781946001600160a01b0384160361494b5750956148ae6040519788958694859463121bf71b60e11b8652600486016146ee565b614b8d9150863d88116106b4576106a58183610369565b38614b2b565b602094614b2e565b614bb591965060203d602011614944576149358183610369565b9438614ade565b9050614bd891955060403d6040116149c7576149b78183610369565b94909438614a69565b91908260809103126102be57815160208301519092906001600160801b03811681036102be57916060604083015192015190565b81516102df92600391614c31906001600160a01b031684612e64565b60208101516001840180546001600160801b0319166001600160801b03929092169190911790556040810151614c73906001600160a01b031660028501612e64565b606001516001600160a01b03169101612e64565b9290919493614c98611908856109eb565b61504d5782158015615045575b611772576040805163fb27c5a560e01b815296908780614ce97f000000000000000000000000000000000000000000000000000000000000000089600484016146bf565b038173__$201c89f77ed6c9689777296c0c34c66894$__5af49384156106bb576000978895615008575b5060009493608093614e9e9391928a926001600160a01b038a811692614ddd929091861684036150015781935b6001600160a01b038b16148b14614ff95750925b7f00000000000000000000000000000000000000000000000000000000000000006001600160a01b031695614dd490614d8e858989612444565b614d9986898d612444565b614db3614da46103c8565b6001600160a01b039098168852565b6001600160a01b038b166020880152610bb8604088015260020b6060870152565b60020b84880152565b60a0830190815260c0830191825260e08301888152610100840189815230610120860190815242610140870190815260408051634418b22b60e11b815288516001600160a01b03908116600483015260208a0151811660248301529189015162ffffff1660448201526060890151600290810b606483015260809099015190980b6084890152945160a4880152945160c4870152915160e4860152516101048501525116610124830152516101448201529485928391908290610164820190565b03925af19081156106bb57600092600092614fc1575b506001600160801b038216938415614fb0576102df96614f7b614f9b94836003614f4f614f49614f42614fab9c8c6001614ef0614f8b9c6109eb565b0155614f21876006614f01896109eb565b0180546001600160801b0319166001600160801b03909216919091179055565b614f2d613e7d876109eb565b6141f86002614f3b886109eb565b0154613750565b6064900490565b926109eb565b0155614f6b614f5c6103d8565b6001600160a01b03909a168a52565b6001600160801b03166020890152565b6001600160a01b03166040870152565b6001600160a01b03166060850152565b6000526008602052604060002090565b614c15565b636799c89b60e01b60005260046000fd5b909250614fe6915060803d608011614ff2575b614fde8183610369565b810190614be1565b50509190919038614eb4565b503d614fd4565b905092614d54565b8093614d40565b614ddd98506000955091608093615033614e9e9460409794973d6040116149c7576149b78183610369565b909a5096509194919350915087614d13565b508515614ca5565b63084d5d2d60e41b60005260046000fd5b604051600360f01b602082015260028152610462602282610369565b600361ffff61508883615576565b16036151685760405160006020820152610c3560861b602282015260128152906150b3603283610369565b600361ffff6150c183615576565b160361516857815161ffff811161514f5761ffff60019116019161ffff83116111995761046291602060049260405195836151058895518092868089019101611e42565b840190600160f81b8483015261ffff60f01b9060f01b166021820152600360f81b602382015261513e8251809385602485019101611e42565b01010301601f198101835282610369565b6306dfcc6560e41b600052601060045260245260446000fd5b61517461ffff91615576565b633a51740d60e01b6000521660045260246000fd5b7f00000000000000000000000000000000000000000000000000000000000000006001600160a01b0316803b156102be5760405191632e1a7d4d60e01b83528260248160008095819560048401525af1918261241f57509061241c5763cfd8bd6360e01b8152600490fd5b8034036151fe5790565b6304fb820960e51b6000523460045260246000fd5b60405163393f876560e21b81527f00000000000000000000000000000000000000000000000000000000000000006001600160a01b03169190602081600481865afa9081156106bb57600091615336575b506001600160a01b0316918215615325576040516323b872dd60e01b602082019081523360248301526001600160a01b03909216604482015260648101929092526152d09160009182916152bb816084810161247f565b519082865af16152c9611e00565b90836155c2565b8051908115159182615303575b50506152e65750565b635274afe760e01b6000526001600160a01b031660045260246000fd5b61531e92509060208061531a93830101910161242f565b1590565b38806152dd565b6329b99a9560e11b60005260046000fd5b61534f915060203d602011614944576149358183610369565b38615264565b906040519182600082549261536984612d07565b80845293600181169081156153d5575060011461538e575b506102df92500383610369565b90506000929192526020600020906000915b8183106153b95750509060206102df9282010138615381565b60209193508060019154838589010152019101909184926153a0565b9050602092506102df94915060ff191682840152151560051b82010138615381565b906102df6154a8600a6154086103c8565b9461541281615355565b865261542060018201615355565b602087015261543160028201615355565b604087015261544260038201615355565b606087015261545360048201615355565b608087015261546460058201615355565b60a087015261547560068201615355565b60c0870152600781015460e08701526008810154610100870152600981015461012087015201546001600160a01b031690565b6001600160a01b0316610140840152565b908160e09103126102be5761552960c0604051926154d68461034e565b805184526020810151602085015260408101516154f2816102c3565b60408501526155036060820161320d565b60608501526080810151608085015261551e60a0820161320d565b60a08501520161320d565b60c082015290565b90805115615565576020815191016000f5906001600160a01b0382161561555457565b633a0ba96160e11b60005260046000fd5b631328927760e21b60005260046000fd5b6002815110615586576002015190565b60405162461bcd60e51b8152602060048201526014602482015273746f55696e7431365f6f75744f66426f756e647360601b6044820152606490fd5b906155e857508051156155d757805190602001fd5b630a12f52160e11b60005260046000fd5b8151158061561a575b6155f9575090565b639996b31560e01b60009081526001600160a01b0391909116600452602490fd5b50803b156155f156fe60806040523461046c57610b568038038061001981610471565b92833981016101208282031261046c5781516001600160401b03811161046c5781610045918401610496565b60208301519092906001600160401b03811161046c5782610067918301610496565b60408201519092906001600160401b03811161046c5781610089918401610496565b5060608201516001600160401b03811161046c57816100a9918401610496565b5060808201516001600160401b03811161046c57816100c9918401610496565b5060a08201516001600160401b03811161046c57816100e9918401610496565b5060c0820151906001600160401b03821161046c57610109918301610496565b5060e08101516001600160a01b038116919082900361046c57610100015183516001600160401b03811161037557600354600181811c91168015610462575b602082101461035557601f81116103fd575b50602094601f82116001146103965794819293949560009261038b575b50508160011b916000199060031b1c1916176003555b82516001600160401b03811161037557600454600181811c9116801561036b575b602082101461035557601f81116102f0575b506020601f8211600114610289578192939460009261027e575b50508160011b916000199060031b1c1916176004555b811561026857600254818101809111610252576002557fddf252ad1be2c89b69c2b068fc378daa952ba7f163c4a11628f55a4df523b3ef602060009284845283825260408420818154019055604051908152a360405161065490816105028239f35b634e487b7160e01b600052601160045260246000fd5b63ec442f0560e01b600052600060045260246000fd5b0151905038806101da565b601f198216906004600052806000209160005b8181106102d8575095836001959697106102bf575b505050811b016004556101f0565b015160001960f88460031b161c191690553880806102b1565b9192602060018192868b01518155019401920161029c565b60046000527f8a35acfbc15ff81a39ae7d344fd709f28e8600b4aa8c65c6b64bfe7fe36bd19b601f830160051c8101916020841061034b575b601f0160051c01905b81811061033f57506101c0565b60008155600101610332565b9091508190610329565b634e487b7160e01b600052602260045260246000fd5b90607f16906101ae565b634e487b7160e01b600052604160045260246000fd5b015190503880610177565b601f198216956003600052806000209160005b8881106103e5575083600195969798106103cc575b505050811b0160035561018d565b015160001960f88460031b161c191690553880806103be565b919260206001819286850151815501940192016103a9565b60036000527fc2575a0e9e593c00f959f8c92f12db2869c3395a3b0502d05e2516446f71f85b601f830160051c81019160208410610458575b601f0160051c01905b81811061044c575061015a565b6000815560010161043f565b9091508190610436565b90607f1690610148565b600080fd5b6040519190601f01601f191682016001600160401b0381118382101761037557604052565b81601f8201121561046c578051906001600160401b038211610375576104c5601f8301601f1916602001610471565b928284526020838301011161046c5760005b8281106104ec57505060206000918301015290565b806020809284010151828287010152016104d756fe608080604052600436101561001357600080fd5b60003560e01c90816306fdde031461041157508063095ea7b31461038b57806318160ddd1461036d57806323b872dd14610280578063313ce5671461026457806370a082311461022a57806395d89b4114610109578063a9059cbb146100d85763dd62ed3e1461008257600080fd5b346100d35760403660031901126100d35761009b61052d565b6100a3610543565b6001600160a01b039182166000908152600160209081526040808320949093168252928352819020549051908152f35b600080fd5b346100d35760403660031901126100d3576100fe6100f461052d565b6024359033610559565b602060405160018152f35b346100d35760003660031901126100d35760405160006004548060011c90600181168015610220575b60208310811461020c578285529081156101f05750600114610199575b50819003601f01601f191681019067ffffffffffffffff8211818310176101835761017f829182604052826104e4565b0390f35b634e487b7160e01b600052604160045260246000fd5b600460009081529091507f8a35acfbc15ff81a39ae7d344fd709f28e8600b4aa8c65c6b64bfe7fe36bd19b5b8282106101da5750602091508201018261014f565b60018160209254838588010152019101906101c5565b90506020925060ff191682840152151560051b8201018261014f565b634e487b7160e01b84526022600452602484fd5b91607f1691610132565b346100d35760203660031901126100d3576001600160a01b0361024b61052d565b1660005260006020526020604060002054604051908152f35b346100d35760003660031901126100d357602060405160128152f35b346100d35760603660031901126100d35761029961052d565b6102a1610543565b6001600160a01b03821660008181526001602081815260408084203385529091529091205491936044359392909181016102e1575b506100fe9350610559565b83811061035057841561033a573315610324576100fe946000526001602052604060002060018060a01b03331660005260205283604060002091039055846102d6565b634a1406b160e11b600052600060045260246000fd5b63e602df0560e01b600052600060045260246000fd5b8390637dc7a0d960e11b6000523360045260245260445260646000fd5b346100d35760003660031901126100d3576020600254604051908152f35b346100d35760403660031901126100d3576103a461052d565b60243590331561033a576001600160a01b031690811561032457336000526001602052604060002082600052602052806040600020556040519081527f8c5be1e5ebec7d5bd14f71427d1e84f3dd0314c0f7b2291e5b200ac8c7c3b92560203392a3602060405160018152f35b346100d35760003660031901126100d35760006003548060011c906001811680156104da575b60208310811461020c578285529081156101f057506001146104835750819003601f01601f191681019067ffffffffffffffff8211818310176101835761017f829182604052826104e4565b600360009081529091507fc2575a0e9e593c00f959f8c92f12db2869c3395a3b0502d05e2516446f71f85b5b8282106104c45750602091508201018261014f565b60018160209254838588010152019101906104af565b91607f1691610437565b91909160208152825180602083015260005b818110610517575060409293506000838284010152601f8019910116010190565b80602080928701015160408286010152016104f6565b600435906001600160a01b03821682036100d357565b602435906001600160a01b03821682036100d357565b6001600160a01b0316908115610608576001600160a01b03169182156105f25760008281528060205260408120548281106105d85791604082827fddf252ad1be2c89b69c2b068fc378daa952ba7f163c4a11628f55a4df523b3ef958760209652828652038282205586815280845220818154019055604051908152a3565b916064928463391434e360e21b8452600452602452604452fd5b63ec442f0560e01b600052600060045260246000fd5b634b637e8f60e11b600052600060045260246000fdfea2646970667358221220a4c213b395b311e8a4828cbedf8ea28de1570b530c24e2b364cbbae8718af35a64736f6c634300081a0033c2c8c3d853b6a3c59312403a77c06fd4d1c5e2aecc097dccfeece8ae3db5a95d30b19e94ab97c04dbfab7b176a2ce44543029c6fb3847798f551abe39e215f25a26469706673582212200d915533eec1f2ff7e5ff01433716639705dd079ff5e82fa876e184224b05d4b64736f6c634300081a0033","linkReferences":{"src/kannon_v1_library.sol":{"KannonV1Library":[{"start":10667,"length":20},{"start":11783,"length":20},{"start":14215,"length":20},{"start":17219,"length":20},{"start":18813,"length":20},{"start":19208,"length":20},{"start":19922,"length":20},{"start":20656,"length":20}]}}},"methodIdentifiers":{"LIQUIDITY_LOCK_PERIOD()":"8a88c670","MIN_AMOUNT()":"ddbcb5fa","WETH9()":"4aa4a4fc","allowInitializePath((uint32,bytes32,uint64))":"ff7bd03d","claimTokens(address)":"df8de3e7","composeMsgSender()":"b92d0eff","createTokenAndAddLiquidity(((address,string,string,string,string,string,string,string,uint256),uint256,uint256))":"b8df9450","createTokenAndStartPresale(((address,string,string,string,string,string,string,string,uint256),uint256,uint256))":"63087d5c","deposits(uint256)":"b02c43d0","endpoint()":"5e280f11","endpointV2()":"797b7f6b","factory()":"c45a0155","getLastCreatedToken()":"bfa126bb","getLaunchInfo(address)":"6e091825","getTokenInfo(address)":"1f69565f","lzCompose(address,bytes32,bytes,address,bytes)":"d0a10260","lzReceive((uint32,bytes32,uint64),bytes32,bytes,address,bytes)":"13137d65","nextNonce(uint32,bytes32)":"7d25a05e","nonfungiblePositionManager()":"b44a2722","oAppVersion()":"17442b70","onERC721Received(address,address,uint256,bytes)":"150b7a02","owner()":"8da5cb5b","participateInPresale(address)":"4fc71341","peers(uint32)":"bb0b6a53","poolFee()":"089fe6aa","presaleRatios()":"9658a090","quote(uint32,address,bytes,bytes,bool)":"049feaeb","renounceOwnership()":"715018a6","sendMessage(uint32,address,bytes,bytes,(uint256,uint256))":"d262ec58","setDelegate(address)":"ca5eb5e1","setPeer(uint32,bytes32)":"3400288b","stargatePoolNative()":"6baf92dc","swapExactETHForTokens(address)":"11cc4b42","swapExactTokensForETH(address,uint256,uint32)":"bea94630","swapRouter02()":"7eaf1116","tokenInfo(address)":"f5dab711","tokenLaunchInfo(address)":"78d111ff","transferOwnership(address)":"f2fde38b","updatePresaleRatios(uint256,uint256,uint256)":"adc681c7","userPresale(address,address)":"24e9b8ab","version()":"54fd4d50"},"id":77}