{"abi":[{"type":"function","name":"calculateInitialSqrtPrice","inputs":[{"name":"token0","type":"address","internalType":"address"},{"name":"token1","type":"address","internalType":"address"},{"name":"amount0","type":"uint256","internalType":"uint256"},{"name":"amount1","type":"uint256","internalType":"uint256"}],"outputs":[{"name":"","type":"uint160","internalType":"uint160"}],"stateMutability":"view"},{"type":"function","name":"calculatePresaleInfo","inputs":[{"name":"initialSupply","type":"uint256","internalType":"uint256"},{"name":"ethTarget","type":"uint256","internalType":"uint256"},{"name":"presaleRatios","type":"tuple","internalType":"struct KannonV1Library.PresaleRatios","components":[{"name":"phase1Ratio","type":"uint256","internalType":"uint256"},{"name":"phase2Ratio","type":"uint256","internalType":"uint256"},{"name":"launchRatio","type":"uint256","internalType":"uint256"}]}],"outputs":[{"name":"","type":"tuple","internalType":"struct KannonV1Library.PresaleInfo","components":[{"name":"distributableSupply","type":"uint256","internalType":"uint256"},{"name":"k","type":"uint256","internalType":"uint256"},{"name":"initialPresaleDistributable","type":"uint256","internalType":"uint256"},{"name":"initialPrice","type":"uint256","internalType":"uint256"}]}],"stateMutability":"pure"},{"type":"function","name":"calculatePresaleParticipation","inputs":[{"name":"currentPhase","type":"KannonV1Library.LaunchPhase","internalType":"enum KannonV1Library.LaunchPhase"},{"name":"distributableSupply","type":"uint256","internalType":"uint256"},{"name":"ethTarget","type":"uint256","internalType":"uint256"},{"name":"totalPresoldTokens","type":"uint256","internalType":"uint256"},{"name":"ethCollected","type":"uint256","internalType":"uint256"},{"name":"k","type":"uint256","internalType":"uint256"},{"name":"msgValue","type":"uint256","internalType":"uint256"},{"name":"presaleRatios","type":"tuple","internalType":"struct KannonV1Library.PresaleRatios","components":[{"name":"phase1Ratio","type":"uint256","internalType":"uint256"},{"name":"phase2Ratio","type":"uint256","internalType":"uint256"},{"name":"launchRatio","type":"uint256","internalType":"uint256"}]}],"outputs":[{"name":"","type":"tuple","internalType":"struct KannonV1Library.PresaleParticipationResult","components":[{"name":"tokenAmount","type":"uint256","internalType":"uint256"},{"name":"ethToUse","type":"uint256","internalType":"uint256"},{"name":"refund","type":"uint256","internalType":"uint256"}]}],"stateMutability":"view"},{"type":"function","name":"calculatePriceFromSqrtPriceX96","inputs":[{"name":"sqrtPriceX96","type":"uint160","internalType":"uint160"},{"name":"tokenAddress","type":"address","internalType":"address"},{"name":"WETH9","type":"address","internalType":"address"}],"outputs":[{"name":"","type":"uint256","internalType":"uint256"}],"stateMutability":"pure"},{"type":"function","name":"calculateTickRange","inputs":[{"name":"currentTick","type":"int24","internalType":"int24"},{"name":"currentPrice","type":"uint256","internalType":"uint256"}],"outputs":[{"name":"tickLower","type":"int24","internalType":"int24"},{"name":"tickUpper","type":"int24","internalType":"int24"}],"stateMutability":"pure"},{"type":"function","name":"getCurrentPrice","inputs":[{"name":"tokenAddress","type":"address","internalType":"address"},{"name":"WETH9","type":"address","internalType":"address"},{"name":"pool","type":"address","internalType":"address"}],"outputs":[{"name":"","type":"uint256","internalType":"uint256"}],"stateMutability":"view"},{"type":"function","name":"getLiquidityAfterPresaleData","inputs":[{"name":"tokenAddress","type":"address","internalType":"address"},{"name":"WETH9","type":"address","internalType":"address"},{"name":"ethCollected","type":"uint256","internalType":"uint256"},{"name":"distributableSupply","type":"uint256","internalType":"uint256"},{"name":"totalPresoldTokens","type":"uint256","internalType":"uint256"},{"name":"pool","type":"address","internalType":"address"}],"outputs":[{"name":"","type":"tuple","internalType":"struct KannonV1Library.LiquidityAfterPresaleData","components":[{"name":"ethAmount","type":"uint256","internalType":"uint256"},{"name":"tokenAmount","type":"uint256","internalType":"uint256"},{"name":"sqrtPriceX96","type":"uint160","internalType":"uint160"},{"name":"tick","type":"int24","internalType":"int24"},{"name":"currentPrice","type":"uint256","internalType":"uint256"},{"name":"lower","type":"int24","internalType":"int24"},{"name":"upper","type":"int24","internalType":"int24"}]}],"stateMutability":"view"},{"type":"function","name":"getPoolLiquidity","inputs":[{"name":"pool","type":"address","internalType":"address"}],"outputs":[{"name":"","type":"uint128","internalType":"uint128"}],"stateMutability":"view"},{"type":"function","name":"getPoolReserves","inputs":[{"name":"tokenAddress","type":"address","internalType":"address"},{"name":"WETH9","type":"address","internalType":"address"},{"name":"pool","type":"address","internalType":"address"}],"outputs":[{"name":"tokenReserve","type":"uint256","internalType":"uint256"},{"name":"ethReserve","type":"uint256","internalType":"uint256"}],"stateMutability":"view"},{"type":"function","name":"getPoolSlot0","inputs":[{"name":"pool","type":"address","internalType":"address"}],"outputs":[{"name":"","type":"uint160","internalType":"uint160"},{"name":"","type":"int24","internalType":"int24"}],"stateMutability":"view"},{"type":"function","name":"getTokenBalance","inputs":[{"name":"tokenAddress","type":"address","internalType":"address"},{"name":"account","type":"address","internalType":"address"}],"outputs":[{"name":"","type":"uint256","internalType":"uint256"}],"stateMutability":"view"},{"type":"function","name":"getTokenUpdateData","inputs":[{"name":"tokenAddress","type":"address","internalType":"address"},{"name":"WETH9","type":"address","internalType":"address"},{"name":"pool","type":"address","internalType":"address"}],"outputs":[{"name":"","type":"tuple","internalType":"struct KannonV1Library.TokenUpdateData","components":[{"name":"sqrtPriceX96","type":"uint160","internalType":"uint160"},{"name":"tokenPrice","type":"uint256","internalType":"uint256"},{"name":"ethReserve","type":"uint256","internalType":"uint256"},{"name":"tokenReserve","type":"uint256","internalType":"uint256"},{"name":"totalSupply","type":"uint256","internalType":"uint256"}]}],"stateMutability":"view"},{"type":"function","name":"orderTokens","inputs":[{"name":"tokenAddress","type":"address","internalType":"address"},{"name":"WETH9","type":"address","internalType":"address"}],"outputs":[{"name":"token0","type":"address","internalType":"address"},{"name":"token1","type":"address","internalType":"address"}],"stateMutability":"pure"},{"type":"error","name":"InvalidToken","inputs":[]},{"type":"error","name":"InvalidTokenOrder","inputs":[]},{"type":"error","name":"KannonV1_AmountMustBe21e14","inputs":[]},{"type":"error","name":"KannonV1_DeadlineReached","inputs":[]},{"type":"error","name":"KannonV1_ExceedsAvailableTokens","inputs":[]},{"type":"error","name":"KannonV1_InsufficientFunds","inputs":[]},{"type":"error","name":"KannonV1_InsufficientFundsForCrossMessage","inputs":[]},{"type":"error","name":"KannonV1_InvalidInput","inputs":[]},{"type":"error","name":"KannonV1_InvalidOperation","inputs":[]},{"type":"error","name":"KannonV1_InvalidParameters","inputs":[]},{"type":"error","name":"KannonV1_InvalidPhase","inputs":[]},{"type":"error","name":"KannonV1_LiquidityError","inputs":[]},{"type":"error","name":"KannonV1_PoolNotInitialized","inputs":[]},{"type":"error","name":"KannonV1_PresaleNotComplete","inputs":[]},{"type":"error","name":"KannonV1_TimingConstraint","inputs":[]},{"type":"error","name":"KannonV1_TransferFailed","inputs":[]},{"type":"error","name":"KannonV1_Unauthorized","inputs":[]},{"type":"error","name":"KannonV1_WETH9Failed","inputs":[]},{"type":"error","name":"SqrtPriceOutOfBounds","inputs":[]},{"type":"error","name":"ZeroAmount","inputs":[]}],"bytecode":{"object":"0x60808060405234601957611011908161001f823930815050f35b600080fdfe6080604052600436101561001257600080fd5b60003560e01c80632437ee36146109c257806327f6188e1461083b5780634209e869146107145780634d5692d71461067657806379e4e4ac14610643578063858c3e3f1461060957806387c786ce14610364578063932d3dad14610329578063b321762a14610207578063be86d7cc146101c4578063c489744b14610126578063de8f319b146100ef5763fb27c5a5146100ab57600080fd5b60403660031901126100ea5760406100d26100c4610b69565b6100cc610b7f565b90610fc0565b82516001600160a01b03928316815291166020820152f35b600080fd5b60203660031901126100ea57604061010d610108610b69565b610eb7565b82516001600160a01b03909216825260020b6020820152f35b60403660031901126100ea5761013a610b69565b6020610144610b7f565b6040516370a0823160e01b81526001600160a01b0391821660048201529283916024918391165afa80156101b857600090610185575b602090604051908152f35b506020813d6020116101b0575b8161019f60209383610c31565b810103126100ea576020905161017a565b3d9150610192565b6040513d6000823e3d90fd5b60603660031901126100ea576004356001600160a01b03811681036100ea576101ff6020916101f1610b7f565b6101f9610b95565b91610e2c565b604051908152f35b60c03660031901126100ea5761021b610b69565b610223610b7f565b906044359060a4356001600160a01b03811681036100ea5760e093600060c060405161024e81610c15565b8281528260208201528260408201528260608201528260808201528260a0820152015261029461028b610285608435606435610d18565b93610eb7565b92909485610e2c565b9061029f8282610f2d565b94909360c06040516102b081610c15565b88815260208101928352604081019360018060a01b03168452606081019460020b85526080810195865260a081019660020b8752019560020b865260405196875251602087015260018060a01b0390511660408601525160020b60608501525160808401525160020b60a08301525160020b60c0820152f35b60603660031901126100ea576040610358610342610b69565b61034a610b7f565b610352610b95565b91610d25565b82519182526020820152f35b6101403660031901126100ea5760043560038110156100ea57602435906064359060843560443560c43560a43560603660e31901126100ea57604051906103aa82610bf9565b60e43582526101043560208301526101243560408301526000604080516103d081610bf9565b828152826020820152015260008395600097801560001461048557505050506104006060976103e8925190610c53565b0461041e610417846104128486610c53565b610c66565b9682610d18565b9283871161045b575b505050505b6040805161043981610bf9565b8481526020810192835201918252604051928352516020830152516040820152f35b836104749497506104129293965061047b955096610c53565b8092610d18565b9084808080610427565b60019195949299939a9650146104a4575b50505050506060935061042c565b8497506104cf906103e86104c86104c0856104d5979899610d18565b92518b610c53565b0490610d18565b96610d18565b604051631d63af6160e31b815260048101849052602481018290526044810183905260648101889052959073__$680a3aa27bb83dad4211fc4f6293c7bf8b$__90602088608481855af49788156101b8576000986105d5575b50828811156104965760405163efb5d8f760e01b8152600481019590955260248501526044840182905260648401979097529195919450925060209150849060849082905af49283156101b85760009361059c575b506105918360609492610d18565b908480808080610496565b926020843d6020116105cd575b816105b660209383610c31565b810103126105ca5750915191610591610583565b80fd5b3d91506105a9565b90976020823d602011610601575b816105f060209383610c31565b810103126105ca575051968961052e565b3d91506105e3565b60403660031901126100ea576004358060020b81036100ea5761063160409160243590610f2d565b82519160020b825260020b6020820152f35b60603660031901126100ea5760206101ff61065c610b69565b610664610b7f565b90610670610108610b95565b50610e2c565b60203660031901126100ea57600460206001600160a01b03610696610b69565b1660405192838092630d34328160e11b82525afa9081156101b8576000916106cd575b6040516001600160801b0383168152602090f35b6020813d60201161070c575b816106e660209383610c31565b8101031261070857516001600160801b038116810361070857905060206106b9565b5080fd5b3d91506106d9565b60a03660031901126100ea5760243560043560603660431901126100ea5760405161073e81610bf9565b604435815261078260208201606435815260843560408401526000606060405161076781610bdd565b82815282602082015282604082015201528251905190610d0b565b91605f810290808204605f1490151715610825576107bd6103e86107b4866107af60648496049788610c53565b610c53565b04925184610c53565b046509184e72a0008402938085046509184e72a0001490151715610825576107e781608095610c66565b9160606040516107f681610bdd565b858152602081019283526040810193845201928352604051938452516020840152516040830152516060820152f35b634e487b7160e01b600052601160045260246000fd5b60603660031901126100ea5761084f610b69565b610857610b7f565b90610860610b95565b906000608060405161087181610bab565b828152826020820152826040820152826060820152015260405191633850c7bd60e01b835260e08360048160018060a01b0385165afa9283156101b857600093610987575b506108c2908483610d25565b6040516318160ddd60e01b8152926020846004816001600160a01b0385165afa9384156101b857600094610952575b5060a0956108ff9186610e2c565b60806040519561090e87610bab565b600180891b03169586815260208101928352604081019384526060810194855201938452604051948552516020850152516040840152516060830152516080820152f35b9093506020813d60201161097f575b8161096e60209383610c31565b810103126100ea57519260a06108f1565b3d9150610961565b6108c29193506109ae9060e03d60e0116109bb575b6109a68183610c31565b810190610c95565b50505050505092906108b6565b503d61099c565b60803660031901126100ea576109d6610b69565b6109de610b7f565b60643591604435916001600160a01b0390811691161015610b585780158015610b50575b610b3f57655af3107a4000820291808304655af3107a4000149015171561082557610a2c91610c66565b600181016000818311610b2b575060011c815b828210610b0c57606083901b8315600160601b85830414171561082557652d79883d2000655af3107a40005b808210610ad2576001600160a01b0392610a859250610c66565b166401000276a381108015610ab5575b610aa457602090604051908152f35b63582157bb60e01b60005260046000fd5b5073fffd8963efd1fc6a506488495d951d5263988d268111610a95565b508060008115610af8575080610aef91655af3107a400004610d0b565b60011c90610a6b565b634e487b7160e01b81526012600452602490fd5b909150610b2282610b1d8184610c66565b610d0b565b60011c90610a3f565b634e487b7160e01b81526011600452602490fd5b631f2a200560e01b60005260046000fd5b508115610a02565b633f06bf8160e01b60005260046000fd5b600435906001600160a01b03821682036100ea57565b602435906001600160a01b03821682036100ea57565b604435906001600160a01b03821682036100ea57565b60a0810190811067ffffffffffffffff821117610bc757604052565b634e487b7160e01b600052604160045260246000fd5b6080810190811067ffffffffffffffff821117610bc757604052565b6060810190811067ffffffffffffffff821117610bc757604052565b60e0810190811067ffffffffffffffff821117610bc757604052565b90601f8019910116810190811067ffffffffffffffff821117610bc757604052565b8181029291811591840414171561082557565b8115610c70570490565b634e487b7160e01b600052601260045260246000fd5b519061ffff821682036100ea57565b908160e09103126100ea5780516001600160a01b03811681036100ea579160208201518060020b81036100ea5791610ccf60408201610c86565b91610cdc60608301610c86565b91610ce960808201610c86565b9160a082015160ff811681036100ea5760c09092015180151581036100ea5790565b9190820180921161082557565b9190820391821161082557565b929190610d329084610fc0565b6040516370a0823160e01b81526001600160a01b0393841660048201819052919590939092169190602084602481865afa9384156101b857600094610df7575b506040516370a0823160e01b8152600481019190915294602090869060249082906001600160a01b03165afa9485156101b857600095610dc3575b506001600160a01b031603610dc0579190565b90565b90946020823d602011610def575b81610dde60209383610c31565b810103126105ca5750519338610dad565b3d9150610dd1565b90936020823d602011610e24575b81610e1260209383610c31565b810103126105ca575051926020610d72565b3d9150610e05565b916001600160a01b03808216929081168314610ea657610e6191610e4f91610fc0565b936001600160a01b0316905080610c53565b64174876e80081029080820464174876e80014901517156108255760c01c916001600160a01b031603610e915790565b8015610c705769021e19e0c9bab24000000490565b63c1ab6dc160e01b60005260046000fd5b604051633850c7bd60e01b8152919060e090839060049082906001600160a01b03165afa9182156101b857600090600093610ef157509190565b9050610f0d91925060e03d60e0116109bb576109a68183610c31565b505050505091909190565b603c9060020b02908160020b91820361082557565b9190600a8102818104600a14821517156108255760649004603c810290808204603c1490151715610825576103e891610f6591610c66565b60020b02918260020b9283036108255760020b91808303627fffff198112627fffff82131761082557603c610f9d9160020b05610f18565b9201627fffff8113627fffff1982121761082557603c610dc09160020b05610f18565b9091906001600160a01b038084169082161015610dc057919056fea264697066735822122018f32a76508a4a44ea34a6e3560b7a83111b81a38fdd0f5b5ef4dad1a7a0e85864736f6c634300081a0033","linkReferences":{"src/kannon_v1_bonding_curve.sol":{"BondingCurveLib":[{"start":1313,"length":20}]}}},"methodIdentifiers":{"calculateInitialSqrtPrice(address,address,uint256,uint256)":"2437ee36","calculatePresaleInfo(uint256,uint256,KannonV1Library.PresaleRatios)":"4209e869","calculatePresaleParticipation(KannonV1Library.LaunchPhase,uint256,uint256,uint256,uint256,uint256,uint256,KannonV1Library.PresaleRatios)":"87c786ce","calculatePriceFromSqrtPriceX96(uint160,address,address)":"be86d7cc","calculateTickRange(int24,uint256)":"858c3e3f","getCurrentPrice(address,address,address)":"79e4e4ac","getLiquidityAfterPresaleData(address,address,uint256,uint256,uint256,address)":"b321762a","getPoolLiquidity(address)":"4d5692d7","getPoolReserves(address,address,address)":"932d3dad","getPoolSlot0(address)":"de8f319b","getTokenBalance(address,address)":"c489744b","getTokenUpdateData(address,address,address)":"27f6188e","orderTokens(address,address)":"fb27c5a5"},"id":82}