{"abi":[{"type":"function","name":"PRECISION","inputs":[],"outputs":[{"name":"","type":"uint256","internalType":"uint256"}],"stateMutability":"view"},{"type":"function","name":"calculateEthAmountForTokens","inputs":[{"name":"totalEthCollected","type":"uint256","internalType":"uint256"},{"name":"tradeableTokens","type":"uint256","internalType":"uint256"},{"name":"tokenAmount","type":"uint256","internalType":"uint256"},{"name":"k","type":"uint256","internalType":"uint256"}],"outputs":[{"name":"ethAmount","type":"uint256","internalType":"uint256"}],"stateMutability":"view"},{"type":"function","name":"calculateTokenAmount","inputs":[{"name":"totalEthCollected","type":"uint256","internalType":"uint256"},{"name":"tradeableTokens","type":"uint256","internalType":"uint256"},{"name":"ethAmount","type":"uint256","internalType":"uint256"},{"name":"k","type":"uint256","internalType":"uint256"}],"outputs":[{"name":"tokenAmount","type":"uint256","internalType":"uint256"}],"stateMutability":"view"},{"type":"error","name":"InsufficientLiquidity","inputs":[]}],"bytecode":{"object":"0x608080604052346019576101e8908161001f823930815050f35b600080fdfe608080604052600436101561001357600080fd5b60003560e01c908163aaf5eb681461014a57508063eb1d7b08146100e15763efb5d8f71461004057600080fd5b61004936610167565b9190818110156100ba5761005c916101a5565b6305f5e1008202918083046305f5e10014901517156100cb5761007e91610185565b906305f5e1008102908082046305f5e10014901517156100cb57808211156100ba576100b16305f5e100916020936101a5565b04604051908152f35b63bb55fd2760e01b60005260046000fd5b634e487b7160e01b600052601160045260246000fd5b6100ea36610167565b91906305f5e1008302928084046305f5e10014901517156100cb57610118846101138486610185565b6101a5565b81116100ba5783018093116100cb576305f5e10061013b60209461014294610185565b04906101a5565b604051908152f35b600036600319011261016257806305f5e10060209252f35b600080fd5b60809060031901126101625760043590602435906044359060643590565b811561018f570490565b634e487b7160e01b600052601260045260246000fd5b919082039182116100cb5756fea264697066735822122017690ff3b483801415d547059aaab58fa3e36d6dea980999eb8c77fd90398e0f64736f6c634300081a0033","linkReferences":{}},"methodIdentifiers":{"PRECISION()":"aaf5eb68","calculateEthAmountForTokens(uint256,uint256,uint256,uint256)":"efb5d8f7","calculateTokenAmount(uint256,uint256,uint256,uint256)":"eb1d7b08"},"id":80}