{"abi":[{"type":"function","name":"PRECISION","inputs":[],"outputs":[{"name":"","type":"uint256","internalType":"uint256"}],"stateMutability":"view"},{"type":"function","name":"calculateEthAmountForTokens","inputs":[{"name":"totalEthCollected","type":"uint256","internalType":"uint256"},{"name":"tradeableTokens","type":"uint256","internalType":"uint256"},{"name":"tokenAmount","type":"uint256","internalType":"uint256"},{"name":"k","type":"uint256","internalType":"uint256"}],"outputs":[{"name":"ethAmount","type":"uint256","internalType":"uint256"}],"stateMutability":"view"},{"type":"function","name":"calculateTokenAmount","inputs":[{"name":"totalEthCollected","type":"uint256","internalType":"uint256"},{"name":"tradeableTokens","type":"uint256","internalType":"uint256"},{"name":"ethAmount","type":"uint256","internalType":"uint256"},{"name":"k","type":"uint256","internalType":"uint256"}],"outputs":[{"name":"tokenAmount","type":"uint256","internalType":"uint256"}],"stateMutability":"view"},{"type":"error","name":"InsufficientLiquidity","inputs":[]}],"bytecode":{"object":"0x6080806040523461001a5761024e9081610020823930815050f35b600080fdfe608060408181526004918236101561001657600080fd5b600090813560e01c908163aaf5eb681461019557508063eb1d7b08146100f85763efb5d8f71461004557600080fd5b61004e366101b2565b93929591808210156100e85790610064916101f5565b6305f5e10093848102908082048614901517156100d55790610085916101d5565b91838602958087048514901517156100c35750848211156100b557506020936100ad916101f5565b049051908152f35b835163bb55fd2760e01b8152fd5b6011602492634e487b7160e01b835252fd5b634e487b7160e01b845260118352602484fd5b855163bb55fd2760e01b81528390fd5b50610102366101b2565b909291936305f5e1009384830292808404861490151715610182576101308461012b88866101d5565b6101f5565b811161017257830180931161015f57602086610158878761015188886101d5565b04906101f5565b9051908152f35b634e487b7160e01b815260118752602490fd5b865163bb55fd2760e01b81528890fd5b634e487b7160e01b825260118852602482fd5b9050816003193601126101ae57806305f5e10060209252f35b5080fd5b60809060031901126101d05760043590602435906044359060643590565b600080fd5b81156101df570490565b634e487b7160e01b600052601260045260246000fd5b9190820391821161020257565b634e487b7160e01b600052601160045260246000fdfea2646970667358221220a7ac1c6994b321cee8bf118bd4e06dd0d6cb57fd008c236e519ce6bb7080855664736f6c63430008130033","linkReferences":{}},"methodIdentifiers":{"PRECISION()":"aaf5eb68","calculateEthAmountForTokens(uint256,uint256,uint256,uint256)":"efb5d8f7","calculateTokenAmount(uint256,uint256,uint256,uint256)":"eb1d7b08"},"id":81}