{"abi":[{"type":"constructor","inputs":[{"name":"_factory","type":"address","internalType":"contract IUniswapV3Factory"},{"name":"_nonfungiblePositionManager","type":"address","internalType":"contract INonfungiblePositionManager"},{"name":"_swapRouter02","type":"address","internalType":"contract ISwapRouter02"},{"name":"_WETH9","type":"address","internalType":"address"},{"name":"_stargatePoolNative","type":"address","internalType":"address"},{"name":"_endpointV2","type":"address","internalType":"address"}],"stateMutability":"nonpayable"},{"type":"receive","stateMutability":"payable"},{"type":"function","name":"LIQUIDITY_LOCK_PERIOD","inputs":[],"outputs":[{"name":"","type":"uint256","internalType":"uint256"}],"stateMutability":"view"},{"type":"function","name":"MIN_AMOUNT","inputs":[],"outputs":[{"name":"","type":"uint256","internalType":"uint256"}],"stateMutability":"view"},{"type":"function","name":"WETH9","inputs":[],"outputs":[{"name":"","type":"address","internalType":"address"}],"stateMutability":"view"},{"type":"function","name":"calculateInitialSqrtPrice","inputs":[{"name":"token0","type":"address","internalType":"address"},{"name":"token1","type":"address","internalType":"address"},{"name":"amount0","type":"uint256","internalType":"uint256"},{"name":"amount1","type":"uint256","internalType":"uint256"}],"outputs":[{"name":"","type":"uint160","internalType":"uint160"}],"stateMutability":"view"},{"type":"function","name":"calculatePriceFromSqrtPriceX96","inputs":[{"name":"sqrtPriceX96","type":"uint160","internalType":"uint160"},{"name":"tokenAddress","type":"address","internalType":"address"}],"outputs":[{"name":"","type":"uint256","internalType":"uint256"}],"stateMutability":"view"},{"type":"function","name":"calculateTickRange","inputs":[{"name":"currentTick","type":"int24","internalType":"int24"},{"name":"currentPrice","type":"uint256","internalType":"uint256"}],"outputs":[{"name":"tickLower","type":"int24","internalType":"int24"},{"name":"tickUpper","type":"int24","internalType":"int24"}],"stateMutability":"view"},{"type":"function","name":"createTokenAndAddLiquidity","inputs":[{"name":"tokenCreator","type":"address","internalType":"address"},{"name":"name","type":"string","internalType":"string"},{"name":"symbol","type":"string","internalType":"string"},{"name":"description","type":"string","internalType":"string"},{"name":"imageUrl","type":"string","internalType":"string"},{"name":"twitter","type":"string","internalType":"string"},{"name":"telegram","type":"string","internalType":"string"},{"name":"website","type":"string","internalType":"string"},{"name":"initialSupply","type":"uint256","internalType":"uint256"},{"name":"lockedLiquidityPercentage","type":"uint256","internalType":"uint256"}],"outputs":[{"name":"tokenAddress","type":"address","internalType":"address"}],"stateMutability":"payable"},{"type":"function","name":"deposits","inputs":[{"name":"","type":"uint256","internalType":"uint256"}],"outputs":[{"name":"owner","type":"address","internalType":"address"},{"name":"liquidity","type":"uint128","internalType":"uint128"},{"name":"token0","type":"address","internalType":"address"},{"name":"token1","type":"address","internalType":"address"}],"stateMutability":"view"},{"type":"function","name":"endpointV2","inputs":[],"outputs":[{"name":"","type":"address","internalType":"address"}],"stateMutability":"view"},{"type":"function","name":"factory","inputs":[],"outputs":[{"name":"","type":"address","internalType":"contract IUniswapV3Factory"}],"stateMutability":"view"},{"type":"function","name":"getCurrentPrice","inputs":[{"name":"tokenAddress","type":"address","internalType":"address"}],"outputs":[{"name":"","type":"uint256","internalType":"uint256"}],"stateMutability":"view"},{"type":"function","name":"getPoolAddress","inputs":[{"name":"tokenAddress","type":"address","internalType":"address"}],"outputs":[{"name":"","type":"address","internalType":"address"}],"stateMutability":"view"},{"type":"function","name":"getPoolLiquidity","inputs":[{"name":"tokenAddress","type":"address","internalType":"address"}],"outputs":[{"name":"","type":"uint128","internalType":"uint128"}],"stateMutability":"view"},{"type":"function","name":"getPoolReserves","inputs":[{"name":"tokenAddress","type":"address","internalType":"address"}],"outputs":[{"name":"tokenReserve","type":"uint256","internalType":"uint256"},{"name":"ethReserve","type":"uint256","internalType":"uint256"}],"stateMutability":"view"},{"type":"function","name":"getPoolSlot0","inputs":[{"name":"tokenAddress","type":"address","internalType":"address"}],"outputs":[{"name":"","type":"uint160","internalType":"uint160"},{"name":"","type":"int24","internalType":"int24"}],"stateMutability":"view"},{"type":"function","name":"getTokenBalance","inputs":[{"name":"tokenAddress","type":"address","internalType":"address"},{"name":"account","type":"address","internalType":"address"}],"outputs":[{"name":"","type":"uint256","internalType":"uint256"}],"stateMutability":"view"},{"type":"function","name":"lzCompose","inputs":[{"name":"_from","type":"address","internalType":"address"},{"name":"","type":"bytes32","internalType":"bytes32"},{"name":"_message","type":"bytes","internalType":"bytes"},{"name":"","type":"address","internalType":"address"},{"name":"","type":"bytes","internalType":"bytes"}],"outputs":[],"stateMutability":"payable"},{"type":"function","name":"nonfungiblePositionManager","inputs":[],"outputs":[{"name":"","type":"address","internalType":"contract INonfungiblePositionManager"}],"stateMutability":"view"},{"type":"function","name":"onERC721Received","inputs":[{"name":"","type":"address","internalType":"address"},{"name":"","type":"address","internalType":"address"},{"name":"","type":"uint256","internalType":"uint256"},{"name":"","type":"bytes","internalType":"bytes"}],"outputs":[{"name":"","type":"bytes4","internalType":"bytes4"}],"stateMutability":"view"},{"type":"function","name":"orderTokens","inputs":[{"name":"tokenAddress","type":"address","internalType":"address"}],"outputs":[{"name":"token0","type":"address","internalType":"address"},{"name":"token1","type":"address","internalType":"address"}],"stateMutability":"view"},{"type":"function","name":"owner","inputs":[],"outputs":[{"name":"","type":"address","internalType":"address"}],"stateMutability":"view"},{"type":"function","name":"poolFee","inputs":[],"outputs":[{"name":"","type":"uint24","internalType":"uint24"}],"stateMutability":"view"},{"type":"function","name":"renounceOwnership","inputs":[],"outputs":[],"stateMutability":"nonpayable"},{"type":"function","name":"sqrt","inputs":[{"name":"x","type":"uint256","internalType":"uint256"}],"outputs":[{"name":"y","type":"uint256","internalType":"uint256"}],"stateMutability":"pure"},{"type":"function","name":"stargatePoolNative","inputs":[],"outputs":[{"name":"","type":"address","internalType":"address"}],"stateMutability":"view"},{"type":"function","name":"swapExactETHForTokens","inputs":[{"name":"tokenAddress","type":"address","internalType":"address"}],"outputs":[{"name":"","type":"uint256","internalType":"uint256"}],"stateMutability":"payable"},{"type":"function","name":"swapExactTokensForETH","inputs":[{"name":"tokenAddress","type":"address","internalType":"address"},{"name":"tokenAmount","type":"uint256","internalType":"uint256"},{"name":"dstEid","type":"uint32","internalType":"uint32"}],"outputs":[{"name":"","type":"uint256","internalType":"uint256"}],"stateMutability":"nonpayable"},{"type":"function","name":"swapRouter02","inputs":[],"outputs":[{"name":"","type":"address","internalType":"contract ISwapRouter02"}],"stateMutability":"view"},{"type":"function","name":"tokenInfo","inputs":[{"name":"","type":"address","internalType":"address"}],"outputs":[{"name":"creator","type":"address","internalType":"address"},{"name":"initialLiquidityAdded","type":"bool","internalType":"bool"},{"name":"positionId","type":"uint256","internalType":"uint256"},{"name":"lockedLiquidityPercentage","type":"uint256","internalType":"uint256"},{"name":"withdrawableLiquidity","type":"uint256","internalType":"uint256"},{"name":"creationTime","type":"uint256","internalType":"uint256"},{"name":"pool","type":"address","internalType":"address"},{"name":"liquidity","type":"uint128","internalType":"uint128"}],"stateMutability":"view"},{"type":"function","name":"transferOwnership","inputs":[{"name":"newOwner","type":"address","internalType":"address"}],"outputs":[],"stateMutability":"nonpayable"},{"type":"function","name":"withdrawLiquidity","inputs":[{"name":"tokenAddress","type":"address","internalType":"address"},{"name":"amount","type":"uint256","internalType":"uint256"}],"outputs":[],"stateMutability":"nonpayable"},{"type":"event","name":"AdditionalTokenData","inputs":[{"name":"tokenAddress","type":"address","indexed":true,"internalType":"address"},{"name":"name","type":"string","indexed":false,"internalType":"string"},{"name":"symbol","type":"string","indexed":false,"internalType":"string"},{"name":"description","type":"string","indexed":false,"internalType":"string"},{"name":"imageUrl","type":"string","indexed":false,"internalType":"string"},{"name":"twitter","type":"string","indexed":false,"internalType":"string"},{"name":"telegram","type":"string","indexed":false,"internalType":"string"},{"name":"website","type":"string","indexed":false,"internalType":"string"},{"name":"timestamp","type":"uint256","indexed":false,"internalType":"uint256"}],"anonymous":false},{"type":"event","name":"OwnershipTransferred","inputs":[{"name":"previousOwner","type":"address","indexed":true,"internalType":"address"},{"name":"newOwner","type":"address","indexed":true,"internalType":"address"}],"anonymous":false},{"type":"event","name":"TokenTrade","inputs":[{"name":"tokenAddress","type":"address","indexed":true,"internalType":"address"},{"name":"trader","type":"address","indexed":true,"internalType":"address"},{"name":"tradeType","type":"uint8","indexed":false,"internalType":"enum MainEngine.TradeType"},{"name":"inputAmount","type":"uint256","indexed":false,"internalType":"uint256"},{"name":"outputAmount","type":"uint256","indexed":false,"internalType":"uint256"},{"name":"eid","type":"uint32","indexed":false,"internalType":"uint32"},{"name":"timestamp","type":"uint256","indexed":false,"internalType":"uint256"}],"anonymous":false},{"type":"event","name":"TokenUpdate","inputs":[{"name":"tokenAddress","type":"address","indexed":true,"internalType":"address"},{"name":"creator","type":"address","indexed":true,"internalType":"address"},{"name":"sqrtPriceX96","type":"uint160","indexed":false,"internalType":"uint160"},{"name":"tokenPrice","type":"uint256","indexed":false,"internalType":"uint256"},{"name":"liquidity","type":"uint128","indexed":false,"internalType":"uint128"},{"name":"ethReserve","type":"uint256","indexed":false,"internalType":"uint256"},{"name":"tokenReserve","type":"uint256","indexed":false,"internalType":"uint256"},{"name":"totalSupply","type":"uint256","indexed":false,"internalType":"uint256"},{"name":"lockedLiquidityPercentage","type":"uint256","indexed":false,"internalType":"uint256"},{"name":"withdrawableLiquidity","type":"uint256","indexed":false,"internalType":"uint256"},{"name":"liquidatedLiquidity","type":"uint256","indexed":false,"internalType":"uint256"},{"name":"timestamp","type":"uint256","indexed":false,"internalType":"uint256"}],"anonymous":false},{"type":"error","name":"Create2EmptyBytecode","inputs":[]},{"type":"error","name":"Create2FailedDeployment","inputs":[]},{"type":"error","name":"Create2InsufficientBalance","inputs":[{"name":"balance","type":"uint256","internalType":"uint256"},{"name":"needed","type":"uint256","internalType":"uint256"}]},{"type":"error","name":"InitialLiquidityAlreadyAdded","inputs":[]},{"type":"error","name":"InsufficientETHProvided","inputs":[]},{"type":"error","name":"InsufficientETHSent","inputs":[]},{"type":"error","name":"InsufficientEthOrAmountToLowFromSwap","inputs":[]},{"type":"error","name":"InsufficientWithdrawableLiquidity","inputs":[]},{"type":"error","name":"InvalidDestinationChain","inputs":[]},{"type":"error","name":"InvalidInitialSupply","inputs":[]},{"type":"error","name":"InvalidLockedLiquidityPercentage","inputs":[]},{"type":"error","name":"InvalidOptionType","inputs":[{"name":"optionType","type":"uint16","internalType":"uint16"}]},{"type":"error","name":"InvalidToken","inputs":[]},{"type":"error","name":"InvalidTokenOrder","inputs":[]},{"type":"error","name":"InvalidTransactionType","inputs":[]},{"type":"error","name":"MustProvideBothAmounts","inputs":[]},{"type":"error","name":"MustSendETH","inputs":[]},{"type":"error","name":"NoLiquidityMinted","inputs":[]},{"type":"error","name":"NotAuthorized","inputs":[]},{"type":"error","name":"OwnableInvalidOwner","inputs":[{"name":"owner","type":"address","internalType":"address"}]},{"type":"error","name":"OwnableUnauthorizedAccount","inputs":[{"name":"account","type":"address","internalType":"address"}]},{"type":"error","name":"PoolAlreadyExists","inputs":[]},{"type":"error","name":"PoolDoesNotExist","inputs":[]},{"type":"error","name":"SafeCastOverflowedUintDowncast","inputs":[{"name":"bits","type":"uint8","internalType":"uint8"},{"name":"value","type":"uint256","internalType":"uint256"}]},{"type":"error","name":"SqrtPriceOutOfBounds","inputs":[]},{"type":"error","name":"TokenNotCreated","inputs":[]},{"type":"error","name":"TransferEthFailed","inputs":[]},{"type":"error","name":"WithdrawalTooEarly","inputs":[]},{"type":"error","name":"ZeroAmount","inputs":[]}],"bytecode":{"object":"0x610160346101fb57601f61443c38819003918201601f19168301916001600160401b038311848410176102005780849260c0946040528339810103126101fb578051906001600160a01b03821682036101fb576020810151906001600160a01b03821682036101fb5760408101516001600160a01b03811681036101fb5761008960608301610216565b906100a260a061009b60808601610216565b9401610216565b9333156101e55760008054336001600160a01b0319821681178355604051989290916001600160a01b0316907f8be0079c531659141344cd1fd0a4f28419497f9722a3daafe3b4186f6b6457e09080a366038d7ea4c6800060805260a05260c05260e052610100526101205261014052614211908161022b82396080518181816112840152818161218401526126f4015260a0518181816110250152612ed5015260c05181818161034601528181610ddd015261317f015260e051818181610534015281816109c701528181610e5001526128d501526101005181818161055e0152818161080601528181610e8a015281816116d0015281816119c101528181611d27015281816128ff01526135770152610120518181816108e4015281816111500152818161268e0152612a14015261014051818181610982015261123d0152f35b631e4fbdf760e01b600052600060045260246000fd5b600080fd5b634e487b7160e01b600052604160045260246000fd5b51906001600160a01b03821682036101fb5756fe6080604052600436101561001b575b361561001957600080fd5b005b60003560e01c806306d47de91461020b578063089fe6aa1461020657806311cc4b42146102015780631228cbee146101fc578063150b7a02146101f75780632437ee36146101f25780633eb39a61146101ed5780634aa4a4fc146101e85780634bee9395146101e35780634d5692d7146101de578063677342ce146101d95780636baf92dc146101d4578063715018a6146101cf578063797b7f6b146101ca5780637eaf1116146101c557806384cc315b146101c0578063858c3e3f146101bb5780638a88c670146101b65780638da5cb5b146101b1578063b02c43d0146101ac578063b1edb183146101a7578063b25a5bb4146101a2578063b44a27221461019d578063bea9463014610198578063c45a015514610193578063c489744b1461018e578063d0a1026014610189578063ddbcb5fa14610184578063de8f319b1461017f578063f2fde38b1461017a5763f5dab7110361000e5761138e565b6112e7565b6112a7565b61126c565b6110e9565b611054565b61100f565b610e0c565b610dc7565b610d88565b610c61565b610ab6565b610a8d565b610a6f565b610a32565b6109f6565b6109b1565b61096c565b610913565b6108ce565b6108b0565b610868565b610835565b6107f0565b6107b4565b610767565b61070d565b610698565b610503565b6104e6565b610235565b6001600160a01b0381160361022157565b600080fd5b6004359061023382610210565b565b346102215760403660031901126102215760043561025281610210565b6024356001600160a01b038281166000908152600160205260409020541633036104ca5761028b600461028484611374565b015461144c565b42106104b957600361029c83611374565b015481116104a8578160036102b361037b94611374565b016102bf83825461146f565b90556102ed60016102cf83611374565b0154926102da610b96565b9384526001600160801b03166020840152565b600060408381018281526060850192835242608086019081528251630624e65f60e11b8152865160048201526020909601516001600160801b0316602487015290516044860152915160648501529051608484015291927f00000000000000000000000000000000000000000000000000000000000000006001600160a01b031692908490819060a4820190565b03816000865af19182156104725760009360409361043a9386928792610477575b50906103d260016103af6103e294611374565b0154936103ba610ba5565b9485523360208601526001600160801b031684880152565b6001600160801b03166060830152565b835163fc6f786560e01b81528151600482015260208201516001600160a01b0316602482015260408201516001600160801b039081166044830152606090920151909116606482015293849283919082906084820190565b03925af180156104725761044a57005b6100199060403d60401161046b575b6104638183610b75565b81019061147c565b503d610459565b611492565b6103af93506103e29250600161049c6103d292893d8b1161046b576104638183610b75565b9590959450505061039c565b63ac2b83fb60e01b60005260046000fd5b633d19c58560e21b60005260046000fd5b63ea8e4eb560e01b60005260046000fd5b600091031261022157565b34610221576000366003190112610221576020604051610bb88152f35b60203660031901126102215760043561051b81610210565b34156106875760009061052d34611d25565b60206105ec7f00000000000000000000000000000000000000000000000000000000000000006001600160a01b03167f0000000000000000000000000000000000000000000000000000000000000000610588348383611d9a565b6105a2610593610bb4565b6001600160a01b039092168252565b6001600160a01b03851681850152610bb860408201523360608201523460808201528560a08201528560c08201526040519586809481936304e45aaf60e01b8352600483016114ad565b03925af19081156104725761064e92600092610652575b5060405161063e919033906001600160a01b038316906000805160206141bc83398151915290806106364289348461152e565b0390a3611e70565b6040519081529081906020820190565b0390f35b61063e9192506106799060203d602011610680575b6106718183610b75565b81019061149e565b9190610603565b503d610667565b63d73ab2e160e01b60005260046000fd5b34610221576020366003190112610221576004356106b581610210565b60018060a01b03166000526001602052602060018060a01b0360056040600020015416604051908152f35b9181601f84011215610221578235916001600160401b038311610221576020838186019501011161022157565b3461022157608036600319011261022157610729600435610210565b610734602435610210565b6064356001600160401b038111610221576107539036906004016106e0565b5050604051630a85bd0160e11b8152602090f35b346102215760803660031901126102215760206107a260043561078981610210565b60243561079581610210565b60443590606435926115d6565b6040516001600160a01b039091168152f35b346102215760403660031901126102215760206107e86004356107d681610210565b602435906107e382610210565b6116c5565b604051908152f35b34610221576000366003190112610221576040517f00000000000000000000000000000000000000000000000000000000000000006001600160a01b03168152602090f35b3461022157602036600319011261022157604061085c60043561085781610210565b61176a565b82519182526020820152f35b346102215760203660031901126102215760043561088581610210565b60018060a01b03166000526001602052602060018060801b0360066040600020015416604051908152f35b346102215760203660031901126102215760206107e86004356118ae565b34610221576000366003190112610221576040517f00000000000000000000000000000000000000000000000000000000000000006001600160a01b03168152602090f35b346102215760003660031901126102215761092c6120a1565b600080546001600160a01b0319811682556001600160a01b03167f8be0079c531659141344cd1fd0a4f28419497f9722a3daafe3b4186f6b6457e08280a3005b34610221576000366003190112610221576040517f00000000000000000000000000000000000000000000000000000000000000006001600160a01b03168152602090f35b34610221576000366003190112610221576040517f00000000000000000000000000000000000000000000000000000000000000006001600160a01b03168152602090f35b346102215760203660031901126102215760206107e8600435610a1881610210565b610a2181611c9e565b506116c5565b8060020b0361022157565b34610221576040366003190112610221576040610a5d600435610a5481610a27565b60243590611933565b82519160020b825260020b6020820152f35b346102215760003660031901126102215760206040516203f4808152f35b34610221576000366003190112610221576000546040516001600160a01b039091168152602090f35b346102215760203660031901126102215760043560005260026020526080604060002060018060a01b0381541690600180841b036001820154169060018060a01b0360028201541690600360018060a01b039101541691604051938452602084015260408301526060820152f35b634e487b7160e01b600052604160045260246000fd5b604081019081106001600160401b03821117610b5557604052565b610b24565b606081019081106001600160401b03821117610b5557604052565b90601f801991011681019081106001600160401b03821117610b5557604052565b6040519061023360a083610b75565b60405190610233608083610b75565b6040519061023360e083610b75565b6040519061023361010083610b75565b6040519061023361016083610b75565b906102336040519283610b75565b6001600160401b038111610b5557601f01601f191660200190565b929192610c1882610bf1565b91610c266040519384610b75565b829481845281830111610221578281602093846000960137010152565b9080601f8301121561022157816020610c5e93359101610c0c565b90565b61014036600319011261022157610c76610226565b506024356001600160401b03811161022157610c96903690600401610c43565b6044356001600160401b03811161022157610cb5903690600401610c43565b6064356001600160401b03811161022157610cd4903690600401610c43565b916084356001600160401b03811161022157610cf4903690600401610c43565b9160a4356001600160401b03811161022157610d14903690600401610c43565b9360c4356001600160401b03811161022157610d34903690600401610c43565b9360e435946001600160401b0386116102215761064e96610d5c610d6e973690600401610c43565b9261010435946101243596349861217a565b6040516001600160a01b0390911681529081906020820190565b34610221576020366003190112610221576040610daf600435610daa81610210565b6119bf565b82516001600160a01b03928316815291166020820152f35b34610221576000366003190112610221576040517f00000000000000000000000000000000000000000000000000000000000000006001600160a01b03168152602090f35b3461022157606036600319011261022157600435610e2981610210565b6024356044359063ffffffff82169182810361022157600092610e4e833033886122a3565b7f00000000000000000000000000000000000000000000000000000000000000006001600160a01b0316610e83848288611d9a565b6020610f087f000000000000000000000000000000000000000000000000000000000000000092610eb2610bb4565b6001600160a01b038a1681526001600160a01b03851681850152610bb860408201523060608201528760808201528860a08201528860c08201526040519889809481936304e45aaf60e01b8352600483016114ad565b03925af194851561047257600095610fee575b506001600160a01b0316803b1561022157604051632e1a7d4d60e01b815260048101869052906000908290602490829084905af1801561047257610fd3575b5015610f71579061064e9361063e92843391612594565b50600080808085335af1610f83611a0f565b5015610fc25761064e92610fbd91604051906000805160206141bc83398151915233928061063660018060a01b0387169489429184611558565b61063e565b636200562d60e01b60005260046000fd5b80610fe26000610fe893610b75565b806104db565b38610f5a565b61100891955060203d602011610680576106718183610b75565b9338610f1b565b34610221576000366003190112610221576040517f00000000000000000000000000000000000000000000000000000000000000006001600160a01b03168152602090f35b346102215760403660031901126102215760043561107181610210565b602060243561107f81610210565b6040516370a0823160e01b81526001600160a01b0391821660048201529283916024918391165afa80156104725761064e916000916110ca575b506040519081529081906020820190565b6110e3915060203d602011610680576106718183610b75565b386110b9565b60a03660031901126102215760043561110181610210565b6044356001600160401b038111610221576111209036906004016106e0565b909161112d606435610210565b6084356001600160401b0381116102215761114c9036906004016106e0565b50507f00000000000000000000000000000000000000000000000000000000000000006001600160a01b03908116911614801590611239575b6104ca576111ab8161119a6111ba9385612805565b506111a5818561281b565b93612831565b60208082518301019101611aa4565b91906001600160f81b031916806111f45750506111e38160208061001994518301019101611b12565b97985095949094939193349861217a565b600160f81b03611228576112148260208061001995518301019101611aed565b6001600160a01b03908116913491166128b6565b637513b90360e01b60005260046000fd5b50337f00000000000000000000000000000000000000000000000000000000000000006001600160a01b03161415611185565b346102215760003660031901126102215760206040517f00000000000000000000000000000000000000000000000000000000000000008152f35b346102215760203660031901126102215760406112ce6004356112c981610210565b611c9e565b82516001600160a01b03909216825260020b6020820152f35b346102215760203660031901126102215760043561130481610210565b61130c6120a1565b6001600160a01b0316801561135e57600080546001600160a01b03198116831782556001600160a01b0316907f8be0079c531659141344cd1fd0a4f28419497f9722a3daafe3b4186f6b6457e09080a3005b631e4fbdf760e01b600052600060045260246000fd5b6001600160a01b0316600090815260016020526040902090565b34610221576020366003190112610221576004356113ab81610210565b6001600160a01b0390811660009081526001602081815260409283902080549281015460028201546003830154600484015460058501546006909501548851888b16815260ff60a0998a1c16151597810197909752978601939093526060850191909152608084015292820192909252921660c08301526001600160801b031660e082015261010090f35b634e487b7160e01b600052601160045260246000fd5b906203f480820180921161145c57565b611436565b606403906064821161145c57565b9190820391821161145c57565b9190826040910312610221576020825192015190565b6040513d6000823e3d90fd5b90816020910312610221575190565b81516001600160a01b03908116825260208084015182169083015260408084015162ffffff16908301526060808401518216908301526080808401519083015260a0808401519083015260c092830151169181019190915260e00190565b9060038210156115185752565b634e487b7160e01b600052602160045260246000fd5b60a0810194939260809261154383600061150b565b60208301526040820152600060608201520152565b60a0810194939260809261154383600161150b565b908160601b91808304600160601b149015171561145c57565b90610320820291808304610320149015171561145c57565b8181029291811591840414171561145c57565b634e487b7160e01b600052601260045260246000fd5b81156115d1570490565b6115b1565b6001600160a01b03918216911610156116b457801580156116ac575b61169b576305f5e1008202918083046305f5e100149015171561145c5761162f61162a61162561163d93611649956115c7565b6118ae565b61156d565b611637611876565b906115c7565b6001600160a01b031690565b6401000276a36001600160a01b03821690811090811561167d575b5061166c5790565b63582157bb60e01b60005260046000fd5b73fffd8963efd1fc6a506488495d951d5263988d2691501138611664565b631f2a200560e01b60005260046000fd5b5081156115f2565b633f06bf8160e01b60005260046000fd5b906001600160a01b037f0000000000000000000000000000000000000000000000000000000000000000811691908116821461175957611707611719916119bf565b936001600160a01b031690508061159e565b6305f5e1008102908082046305f5e100149015171561145c5760c01c916001600160a01b0316036117475790565b662386f26fc1000081156115d1570490565b63c1ab6dc160e01b60005260046000fd5b90611787600561177984611374565b01546001600160a01b031690565b91611791816119bf565b6040516370a0823160e01b81526001600160a01b0386811660048301529095919392169190602086602481865afa9384156104725761180296600095611852575b506040516370a0823160e01b81526001600160a01b03909216600483015290956020918791829081906024820190565b03916001600160a01b03165afa94851561047257600095611831575b506001600160a01b031603610c5e579190565b61184b91955060203d602011610680576106718183610b75565b933861181e565b60209291955061186e90833d8511610680576106718183610b75565b9490916117d2565b6305f5e100906302faf0805b82811061188c5750565b91508180156115d157806305f5e1000490810180911161145c5760011c611882565b906001820180831161145c5760011c825b8382106118ca575050565b9092508280156115d15780820490810180911161145c5760011c906118bf565b6103e89060020b02908160020b91820361145c57565b603c9060020b02908160020b91820361145c57565b9060020b9060020b0190627fffff198212627fffff83131761145c57565b9190600a810290801591818104600a1483171561145c576064900491603c830292808404603c149015171561145c576115d157611973910460020b6118ea565b8060020b8360020b0390627fffff8213627fffff1983121761145c576119b56119aa916119af6119aa610c5e95603c9060020b0590565b611900565b95611915565b603c9060020b0590565b7f000000000000000000000000000000000000000000000000000000000000000091906001600160a01b038084169082161015610c5e579190565b60405190611a09602083610b75565b60008252565b3d15611a3a573d90611a2082610bf1565b91611a2e6040519384610b75565b82523d6000602084013e565b606090565b60005b838110611a525750506000910152565b8181015183820152602001611a42565b81601f820112156102215760208151910190611a7d81610bf1565b92611a8b6040519485610b75565b8184528183011161022157610c5e916020840190611a3f565b9190916040818403126102215780516001600160f81b031981168103610221579260208201516001600160401b03811161022157610c5e9201611a62565b519061023382610210565b91908260409103126102215760208251611b0681610210565b920151610c5e81610210565b9190916101408184031261022157611b2981611ae2565b9260208201516001600160401b0381116102215781611b49918401611a62565b9260408301516001600160401b0381116102215782611b69918501611a62565b9260608101516001600160401b0381116102215783611b89918301611a62565b9260808201516001600160401b0381116102215781611ba9918401611a62565b9260a08301516001600160401b0381116102215782611bc9918501611a62565b9260c08101516001600160401b0381116102215783611be9918301611a62565b9260e0820151906001600160401b03821161022157611c09918301611a62565b9161012061010083015192015190565b519061ffff8216820361022157565b5190811515820361022157565b908160e0910312610221578051611c4b81610210565b916020820151611c5a81610a27565b91611c6760408201611c19565b91611c7460608301611c19565b91611c8160808201611c19565b9160a082015160ff811681036102215760c0610c5e919301611c28565b6001600160a01b0390811660009081526001602052604090819020600501549051633850c7bd60e01b8152929160e09184916004918391165afa91821561047257600090600093611cee57509190565b9050611d1391925060e03d60e011611d1e575b611d0b8183610b75565b810190611c35565b505050505091909190565b503d611d01565b7f00000000000000000000000000000000000000000000000000000000000000006001600160a01b0316803b1561022157600090600460405180948193630d0e30db60e41b83525af1801561047257611d7b5750565b600061023391610b75565b9081602091031261022157610c5e90611c28565b6000929183809360405190602082019363095ea7b360e01b855260018060a01b03166024830152604482015260448152611dd5606482610b75565b51925af1611de1611a0f565b81611e19575b5015611def57565b60405162461bcd60e51b8152602060048201526002602482015261534160f01b6044820152606490fd5b8051801592508215611e2e575b505038611de7565b611e419250602080918301019101611d86565b3880611e26565b51906001600160801b038216820361022157565b9081602091031261022157610c5e90611e48565b611e8461163d61163d600561177985611374565b604051633850c7bd60e01b8152919060e083600481845afa90811561047257600493600092612077575b5060209060405194858092630d34328160e11b82525afa92831561047257600093612046575b50611ede8261176a565b6040516318160ddd60e01b815291946001600160a01b038516949293909290602085600481895afa918215610472577ff18e8b53339decc2830fb5f7ff44ac99ef34b33f396fc719d870c87726c32ebc95600093612023575b5061201e9293611f78611f5c6006611f4e85611374565b01546001600160801b031690565b6003611f6785611374565b0154906001600160801b031661146f565b91611f92611f8582611374565b546001600160a01b031690565b95611f9d82866116c5565b9a6003611fb66002611fae86611374565b015494611374565b015493604051998a9960018060a01b03169d42988b9693909a9998959261012098959261014089019c60018060a01b03168952602089015260018060801b031660408801526060870152608086015260a085015260c084015260e08301526101008201520152565b0390a3565b61201e93506120409060203d602011610680576106718183610b75565b92611f37565b61206991935060203d602011612070575b6120618183610b75565b810190611e5c565b9138611ed4565b503d612057565b60209192506120949060e03d60e011611d1e57611d0b8183610b75565b5050505050509190611eae565b6000546001600160a01b031633036120b557565b63118cdaa760e01b6000523360045260246000fd5b906020916120e381518092818552858086019101611a3f565b601f01601f1916010190565b989796939461214b6121759661213d8c6121679761212f60e09c986121216121599961010086526101008601906120ca565b9084820360208601526120ca565b9160408184039101526120ca565b8c810360608e0152906120ca565b908a820360808c01526120ca565b9088820360a08a01526120ca565b9086820360c08801526120ca565b930152565b92959194909798937f00000000000000000000000000000000000000000000000000000000000000008510612292576121b285611d25565b87156122815760648a116122705761224c8589612224612264986122017fd22b36da0862537631990ca696b1d46227d687e9fdd110a9158c18ee80bd8d269d8f898f8f908b918f948f95612d6c565b9e8f90600261220f83611374565b015542600461221d83611374565b0155612e75565b808d836122448261223e61223782611c9e565b92906116c5565b90611933565b939092613132565b60405196879660018060a01b038c169a4296896120ef565b0390a2610c5e81611e70565b6333ea689560e11b60005260046000fd5b63c2c5358f60e01b60005260046000fd5b63311c9fd160e01b60005260046000fd5b6040516323b872dd60e01b602082019081526001600160a01b0393841660248301529390921660448301526064808301949094529281526000928392909183906122ee608482610b75565b51925af16122fa611a0f565b81612333575b501561230857565b60405162461bcd60e51b815260206004820152600360248201526229aa2360e91b6044820152606490fd5b8051801592508215612348575b505038612300565b61235b9250602080918301019101611d86565b3880612340565b600160f91b8152604060208201819052610c5e929101906120ca565b91908260409103126102215760405161239681610b3a565b6020808294805184520151910152565b9060408282031261022157610c5e9161237e565b610c5e9163ffffffff825116815260208201516020820152604082015160408201526060820151606082015260c0612416612404608085015160e0608086015260e08501906120ca565b60a085015184820360a08601526120ca565b9201519060c08184039101526120ca565b919060206121756000926040865260408601906123ba565b9190604083820312610221576040519061245882610b3a565b8193805168ffffffffffffffffff811681036102215783526020810151916001600160401b038311610221576020926124919201611a62565b910152565b9182820360e0811261022157608013610221576040516124b581610b5a565b8351815260208401516001600160401b03811681036102215760208201526124e0836040860161237e565b6040820152926124f3836080830161237e565b9260c08201516001600160401b03811161022157610c5e920161243f565b919392602061252a6060936080865260808601906123ba565b86518583015295015160408401526001600160a01b0316910152565b9094939263ffffffff9060809360a084019761256385600161150b565b602085015260408401521660608201520152565b9094939263ffffffff9060809360a084019761256385600061150b565b919063ffffffff8316156127f457801561169b5761260d906125be6001600160a01b03841661163d565b604080516001600160a01b038089166020830152918101899052908516606082015290939061261b906125fe81608081015b03601f198101835282610b75565b60405194859160208301612362565b03601f198101855284610b75565b61262b61262661344a565b613466565b9161264061263882611586565b6103e8900490565b93612649610bb4565b63ffffffff88168152956020870152604086019382855260608701958652608087015260a08601526126796119fa565b60c086015260408051633b6f743b60e01b81527f00000000000000000000000000000000000000000000000000000000000000006001600160a01b031692909182806126c88a60048301612427565b0381865afa918215610472576000926127c3575b5081518111156127b2576126f182518261146f565b967f000000000000000000000000000000000000000000000000000000000000000088106127b25761274d96886000975261272e6126388a611586565b905260405163cbef2aa960e01b81529687958694859360048501612511565b03925af1801561047257610233956000805160206141bc833981519152926106369261278f575b50604051918291339660018060a01b03891696429285612546565b6127ab903d806000833e6127a38183610b75565b810190612496565b5050612774565b63c4ad744160e01b60005260046000fd5b6127e691925060403d6040116127ed575b6127de8183610b75565b8101906123a6565b90386126dc565b503d6127d4565b63b86ac1ef60e01b60005260046000fd5b90600090602c116128185750600c013590565b80fd5b90600090600c1161281857506008013560e01c90565b919060009281604c1161285457919250610c5e913691604b190190604c01610c0c565b8380fd5b60a081019392916080919061286e82600261150b565b602082015260006040820152600060608201520152565b63ffffffff60809295949360a08301966128a084600261150b565b6020840152600060408401521660608201520152565b919290926000938015610687576128cc81611d25565b600060206129877f00000000000000000000000000000000000000000000000000000000000000006001600160a01b03167f0000000000000000000000000000000000000000000000000000000000000000612929868383611d9a565b612934610593610bb4565b6001600160a01b03891681850152610bb860408201526001600160a01b03871660608201528560808201528460a08201528460c08201526040519485809481936304e45aaf60e01b8352600483016114ad565b03925af160009181612bc9575b50612b8e57506129a381613575565b6129b56001600160a01b03831661163d565b916129be610bb4565b63ffffffff851681529260208401526040830192828452600060608201526129e46119fa565b60808201526129f16119fa565b60a08201526129fe6119fa565b60c082015260408051633b6f743b60e01b8152947f00000000000000000000000000000000000000000000000000000000000000006001600160a01b031692918680612a4d8560048301612427565b0381865afa95861561047257600096612b6d575b508551851115612b07575b9185858593600095612a82612aa19a518461146f565b905260405163cbef2aa960e01b81529889958694859360048501612511565b03925af1928315610472576000805160206141bc83398151915293612aec575b506040516001600160a01b03918216959091169390918291612ae69142919084612885565b0390a390565b612b00903d806000833e6127a38183610b75565b5050612ac1565b91600080808088885af1612b19611a0f565b5015610fc257604051612aa19660009486949192889291906001600160a01b0380881691908e16906000805160206141bc8339815191529080612b5d428983612858565b0390a39395509350509550612a6c565b612b8791965060403d6040116127ed576127de8183610b75565b9438612a61565b604051909550610c5e94936001600160a01b03938416938516926000805160206141bc833981519152929182916106369142918b9085612577565b612be391925060203d602011610680576106718183610b75565b9038612994565b959194612c466101009895612c38612c6296612c2a9c9e9d9c612c709a612c1c612c54986101208f81815201906120ca565b8d810360208f0152906120ca565b908b820360408d01526120ca565b9089820360608b01526120ca565b9087820360808901526120ca565b9085820360a08701526120ca565b9083820360c08501526120ca565b6001600160a01b0390951660e08201520152565b90612c9760209282815194859201611a3f565b0190565b815181546001600160a01b0319166001600160a01b0390911617815561023391600690612d4b9060e090612cef612cd56020830151151590565b865460ff60a01b191690151560a01b60ff60a01b16178655565b60408101516001860155606081015160028601556080810151600386015560a0810151600486015560c08101516005860180546001600160a01b0319166001600160a01b0390921691909117905501516001600160801b031690565b910180546001600160801b0319166001600160801b03909216919091179055565b612e0192916125f0612e1499612deb93612dfb9a612e0f999a6040516020810190612dba816125f042338690916034926bffffffffffffffffffffffff199060601b16825260148201520190565b5190209b610b569a612dce60208d01610be3565b8c81529b61366660208e0139604051998a98309660208b01612bea565b6040519586936020850190612c84565b90612c84565b03601f198101845283610b75565b6135d4565b610c5e612e1f610bc3565b338152600060208201526000604082015260006060820152600060808201524260a0820152600060c0820152600060e0820152612e5b83611374565b612c9b565b908160209103126102215751610c5e81610210565b906001600160a01b03612e8c600561177985611374565b1661306057612e9a826119bf565b60405163a167129560e01b81526001600160a01b03808416600483015282166024820152610bb86044820152936020858060648101038160007f00000000000000000000000000000000000000000000000000000000000000006001600160a01b03165af19485156104725760009561302f575b50612f3e856005612f1e84611374565b0180546001600160a01b0319166001600160a01b03909216919091179055565b6040516370a0823160e01b8152306004820152936001600160a01b03919091169190602085602481865afa90811561047257612fa69560009261300e575b506001600160a01b03851684036130075781935b6001600160a01b03841603612fff5750926115d6565b906001600160a01b0316803b156102215760405163f637731d60e01b81526001600160a01b039290921660048301526000908290602490829084905af1801561047257612ff05750565b80610fe2600061023393610b75565b9050926115d6565b8093612f90565b61302891925060203d602011610680576106718183610b75565b9038612f7c565b61305291955060203d602011613059575b61304a8183610b75565b810190612e60565b9338612f0e565b503d613040565b630188c99160e11b60005260046000fd5b91908260809103126102215781519161308c60208201611e48565b916060604083015192015190565b815181546001600160a01b0319166001600160a01b03919091161781556102339160039060208101516001840180546001600160801b0319166001600160801b039290921691909117905560408101516002840180546001600160a01b0319166001600160a01b039290921691909117905560600151910180546001600160a01b0319166001600160a01b0392909216919091179055565b9492919095939561314f61314587611374565b5460a01c60ff1690565b6134395715908115613430575b5061169b576132ce61320d6080926132049560009561317a896119bf565b9a90987f00000000000000000000000000000000000000000000000000000000000000006001600160a01b0316958a95909291906131f28e6131bd878b8b611d9a565b6131c8888b83611d9a565b6131e26131d3610bd3565b6001600160a01b03909a168a52565b6001600160a01b03166020890152565b610bb8604088015260020b6060870152565b60020b84880152565b60a0830190815260c0830191825260e08301878152610100840188815230610120860190815242610140870190815260408051634418b22b60e11b815288516001600160a01b03908116600483015260208a0151811660248301529189015162ffffff1660448201526060890151600290810b606483015260809099015190980b6084890152945160a4880152945160c4870152915160e4860152516101048501525116610124830152516101448201529384928391908290610164820190565b03925af1928315610472576000916000946133fb575b506001600160801b0384169485156133ea576133c56133e59483600361339461338e6133876102339c8a600161331c6133d59c611374565b015561334d8d600661332d89611374565b0180546001600160801b0319166001600160801b03909216919091179055565b61336c61335987611374565b805460ff60a01b1916600160a01b179055565b613381600261337a88611374565b0154611461565b9061159e565b6064900490565b92611374565b01556133b56133a1610ba5565b338152976001600160801b03166020890152565b6001600160a01b03166040870152565b6001600160a01b03166060850152565b6000526002602052604060002090565b61309a565b63f564880560e01b60005260046000fd5b909350613420915060803d608011613429575b6134188183610b75565b810190613071565b505092386132e4565b503d61340e565b9050153861315c565b63b1f3376760e01b60005260046000fd5b604051600360f01b602082015260028152610c5e602282610b75565b600361ffff61347483613619565b16036135545760405160006020820152610c3560861b6022820152601281529061349f603283610b75565b600361ffff6134ad83613619565b160361355457815161ffff811161353b5761ffff60019116019161ffff831161145c57610c5e91602060049260405195836134f18895518092868089019101611a3f565b840190600160f81b8483015261ffff60f01b9060f01b166021820152600360f81b602382015261352a8251809385602485019101611a3f565b01010301601f198101835282610b75565b6306dfcc6560e41b600052601060045260245260446000fd5b61356061ffff91613619565b633a51740d60e01b6000521660045260246000fd5b7f00000000000000000000000000000000000000000000000000000000000000006001600160a01b031690813b1561022157600091602483926040519485938492632e1a7d4d60e01b845260048401525af1801561047257611d7b5750565b90805115613608576020815191016000f5906001600160a01b038216156135f757565b633a0ba96160e11b60005260046000fd5b631328927760e21b60005260046000fd5b6002815110613629576002015190565b60405162461bcd60e51b8152602060048201526014602482015273746f55696e7431365f6f75744f66426f756e647360601b6044820152606490fdfe60806040523461046c57610b568038038061001981610471565b92833981016101208282031261046c5781516001600160401b03811161046c5781610045918401610496565b60208301519092906001600160401b03811161046c5782610067918301610496565b60408201519092906001600160401b03811161046c5781610089918401610496565b5060608201516001600160401b03811161046c57816100a9918401610496565b5060808201516001600160401b03811161046c57816100c9918401610496565b5060a08201516001600160401b03811161046c57816100e9918401610496565b5060c0820151906001600160401b03821161046c57610109918301610496565b5060e08101516001600160a01b038116919082900361046c57610100015183516001600160401b03811161037557600354600181811c91168015610462575b602082101461035557601f81116103fd575b50602094601f82116001146103965794819293949560009261038b575b50508160011b916000199060031b1c1916176003555b82516001600160401b03811161037557600454600181811c9116801561036b575b602082101461035557601f81116102f0575b506020601f8211600114610289578192939460009261027e575b50508160011b916000199060031b1c1916176004555b811561026857600254818101809111610252576002557fddf252ad1be2c89b69c2b068fc378daa952ba7f163c4a11628f55a4df523b3ef602060009284845283825260408420818154019055604051908152a360405161065490816105028239f35b634e487b7160e01b600052601160045260246000fd5b63ec442f0560e01b600052600060045260246000fd5b0151905038806101da565b601f198216906004600052806000209160005b8181106102d8575095836001959697106102bf575b505050811b016004556101f0565b015160001960f88460031b161c191690553880806102b1565b9192602060018192868b01518155019401920161029c565b60046000527f8a35acfbc15ff81a39ae7d344fd709f28e8600b4aa8c65c6b64bfe7fe36bd19b601f830160051c8101916020841061034b575b601f0160051c01905b81811061033f57506101c0565b60008155600101610332565b9091508190610329565b634e487b7160e01b600052602260045260246000fd5b90607f16906101ae565b634e487b7160e01b600052604160045260246000fd5b015190503880610177565b601f198216956003600052806000209160005b8881106103e5575083600195969798106103cc575b505050811b0160035561018d565b015160001960f88460031b161c191690553880806103be565b919260206001819286850151815501940192016103a9565b60036000527fc2575a0e9e593c00f959f8c92f12db2869c3395a3b0502d05e2516446f71f85b601f830160051c81019160208410610458575b601f0160051c01905b81811061044c575061015a565b6000815560010161043f565b9091508190610436565b90607f1690610148565b600080fd5b6040519190601f01601f191682016001600160401b0381118382101761037557604052565b81601f8201121561046c578051906001600160401b038211610375576104c5601f8301601f1916602001610471565b928284526020838301011161046c5760005b8281106104ec57505060206000918301015290565b806020809284010151828287010152016104d756fe608080604052600436101561001357600080fd5b60003560e01c90816306fdde031461041157508063095ea7b31461038b57806318160ddd1461036d57806323b872dd14610280578063313ce5671461026457806370a082311461022a57806395d89b4114610109578063a9059cbb146100d85763dd62ed3e1461008257600080fd5b346100d35760403660031901126100d35761009b61052d565b6100a3610543565b6001600160a01b039182166000908152600160209081526040808320949093168252928352819020549051908152f35b600080fd5b346100d35760403660031901126100d3576100fe6100f461052d565b6024359033610559565b602060405160018152f35b346100d35760003660031901126100d35760405160006004548060011c90600181168015610220575b60208310811461020c578285529081156101f05750600114610199575b50819003601f01601f191681019067ffffffffffffffff8211818310176101835761017f829182604052826104e4565b0390f35b634e487b7160e01b600052604160045260246000fd5b600460009081529091507f8a35acfbc15ff81a39ae7d344fd709f28e8600b4aa8c65c6b64bfe7fe36bd19b5b8282106101da5750602091508201018261014f565b60018160209254838588010152019101906101c5565b90506020925060ff191682840152151560051b8201018261014f565b634e487b7160e01b84526022600452602484fd5b91607f1691610132565b346100d35760203660031901126100d3576001600160a01b0361024b61052d565b1660005260006020526020604060002054604051908152f35b346100d35760003660031901126100d357602060405160128152f35b346100d35760603660031901126100d35761029961052d565b6102a1610543565b6001600160a01b03821660008181526001602081815260408084203385529091529091205491936044359392909181016102e1575b506100fe9350610559565b83811061035057841561033a573315610324576100fe946000526001602052604060002060018060a01b03331660005260205283604060002091039055846102d6565b634a1406b160e11b600052600060045260246000fd5b63e602df0560e01b600052600060045260246000fd5b8390637dc7a0d960e11b6000523360045260245260445260646000fd5b346100d35760003660031901126100d3576020600254604051908152f35b346100d35760403660031901126100d3576103a461052d565b60243590331561033a576001600160a01b031690811561032457336000526001602052604060002082600052602052806040600020556040519081527f8c5be1e5ebec7d5bd14f71427d1e84f3dd0314c0f7b2291e5b200ac8c7c3b92560203392a3602060405160018152f35b346100d35760003660031901126100d35760006003548060011c906001811680156104da575b60208310811461020c578285529081156101f057506001146104835750819003601f01601f191681019067ffffffffffffffff8211818310176101835761017f829182604052826104e4565b600360009081529091507fc2575a0e9e593c00f959f8c92f12db2869c3395a3b0502d05e2516446f71f85b5b8282106104c45750602091508201018261014f565b60018160209254838588010152019101906104af565b91607f1691610437565b91909160208152825180602083015260005b818110610517575060409293506000838284010152601f8019910116010190565b80602080928701015160408286010152016104f6565b600435906001600160a01b03821682036100d357565b602435906001600160a01b03821682036100d357565b6001600160a01b0316908115610608576001600160a01b03169182156105f25760008281528060205260408120548281106105d85791604082827fddf252ad1be2c89b69c2b068fc378daa952ba7f163c4a11628f55a4df523b3ef958760209652828652038282205586815280845220818154019055604051908152a3565b916064928463391434e360e21b8452600452602452604452fd5b63ec442f0560e01b600052600060045260246000fd5b634b637e8f60e11b600052600060045260246000fdfea2646970667358221220a4c213b395b311e8a4828cbedf8ea28de1570b530c24e2b364cbbae8718af35a64736f6c634300081a0033c2c8c3d853b6a3c59312403a77c06fd4d1c5e2aecc097dccfeece8ae3db5a95da26469706673582212208093a1c1bbc1be06cedfb9001f98a86477da2179024322d3b5c22ca6fd6c5a0464736f6c634300081a0033","linkReferences":{}},"methodIdentifiers":{"LIQUIDITY_LOCK_PERIOD()":"8a88c670","MIN_AMOUNT()":"ddbcb5fa","WETH9()":"4aa4a4fc","calculateInitialSqrtPrice(address,address,uint256,uint256)":"2437ee36","calculatePriceFromSqrtPriceX96(uint160,address)":"3eb39a61","calculateTickRange(int24,uint256)":"858c3e3f","createTokenAndAddLiquidity(address,string,string,string,string,string,string,string,uint256,uint256)":"b1edb183","deposits(uint256)":"b02c43d0","endpointV2()":"797b7f6b","factory()":"c45a0155","getCurrentPrice(address)":"84cc315b","getPoolAddress(address)":"1228cbee","getPoolLiquidity(address)":"4d5692d7","getPoolReserves(address)":"4bee9395","getPoolSlot0(address)":"de8f319b","getTokenBalance(address,address)":"c489744b","lzCompose(address,bytes32,bytes,address,bytes)":"d0a10260","nonfungiblePositionManager()":"b44a2722","onERC721Received(address,address,uint256,bytes)":"150b7a02","orderTokens(address)":"b25a5bb4","owner()":"8da5cb5b","poolFee()":"089fe6aa","renounceOwnership()":"715018a6","sqrt(uint256)":"677342ce","stargatePoolNative()":"6baf92dc","swapExactETHForTokens(address)":"11cc4b42","swapExactTokensForETH(address,uint256,uint32)":"bea94630","swapRouter02()":"7eaf1116","tokenInfo(address)":"f5dab711","transferOwnership(address)":"f2fde38b","withdrawLiquidity(address,uint256)":"06d47de9"},"id":83}